:020000040000FA
:0600000002011D02225363
:03002B00021E743E
:03003300021E5555
:030053000222C6C0
:03006B00021E0072
:03007B00021E263C
:10008300022107E5C754F84401F5C77901220000AE
:100093000080FB120086B90003020107E47921788E
:1000A30008B800028004F709D8FCE479297802B87B
:1000B30000028004F709D8FCE4900281786879088B
:1000C3008002F0A3D8FCD9FA781A90014D7A01BACC
:1000D30000028007E493A3F608DAF99009E8AA82FC
:1000E300AB8390014E784F79068015E493A3AC82DD
:1000F300AD838A828B83F0A3AA82AB838C828D83A8
:10010300D8E9D9E775824C7583DC740312012F7526
:100113008291758300740012012F75D00075813FA1
:10012300751881751902759F00020096C09FF59F8F
:10013300E473D09F22D083D082C09FE493C0E07445
:100143000193C0E0740293F59F2201FFFF0A095354
:10015300656E736F72546167051250002003020AC3
:1001630000020105544920424C452053656E736FCC
:10017300722054616700D007E803E803E607000034
:1001830012416363656C2E2044617461000A41630C
:1001930063656C2E20436F6E662E000A4163632EE7
:1001A30020506572696F640002AA8301000078839E
:1001B30002A6830100001D0A101581010000B3028D
:1001C30002A283030000B60202A4830100001E0AF8
:1001D30002A6830100002A0A102581030000BC0245
:1001E30002A4830100002B0A02A683010000380A3F
:1001F300103581030000BD0202A483010000390A07
:10020300124261726F6D657465722044617461009E
:10021300024261726F6D657465722043616C692E71
:10022300000A4261726F6D6574657220436F6E667A
:100233002E0002AA830100007B8302A68301000033
:100243009D0A104582010000BE0202A28303000042
:10025300C20202A4830100009E0A02A683010000D9
:10026300BE0A108581030000DE0202A483010000A0
:10027300BF0A02A683010000AD0A107581010000C8
:10028300C80202A283030000D80202A48301000073
:10029300AE0A02AA830100008D8310B5810100001C
:1002A300DF02020202020202020202010D0000004A
:1002B300100102AA83010000908302A683010000BB
:1002C3003F0B02C283010000E60202A68301000085
:1002D300400B02C083010000B08202A6830100002C
:1002E300410B02BE83010000BF8202A6830100000E
:1002F300430B02BC83010000818002A6830100003E
:10030300440B02BA83010000B58202A683010000F8
:10031300420B02B883010000BA8202A683010000E7
:10032300450B02B683010000938002A683010000FF
:10033300460B02B483010000758202A6830100000C
:10034300470B02B283010000480B01E803053F108D
:10035300124779726F2E2044617461000A477972E3
:100363006F2E20436F6E662E0002AA830100008762
:100373008302A683010000ED0B10F5810100009AB2
:100383000302A283030000A00302A483010000EE82
:100393000B02A683010000F90B10D581030000A610
:1003A3000302A483010000FA0B03800000807000A5
:1003B30061801248756D69642E2044617461000A7E
:1003C30048756D69642E20436F6E662E0002AA8302
:1003D300010000848302A6830100004F0C10F58006
:1003E3000100002D0402A283030000310402A48350
:1003F300010000500C02A6830100005C0C10E58094
:10040300030000370402A4830100005D0C1249526B
:100413002054656D702E2044617461000A49522096
:1004230054656D702E20436F6E662E0002AA830101
:100433000000818302A683010000AA0C10B580018D
:100443000000380402A2830300003C0402A48301D9
:100453000000AB0C02A683010000B90C10A58003B9
:100463000000420402A483010000BA0C124D61672C
:100473002E2044617461000A4D61672E20436F6E24
:10048300662E000A4D61672E20506572696F640005
:1004930002AA83010000938302A683010000090DD1
:1004A300105581010000430402A2830300004904A4
:1004B30002A4830100000A0D02A683010000140DAB
:1004C3001025820300004F0402A483010000150DD0
:1004D30002A683010000200D1035820300005004A2
:1004E30002A483010000210DFF0001307503020106
:1004F30006000000000000000000000000000000F3
:1005030000000000000000000000000000FFFF06E4
:1005130000800CE803104B657920507265737320DB
:1005230053746174650002AA830100007E8302A6EE
:1005330083010000B20D02C883000000FE0402A282
:1005430083030000FF0402A483010000B30D0254DF
:100553006573742044617461000A546573742043A5
:100563006F6E6669670002AA830100008A8302A690
:1005730083010000EB0D10D580030000050502A4E4
:1005830083010000EC0D02A683010000F60D10C5E7
:10059300810300000D0502A483010000F70DFF0095
:1005A30000B4000028002800283075A000A000A097
:1005B30000A00000080008E001F000100010001087
:1005C30000100010001000500050005000100010E8
:1005D30000D0070000000000000F00307507001076
:1005E30000010081FF0000FFD40DF20DDA0DFF02C0
:1005F300020A0A025000A0000000E80302AA8301D5
:100603000000968302A6830100008C0E02A08301E2
:1006130000003F0502A6830100008D0E029C8301AA
:100623000000550502A6830100008E0E029E83037F
:100633000000570502A6830100008F0E02A8830362
:100643000000580502A683010000900E02B083014A
:100653000000910EFF0100FF2002AA830100009910
:100663008302A683010000F50E02C683000000008A
:100673000002A283030000A505B013B013B013B0AA
:1006830013B013B013B013B013B013B013B013B04F
:1006930013B0133E1656163816120138A0E0021294
:1006A3000138B5E0021201380DE10212013874E19C
:1006B30002120138BCE10212013832E2021201389F
:1006C30061E2021201386FE202120138D3E2021230
:1006D300013811E3021201382CE302120138C4E39A
:1006E300021201386BE402120138ECE40212013801
:1006F30023E502120138ACE50212013801E60212C9
:1007030001385EE60212013870E60212013896E6FD
:10071300021201389FE602120138F8E7021201388B
:10072300B9CF0312013898D003120138ABB40312C6
:100733000138F0B40312013834B503120138C5B6D9
:100743000312013844D4031201385FD40312013871
:100753006FD403120138C6D40312013825D703120C
:100763000138008003120138178003120138118108
:10077300031201385D81031201387D8103120138B0
:10078300CE81031201383982031201387D820312AC
:100793000138DB82031201388385031201380C868A
:1007A3000312013877CE03120138A7CE03120138A2
:1007B300D7CE03120138F7CE0312013851CF0312FB
:1007C30001385E9B02120138A89D02120138D4A1A0
:1007D3000212013806A20212013831A202120138B4
:1007E30037A302120138D6A302120138B4A40212AD
:1007F3000138EBA40212013822A50212013859A5CF
:100803000212013890A502120138C7A5021201385D
:10081300FEA50212013835A6021201380CA70212F6
:10082300013810D5031201383BD3031201388EBFB0
:1008330003120138D6BF0312013859C0031201381D
:1008430036C1031201381D86031201384286031292
:1008530001387D86031201383CDA03120138582926
:1008630000120138CB2B001201388B2D00120138F6
:10087300362E00120138DA2E00120138732F0012BF
:100883000138A22F00120138033500120138AE35AA
:10089300001201381E370012013886370012013862
:1008A3003A3800120138BA3900120138F939001206
:1008B30001386D3A00120138CC3A001201382B3B53
:1008C300001201389A3B001201388D3C00120138A6
:1008D300D33C00120138183D001201383B3D001291
:1008E30001388B3E001201389E3E00120138103F42
:1008F30000120138473F00120138733F00120138DC
:10090300C63F00120138E73F001201382B400012A6
:1009130001387D4200120138BE420012013869439A
:1009230000120138D4430012013866D8031201388B
:10093300DFC403120138BDC5031201386EC60312AA
:10094300013820C80312013859C80312013877C887
:100953000312013800C903120138AAC9031201386E
:100963004FDB0312013858DB03120138C5FF0212B3
:100973000138F4D00312013804D10312013818D11D
:100983000312013820D2031201381BAF03120138BE
:10099300BEAF03120138DAB1031201388FBB031261
:1009A300013804BC031201387CBC0312013803BDB7
:1009B3000312013813BD0312013854BD0312013869
:1009C30097BD03120138BCC903120138F6C90312DB
:1009D300013869CA03120138A3CA03120138E8CAED
:1009E30003120138FACA0312013831CB031201385A
:1009F30080C603120138CFC60312013801C70312A0
:100A0300013892C7031201380EC80312013880FC63
:100A130002120138A9FC02120138D2FC0212013879
:100A230092FD02120138E3FD02120138B3FF0212F4
:100A33000138EACC031201381DCD0312013899CDD8
:100A430003120138B9CD031201381ECE0312013847
:100A530066CE0312013869CE03120138AE94031235
:100A63000138C794031201385C95031201383F968D
:100A730003120138B99803120138F99803120138A7
:100A83003799031201385DB903120138ACB9031267
:100A93000138D8B903120138F8B90312013885BAFD
:100AA300031201387DBB0312013855CB0312013801
:100AB300A6CB0312013830CC03120138BDCC03128C
:100AC3000138F87F00120138F5B103120138F5B38C
:100AD3000312013861B403120138A8B403120138B8
:100AE300C8D703120138A0D903120138C8D503129D
:100AF3000138A9BD0312013808BE03120138B6BE7E
:100B03000312013835BF03120138FBA80312013861
:100B13002DA90312013835AA031201385AAB031267
:100B23000138F8CB02120138EACC021201382DCD7C
:100B33000212013867CD02120138DCCD02120138EE
:100B43003DCE02120138BACE0212013896CF0212FC
:100B53000138A1D00212013822D102120138C9D2C0
:100B6300021201385FD302120138D2D302120138C4
:100B73004ED40212013865D4021201389CD50212F8
:100B83000138F6D502120138C5AD011201387BB226
:100B93000112013840B50112013869B5011201385B
:100BA30090B50112013838B60112013827B8011285
:100BB30001381DB90112013870BE01120138A9BEF6
:100BC30001120138C3DC031201387BD6031201384A
:100BD30004D9031201382CC30312013843C303128F
:100BE300013872C303120138ABC303120138D3C3F4
:100BF3000312013801C40312013818C40312013867
:100C03002FC40312013845C4031201386CC4031204
:100C130001387FC40312013895C403120138A8C4F4
:100C230003120138CDC40312013862D6021201380F
:100C330061D70212013896D702120138B7D70212D0
:100C43000138C7D702120138E8D702120138F4D8A5
:100C530002120138C1D90212013834DA0212013802
:100C6300BADA02120138FDDA0212013834DB021259
:100C73000138BADB021201388CDC02120138EADCDB
:100C83000212013802DD021201387CDD0212013842
:100C93007FDD0212013882DD0212013829DE0212E1
:100CA300013841DE0212013871DE0212013891DE91
:100CB300021201387FDF0212013835E002120138D7
:100CC3000690031201382E90031201385C90031230
:100CD3000138939003120138FB90031201384491B9
:100CE300031201388F9103120138CD910312013899
:100CF3000A9203120138389203120138DF92031269
:100D03000138E99203120138F6920312013829934C
:100D130003120138EB9303120138F79303120138DE
:100D23000F9403120138199403120138087F00123B
:100D33000138167F001201382E7F00120138467FDA
:100D4300001201383CD001120138DAD00112013807
:100D530052D10112013867D201120138A1D2011216
:100D630001384AD3011201381FD40112013883D547
:100D730001120138DAD50112013861D601120138A6
:100D830048D70112013895D70112013823D801122F
:100D9300013847D8011201381CDA011201385DDA33
:100DA300011201387FDA0112013800DB0112013828
:100DB300EADB01120138B0DC011201384CEF0212F8
:100DC30001381EF002120138C7F0021201380AF18D
:100DD3000212013897F10212013823F2021201388C
:100DE30004F30212013833F3021201382FF4021212
:100DF300013877F40212013879F502120138BDF592
:100E030002120138E3F502120138C6DA031201387F
:100E13008DA103120138A3A103120138C9A1031242
:100E23000138F1A203120138FBA20312013854A4C2
:100E33000312013854A503120138138B031201382E
:100E4300208C03120138548C03120138968C031240
:100E53000138508E03120138DFC00112013842C13C
:100E63000112013887C20112013897C201120138F9
:100E7300BAC20112013805C301120138AAC3011213
:100E83000138A0C4011201386AC501120138E2C653
:100E93000112013824C701120138C2C701120138F7
:100EA3000FC80112013835C80112013823CA0112D3
:100EB300013828CA0112013809CC011201385DCC6E
:100EC30001120138BFCC01120138E7CC01120138FD
:100ED3008BCD011201384DCE011201387ECE0112A5
:100EE300013881CE01120138C9CE011201380BCF6E
:100EF3000112013872CF0112013807B7031201380A
:100F03001AB70312013833B7031201387EB703123D
:100F1300013859B803120138E8B80312013833B95C
:100F230003120138E84400120138F4440012013876
:100F33002D4500120138724500120138294600126E
:100F43000138AF46001201381447001201384047F8
:100F5300001201387947001201388D490012013817
:100F6300694B00120138544D001201388B4E0012A8
:100F73000138EB5000120138D751001201381D53CC
:100F8300001201382A540012013847540012013864
:100F93007F54001201389954001201380155001290
:100FA30001389B59001201383C5A001201388D5AFE
:100FB30000120138B45A00120138025B00120138E2
:100FC300205B00120138745B001201384D5C001283
:100FD3000138D45D001201385C5E0012013858F606
:100FE3000212013862F6021201382DF7021201389B
:100FF30071F70212013897F702120138E3F7021270
:1010030001381BF80212013844F80212013881F941
:1010130002120138AEF902120138DBF9021201386B
:1010230026FA0212013841FA021201388CFA02122E
:101033000138C6FA0212013800FB0212013855FBCF
:1010430002120138C0FB0212013809FC02120138F6
:1010530033FC0212013858FC02120138A19D03121D
:1010630001386B9E031201384E9F03120138C49F4F
:101073000312013806A00312013833A10312013809
:10108300E7A70212013810A80212013829A8021298
:1010930001386EA9021201384CAA021201386BAA58
:1010A30002120138F8AA021201383BAB02120138CE
:1010B30088AC0212013827AD02120138A6AF021222
:1010C30001383DB00212013811B102120138F3B1F7
:1010D300021201385FB302120138F2B3021201386F
:1010E30026D2031201388FD203120138E3D203123E
:1010F30001380AD3031201385DFB01120138CAFB20
:101103000112013815FC011201380AFD01120138E0
:1011130006FE01120138F0FE011201389A76001220
:101123000138DC7600120138B677001201388F7867
:10113300001201388A7900120138697A00120138E5
:10114300D57A001201389C7B00120138077C00120B
:1011530001386E7C00120138997C001201380A7D37
:10116300001201389D7D00120138067E00120138FD
:101173001B7E00120138637E001201387C7E001250
:101183000138E17E00120138E47E0012013821ACFF
:101193000312013849AC0312013887AC031201383A
:1011A30045AD03120138B0AD03120138CCAD0312C3
:1011B3000138F4AD0312013824AE0312013833AE03
:1011C30003120138ADAE03120138D3AE0312013856
:1011D30063ED0112013840EF011201383BF10112B6
:1011E30001380EF20112013859F201120138A4F24A
:1011F30001120138C2F20112013804F3011201385D
:101203001FF3011201386BF301120138A5F3011228
:101213000138C8F30112013815F40112013888F4BA
:10122300011201389AF60112013844F8011201380B
:1012330094F801120138F9F9011201384FFA011239
:101243000138BDFA0112013808FB0112013832FBE3
:101253000112013869B40212013894B40212013840
:101263007BBB021201389FBD021201385ABF021222
:101273000138B7C002120138C35E001201385A5F49
:1012830000120138875F00120138CD5F0012013868
:101293000C6100120138A36200120138F8620012D7
:1012A30001386D63001201389C6400120138F76540
:1012B30000120138F966001201385668001201382D
:1012C3006F6800120138CC6800120138AE69001251
:1012D3000138E16900120138516A00120138CB6A02
:1012E300001201381A6B00120138E66B0012013844
:1012F300EB6C00120138CA6D00120138556E0012F2
:101303000138C36E00120138376F00120138606F65
:10131300001201381F700012013899710012013850
:10132300B67100120138D5710012013866720012CD
:1013330001388B7200120138B372001201382E7318
:1013430000120138887300120138DC74001201386E
:101353009975001201386C76001201380080021270
:1013630001385080021201385C8002120138398141
:1013730002120138698102120138A1810212013877
:10138300208202120138588202120138AA82021204
:101393000138E782021201380C85021201383887BE
:1013A300021201383389021201380E8B02120138FE
:1013B300DF7F00120138149A011201385E9A01127C
:1013C30001383DA001120138BEA1011201381DA848
:1013D3000112013818A90112013855A90112013867
:1013E30078A901120138BAA901120138C3A901125F
:1013F3000138CDA901120138B9AA01120138ADABE8
:1014030001120138CF8301120138478E01120138CE
:101413004D8E011201385995011201385EA5031250
:101423000138F4A5031201380AA60312013884A671
:1014330003120138DAA60312013818A70312013880
:1014430075A703120138F2A703120138FBA7031291
:10145300013807A8031201381AA80312013856A845
:10146300031201386CA803120138CBA80312013808
:101473005599031201386299031201387C990312BA
:101483000138BB9903120138F999031201385E9AA6
:1014930003120138739A031201387E9A031201383A
:1014A3008B9A03120138A29A03120138B09A0312DD
:1014B3000138BB9A03120138C79A03120138D69A2E
:1014C30003120138E19A03120138049B0312013815
:1014D300AD9B03120138BD9B03120138D79B031246
:1014E3000138F49B03120138109C03120138359C18
:1014F300031201383F9C03120138539C0312013835
:10150300729C03120138D39C03120138D99C031235
:101513000138DF9C03120138E59C03120138F19C6A
:1015230003120138249D03120138D48D02120138AD
:10153300568E02120138FF8E0212013847900212B2
:1015430001385592021201383B930212013870930D
:10155300021201389293021201383B9402120138AD
:101563000B9602120138349602120138AC9602121D
:101573000138DE9602120138EB96021201383697D3
:10158300021201385A9702120138AB99021201383C
:10159300B59A02120138119B02120138E5DE0112DD
:1015A3000138F6DF01120138DAE001120138E4E014
:1015B3000112013806E10112013812E1011201386A
:1015C300B6E201120138E3E201120138F9E3011234
:1015D30001384EE4011201389DE50112013872E62B
:1015E30001120138CEE60112013839E70112013840
:1015F3006EE701120138B1E7011201387BEA0112EB
:10160300013893EA0112013824EB0112013832EB5D
:10161300011201387FEB011201388DEB0112013801
:10162300F9EB0112013874EC01120138CBEC011211
:101633000138DAC002120138FCC0021201380DC3AE
:1016430002120138CCC502120138F6C60212013863
:10165300B4C702120138A0C80212013873C10312C1
:10166300013898C1031201380EC2031201382FE862
:101673000212013838E80212013841E80212013837
:1016830019E902120138CAEA02120138FAEA02120F
:10169300013825EB0212013855EB0212013880EBB9
:1016A30002120138B4EB02120138E0EB02120138E6
:1016B30023EC021201384EEC0212013895EC0212AF
:1016C3000138EAEC021201382CED0212013886EDE2
:1016D30002120138B1ED0212013800EE0212013894
:1016E30030EE021201385BEE0212013889EE02126B
:1016F3000138ACEE02120138CFDB03120138FBDBF9
:101703000312013828DC0312013832DC03120138DA
:1017130042DC03120138B2FF01120138DFFF01E09E
:1017230066701008A3E066700A08A3E066700408F8
:10173300A3E06622C3E7960809E7960809E7960837
:1017430009E79622C3E09608A3E09608A3E096086B
:10175300A3E09622C008C3E096F50808A3E09642EA
:101763000808A3E096420808A3E09645087001D351
:10177300D00822080808EAC0E0EBC0E086F0E7A43E
:10178300FA180986F0E7A42AFA180986F0E7A42ACA
:10179300FA180986F0E7A42AFA1986F0E7A4FBE50C
:1017A300F02AFA190886F0E7A42BFBE5F03AFA19B8
:1017B3000886F0E7A42BFBE5F03AFA18180986F03F
:1017C300E7A4C5F02BFBE43AFA1908E7C5F0C6A471
:1017D30026F6E5F03BFBE43AFA1886F0E7A4F6E5D3
:1017E300F00826F6E43B08F6E43A08F6D0E0FBD02E
:1017F300E0FA22E4CFC0E0E4CEC0E0E4CDC0E0E410
:10180300CCC0E075F020C3E633F608E633F608E60D
:1018130033F608E633F6181818EC33FCED33FDEE17
:1018230033FEEF33FFC3EC9709ED9709EE9709EF0A
:1018330097191919400FFFEC97FC09ED97FD09EE75
:1018430097FE191906D5F0BEECF709EDF709EEF787
:1018530009EFF7191919D0E0FCD0E0FDD0E0FED074
:10186300E0FF226016080808C6C313C618C613C6CD
:1018730018C613C618C613C6D5E0EA2270090808AD
:1018830008226016181818C6C333C608C633C6081C
:10189300C633C608C633C6D5E0EA22E627F60809EA
:1018A300E637F60809E637F60809E637F622E026B2
:1018B300F608A3E036F608A3E036F608A3E036F60A
:1018C30022E026F008A3E036F008A3E036F008A3F0
:1018D300E036F022C3E697F60809E697F60809E62C
:1018E30097F60809E697F622C3E096F008A3E09678
:1018F300F008A3E096F008A3E096F022E056F6087D
:10190300A3E056F608A3E056F608A3E056F622E055
:1019130056F008A3E056F008A3E056F008A3E056FB
:10192300F022E0F608A3E0F608A3E0F608A3E0F649
:1019330022E6F008A3E6F008A3E6F008A3E6F02207
:10194300E0FAA3E0FBA3E0FCA3E0FD22EAF0A3EBB3
:10195300F0A3ECF0A3EDF022CAC0E0E6F0A308DAAE
:10196300FAD0E0FA22CAC0E0E0A3C582CCC582C5A2
:1019730083CDC583F0A3C582CCC582C583CDC58382
:10198300DAE6D0E0CA22C3E498F8E499F91219CA56
:101993008026C3E49AFAE49BFBE920E7E91219CA1B
:1019A300E498F8E499F922C3E498F8E499F9121950
:1019B300CAE498F8E499F9C3E49AFAE49BFB22EBAE
:1019C30020E7CFE920E7E0B90010BB0008E88AF080
:1019D30084F8AAF022E4FBC8FA22EB70227B10C839
:1019E30033C8C933C9335007C39AC3DBF280069A9D
:1019F30050012ADBEAC833F4C8C933F4C9FA2275A3
:101A0300F008E4C833C8C933C933C99AC99B500421
:101A1300C92AC93BD5F0ECFBC833F4C8E4C9FA22A0
:101A2300600D08C6A2E713C618C613C6D5E0F32295
:101A3300600C08C6C313C618C613C6D5E0F42270DB
:101A43000422600D18C6C333C608C633C6D5E0F4F6
:101A53001822251810AF08F518400215198008F54B
:101A63001840021519D2AF22C0D0251810AF08F5BF
:101A730018500205198008F51850020519D2AFD085
:101A8300D0222518F58210AF08F5184002151980E9
:101A930008F51840021519D2AF851983222518F5C8
:101AA30082E43519F58322E4732518C582C0E0E585
:101AB3001934FFC583C0E0E518C3958224F810AF3D
:101AC300088583198582188008858319858218D231
:101AD300AFCEF0A3E520F0A37808E608F0A3DEFA82
:101AE300EFF0A3E58124FAF8E608F0A3E608F0A3F3
:101AF300E608F0A30808E608F0A3E608F0A31581BA
:101B03001581D0E0FED0E0F8158115811581E8C07C
:101B1300E0EEC0E0222518C582C0E0E51934FFC518
:101B230083C0E0E518C3958224F910AF08858319B3
:101B33008582188008858319858218D2AFCEF0A3D9
:101B4300E520F0A37808E608F0A3DEFAEFF0A3E5BA
:101B53008124FBF8E608F0A3E608F0A30808E608EA
:101B6300F0A3E608F0A315811581D0E0FED0E0F8DC
:101B730015811581E8C0E0EEC0E022851983851840
:101B830082E0A3FEE0A3F5207808E0A3F608DFFADD
:101B9300E0A3FFE0A3C0E0E0A3C0E0E0A3C0E0E077
:101BA300A3C0E0E0A3C0E010AF08858218858319C5
:101BB3008008858218858319D2AFD083D082020131
:101BC30035851983851882E0A3FEE0A3F520780804
:101BD300E0A3F608DFFAE0A3FFE0A3C0E0E0A3C0C0
:101BE300E0E0A3C0E0E0A3C0E010AF088582188561
:101BF30083198008858218858319D2AFD083D08258
:101C030022C0D02518C582C0E0E51934FFC583C0C2
:101C1300E0E518C3958224F310AF08858319858204
:101C2300188008858319858218D2AFC8F0A3E9F01C
:101C3300A3EAF0A3EBF0A37908E709F0A3D8FAEC41
:101C4300F0A3EDF0A3EEF0A3EFF0A3D0E0F0A3D068
:101C5300E0F0A3D0E0F0A3E520F0A3E5F0F0A322A9
:101C6300851983851882E0C0E0A3E0F9A3E0FAA315
:101C7300E0FBA37808E0F608A3DFFAE0FCA3E0FDAD
:101C8300A3E0FEA3E0FFA3E0C0E0A3E0C0E0A3E085
:101C9300F5D0A3E0F520A3E0A3F5F010AF0885830A
:101CA300198582188008858319858218D2AFD0825E
:101CB300D083D0E0F8D0E03274048006740280024E
:101CC3007401C0E0F404121A85D0E012195B227487
:101CD30004800474028000CCC0E0EDC0E0E518C3CA
:101CE3009CCCAD1950011D10AF068C188D198006C0
:101CF3008C188D19D2AF121968D0E0FDD0E0FC2208
:101D0300D083D082E9C0E0E493A3C386F0C5F09505
:101D1300F0F908E493A386F0C5F095F0700BE49313
:101D2300A3C3994005E9048002A3E475F002A42546
:101D330082F582E5F03583F583D0E0F9E493A3C01F
:101D4300E0E493C0E022D083D082ECC0E0EDC0E0B9
:101D5300E493A3FCE493A3FDED4C600D121D95ECFD
:101D630024FFFCED34FFFD80EFE493A3FCE493A395
:101D7300FDED4C600D121DD4EC24FFFCED34FFFD92
:101D830080EFD0E0FDD0E0FCE493A3C0E0E493C097
:101D9300E022C0E0C3E49396087401939618400FC1
:101DA300E49366700808740193661870007019A3B1
:101DB300A3C3E49396087401939618A3A3400DD08C
:101DC300E0D0E0D0E0021D85A3A3A3A3A3A3D0E0AA
:101DD30022C0E0C0F088F0E49366700808740193B1
:101DE30066187000A8F0A3A3700BD0F0D0E0D0E089
:0C1DF300D0E0021D85A3A3D0F0D0E022B8
:101E0000C0E074F2121C04A2AFE433FED2AFE58945
:101E1000A2E05003120A4A758900C2C5EEA2E09200
:101E2000AF7F01021C63C0E074F2121C04A2AFE495
:101E300033FED2AFE58AA2E64006E58AA2E7500368
:101E4000120A4A758A00758A00C2EBEEA2E092AFD0
:101E50007F01021C63C0E0C0D0E8C0E0A2AFE43361
:101E6000F8D2AF758B00C2E8A2E092AFD0E0F8D014
:101E7000D0D0E032C0E0C0D0E8C0E0A2AFE433F898
:101E8000D2AFC2C7751A00A2E092AFD0E0F8D0D0AE
:101E9000D0E03274F5121B18EAFEEBFFEE2434F8A2
:101EA000EF3400F988088909EE2435F582EF340013
:101EB000F583E0F8EE2437F582EF3400F583E0F5A2
:101EC0000AEC850AF0A4FCAAF0850AF0EDA42AFD2C
:101ED000E82CF8E43DF97A257B001219CAEA850856
:101EE00082850983F05407F87401B800028004C3A6
:101EF00033D8FCC0E0E0131313541FF8EE28F8EFBA
:101F00003400F9E8245DF582E93400F583D0E0F887
:101F1000E0586008EE2434F582EF801EEE2436F59A
:101F200082EF3400F583E0F5F0EA84A8F0EE28F8BB
:101F3000EF3400F9E82438F582E93400F583E0F95C
:101F40007F04021BC474F5121B18EAFEEBFFEE249B
:101F500034F582EF3400F583E0C0E0EE2435F582FD
:101F6000EF3400F583D0E0F08E828F83A3A3A3A388
:101F7000A3A3A3C082C0838E828F83A3A3A3A3A3A2
:101F8000E0F8A3E0F9D083D082E0C398F508A3E09D
:101F900099F509EE2480F582EF3400F583E06401C1
:101FA0007069EE2481F582EF3400F583E0F8A3E058
:101FB000F98E828F83A3A3A3A3A3A3A3E0FCA3E032
:101FC000FD8E828F83A3A3A3A3A3E0FAA3E0FBC3A8
:101FD000EA9CEB9D5027C3EC98ED99402EC3EA98FC
:101FE000EB9950277C8A7D07EEFAEFFB12130EEE79
:101FF0002480F582EF3400F583E4F0800EC3EA9884
:10200000EB9940E0C3EC98ED9950D9EE2434F8EF09
:102010003400F9E8FCE9FDEE2435F582EF3400F5F3
:1020200083E0F8EE2437F582EF3400F583E0F50A1B
:10203000E508850AF0A4F508AAF0850AF0E509A4E8
:102040002AF509E82508F8E43509F97A257B001214
:1020500019CAEA8C828D83F05407F87401B8000223
:102060008004C333D8FCC0E0E0131313541FF8EE10
:1020700028F8EF3400F9E8245DF582E93400F583AF
:10208000D0E0F8E0586008EE2434F582EF801EEED0
:102090002436F582EF3400F583E0F5F0EA84A8F009
:1020A000EE28F8EF3400F9E82438F582E93400F539
:1020B00083E0F9122941021F40C082C08385188243
:1020C000851983E0F8A3E0F9C3EA9CEB9D5012C3A5
:1020D000EC98ED994019C3EA98EB99501279018078
:1020E00010C3EA98EB9940F5C3EC98ED9950EE795E
:1020F00000D083D08222EAC39CFAEB9DFB22000031
:102100008521878522C622C0E0C0D0E8C0E0E9C0B2
:10211000E0EAC0E0EBC0E0ECC0E0EDC0E0C008C029
:1021200009C00AC00BC082C083C0F0759B009061DB
:1021300082E0A2E640030221E5E591A2E640030227
:1021400021E57591BF90064FE064057008121446B2
:10215000121452800312144C7521001214ACE99031
:102160000650F079001214A012128A7A017B0090B6
:10217000064EE0F91206F6907803E064426003022E
:10218000222E9007ECE014F0600302222EC2AF1260
:10219000219200782AD0E0F618D0E0F6E59F5407A7
:1021A000F9700590831C80039083647808121925C8
:1021B000E9C4C0E07829E65508F50808E65509F5B0
:1021C00009740B7808121A33D0E02508F890627071
:1021D000E0A2E740F8E8C333906272F0906270E0EA
:1021E000D2E0F08049E0A2E55024E591A2E5501E3E
:1021F0007591DF90064FE0640D7013900671E00456
:10220000F064287002E4F07A00E0F912151E906183
:1022100081E0A2E35009E5E9A2E3500375E9F7A3E1
:10222000E0A2E75009E591A2E7500375917FD0F055
:10223000D083D082D00BD00AD009D008D0E0FDD016
:10224000E0FCD0E0FBD0E0FAD0E0F9D0E0F8D0D06C
:10225000D0E032C0E0C0D0C082C083906183E0A2F1
:10226000E05009E5BFA2E0500375BFFEE0A2E150D7
:1022700009E5BFA2E1500375BFFDE0A2E25009E508
:10228000BFA2E2500375BFFBE0A2E35009E5BFA285
:10229000E3500375BFF7E0A2E45009E5BFA2E450A4
:1022A0000375BFEFE0A2E55009E5BFA2E550037555
:1022B000BFDFE0A2E65009E5BFA2E6500375BFBF4D
:1022C000D083D0828088C0E0C0D0E8C0E0E9C0E020
:1022D000EAC0E0EBC0E0ECC0E0EDC0E0C0F0E5A794
:1022E000A2E6500FE5A1A2E6500953A7BF75A1BF12
:1022F00012232BE5A7A2E5500CE5A1A2E550065359
:10230000A7DF75A1DFE5A7A2E15009E5A1A2E15091
:102310000375A1FDE5A7A2E2500CE5A1A2E25006DB
:1023200053A7FB75A1FBD0F002223C74F8121B18D6
:1023300075210190064FE0640670151213DA8A8247
:102340008B83A3A3A3A3A3A3E0FAA3E0FB121434FB
:10235000A2AFE433FED2AF900655E0640170187A64
:10236000207B0090064EE0F91207867A207B0090D1
:10237000064EE0F91206FC906182E0D2E6F090078A
:10238000EBE0602185C6228016900654E06401705F
:1023900008E5C654F84405F5C653BEFC1221007486
:1023A00001652160E4EEA2E092AF7F01021BC40050
:1023B0008E238F248582288583278518828519831B
:1023C000E0CEA3E0CF852882852783EBC9EAC8ED5C
:1023D000CBECCA75F010C3E833C8E933C9EA33CA95
:1023E000EB33CBC3EA9EF526EB9FF525B35004AB48
:1023F00025AA26EC33CCED33CDD5F0DAAE23AF24CD
:102400002274EB121B1874FA121A558A088B098C65
:10241000148D1590064FE024F7C394055006908361
:102420005C0225631213DA8A0A8B0BAE0AAF0BEE3D
:102430004F7003022560AC08AD09851882851983A9
:10244000AA82AB831214648E828F83A3A3780812AE
:1024500019259082D878081218FF8518828519836B
:10246000780C1219259082D8780C1218FF78087908
:102470000C121737501F7808790C1218D79082F475
:1024800078081217574047850810850911850A12E8
:10249000850B138041850C10850D11850E12850F5B
:1024A00013781079081218D79082F4781012175701
:1024B000501C75100075110075120075130178100D
:1024C000790C1218D77810790812189E800890831A
:1024D0005C78101219257409781012187F908314F3
:1024E0007808121925781079081217F68E828F83D2
:1024F000A3A3A3A3A3A3E0F8A3E0F97AD07B0312DC
:1025000019CA88088909E4F50AF50B7810790812C8
:10251000189E7404121AA0E0F8A3E0F97AD07B03A5
:102520001219CAE8FA8A08E4F5097810790812172E
:10253000375007781079081218D790064FE06408D2
:10254000600AE064066005E06405701C9082F8781B
:102550001012175750129082FC78101218B1800890
:102560009083607810121925851482851583781060
:102570001219347406121A6B7F0E021BC474F71200
:102580001B181214769007E9E06401701090624500
:10259000E4F0A3F053F4F343FE0C5390F31214222F
:1025A000E5C654804449F5C6E59E547F644970F8F9
:1025B000906185740FF09007E7E0F47002A3E0608B
:1025C0004E9007E8E0600814601B14602E80407590
:1025D00008017509009007E7E07808121A42E5083B
:1025E000F45280802A7508017509009007E7E078A9
:1025F00008121A42E508F452908014750801750912
:10260000009007E7E07808121A42E508F452A07932
:10261000007F02021BC474F7121B18E9FEEAFF7464
:10262000016E700C7A807B0090064EE0F91206F67F
:10263000902950E493F46008E493F912127E800923
:1026400053C680E59E547F70FA1214289007E9E083
:10265000640170031212969007E7E0F47002A3E0A1
:10266000604B9007E8E0600814601A14602C803D0D
:102670007508017509009007E7E07808121A42E52D
:1026800008428080287508017509009007E7E07806
:1026900008121A42E5084290801375080175090076
:1026A0009007E7E07808121A42E50842A012147673
:1026B0001213DA8A088B09A808A909E8496015E508
:1026C000E170FCE82414F582E93400F583E0F4605D
:1026D00003E0F5E174016F700A7A0190064EE0F9AB
:1026E00012075002261174F1121B188A088B098CEC
:1026F0000A8D0B740F121AA0780C1219259082D82B
:1027000078081218FF9082D8780C1218FF78087990
:102710000C12173750157808790C1218D79082F4DC
:102720007808121757401579018013780C79081230
:1027300018D79082F4780C12175740EB79007F0875
:10274000021BC474ED121B188A088B098C0A8D0BAE
:102750007413121AA0780C1219259082D8780812D6
:1027600018FF9082D8780C1218FF780C790812178D
:102770003740117808790C1218D7AA08AB09AC0AAF
:10278000AD0B8022751000751100751200751301D4
:102790007810790C1218D77810790812189EAA10A0
:1027A000AB11AC12AD137F0C021BC49082D8780819
:1027B0001219258A828B8378081219127F04021B52
:1027C000C474F5121B188C828D8378081219258A1F
:1027D000828B8378081218EBEA2404F8EB3400F9B2
:1027E0008C828D83A3A3A3A3E0FCA3E0FD88828950
:1027F00083C3E09CF0A3E09DF088828983C3E094CA
:1028000020A3E0944E402290835478081219258A20
:10281000828B8378081218C48A828B83A3A3A3A314
:10282000E02420F0A3E0344EF0808074F5121B18F1
:10283000E9FE9007A1E0FAA3E0FBEEC333F8E4332E
:10284000F974E528F582748139F583E02AF508A347
:10285000E03BF5097808121CBF9082D4121943128C
:1028600023B07402121A6B8A088B098C0A8D0B74C0
:10287000107808121866AA08AB097F04021BC474FA
:10288000F1121B188A0C8B0D8C0E8D0F740F121AFF
:10289000A0E0FAA3E0FB7411121AA0E0F508A3E08F
:1028A000F5097413121AA0E0FEA3E0FF7808121CC9
:1028B000BFEA2401F508EB3400F509E4F50AF50B4D
:1028C000780C7908121776908338780812192578D1
:1028D0000C7908121776AA0CAB0DAC0EAD0F1223B3
:1028E000B07402121A6B8B09EA450960047A018000
:1028F000027A00EC2AFCED3400FDECF8EDF97A7177
:102900007B021219CA88088909E4F50AF50B8E8240
:102910008F837808121934ECF8EDF97A717B021282
:1029200019CA8A088B0974057808121A428E828F98
:1029300083A3A3A3A3E508F0A3E509F07F08021B86
:0F294000C4C082C083E9906000F0D083D08222AF
:10295000FFFFFFFFFFFFFFFF74F0121AAC8A0A8B24
:102960000B8909ECFEEDFF750800850A0C850B0D3F
:10297000780C121D0300040D9B2B9629B729D6292C
:10298000F729182A392A6C2A8D2AA42ADA2A052B33
:10299000262B462B702B7401650970158E828F8350
:1029A000E0C39403500B8E828F83E0900BE7F0809E
:1029B00003750818022BC47402650970138E828F88
:1029C00083E0F8A3E0F9900BE8E8F0A3E9F08003D6
:1029D000750818022BC47401650970158E828F83E7
:1029E000E0C39402500B8E828F83E09002EFF08060
:1029F00003750818022BC47401650970158E828F47
:102A000083E0C39405500B8E828F83E09002F0F038
:102A10008003750818022BC47401650970158E8235
:102A20008F83E0C39402500B8E828F83E09002F17B
:102A3000F08003750818022BC4741065097027759F
:102A40000C10750D00780C121CBFEEFCEFFD7AF235
:102A50007B021206A27402121A6B8A0C8B0D850C73
:102A600082850D838003750818022BC474016509E3
:102A700070158E828F83E0C39402500B8E828F83F9
:102A8000E0900302F08003750818022BC4740165FE
:102A900009700B8E828F83E0900BEBF0800375083A
:102AA00018022BC474046509702A8E828F83C08239
:102AB000C0839082D4780C121925D083D082780CF0
:102AC000121747500F8E828F8312194390030412FE
:102AD000194F8003750818022BC4E5097021120EE6
:102AE00022E970131208D6E9F50C7950120B82E92D
:102AF000F50D1208C4800B9003977401F0800375E4
:102B00000818022BC47401650970158E828F83E04A
:102B1000C39402500B8E828F83E0900303F08003F6
:102B2000750818022BC47401650970158E828F8395
:102B3000E0C3940A500B8E828F83E0900BEAF08002
:102B400003750818807E74016509701F8E828F835B
:102B5000E0C3940740158E828F83E0C39411500B1D
:102B60008E828F83E0900BECF080597508188054AA
:102B7000740165097020900396E0F50C8E828F83B6
:102B8000E0900396F0E50C703B900396E0640170D2
:102B9000331208C4802E7508188029C3E50A9424CE
:102BA000E50B9400501B7402650970158E828F83AB
:102BB000E0FCA3E0FDAA0AAB0B120CC0E9F508800B
:102BC00003750802A9087F08021B7E74EC121AAC78
:102BD00074DA121A55890D8A128B138C0A8D0B74B4
:102BE0003A121AA0E0F50C908292C082C083851838
:102BF00082851983AC82AD83D083D082740612198A
:102C000068851882851983AC82AD83AA12AB13A99B
:102C10000D12086AE9FEEEC3940A4003022D6AEE23
:102C2000F91208A6E9FF900BE7E064027004740152
:102C300080027400F5087808121CC3AD0CEFFCEE9E
:102C4000F9AA0AAB0B1209187401121A6B7C147DD5
:102C50000079007412121AA0AA82AB831206BA8AF3
:102C60000E8B0F850E08850F097412121AA0AC8204
:102C7000AD837A1075F006EEA42424F9120B7CE9DA
:102C800070437C1079FF7412121AA0AA82AB8312CF
:102C9000071AE970307422121AA0AC82AD837A044C
:102CA00075F006EEA42425F9120B7CE9F5087412E0
:102CB000121AA0AC82AD83EFA2E0E433F9AA0AAB0A
:102CC0000B120D4AE97406121AA0AC82AD837A0C7D
:102CD00074702EF9120B7CE9707E7406121AA0AA89
:102CE00082AB8312089A750E00E50EC394045068F7
:102CF000E50EA80E7900E875F003A4C8AAF075F0F7
:102D000000A42AFA75F003E9A42AF97406121AA09D
:102D1000E58228F508E58339F50985088285098368
:102D2000E0F8A3E0F9E849602B850882850983A3D0
:102D3000A3E0F5107511007810121CBF850882857C
:102D40000983E0FCA3E0FDAA0AAB0B120FA87402F2
:102D5000121A6BE9050E8091EFA2E1500D9002EE80
:102D6000E0F9AA0AAB0B120FAEE97404650C700F00
:102D7000900BE7E064027007AA0AAB0B1209127904
:102D8000007426121A6B7F0C021B7E74F2121AACAE
:102D9000890BEAFEEBFF8C088D09750A0AE50B60CA
:102DA0000C146009146044146064022E2FEEFAEFD4
:102DB000FB1208B8E9F50AE50AC3940A5071E50860
:102DC0004509606B750C06750D00780C121CBFEE82
:102DD000FCEFFDAA08AB091206A27402121A6B8A54
:102DE0000C8B0D850C82850D838044EEFAEFFB126F
:102DF00008B2E9F50AE50AC3940A5033E508450923
:102E0000602DAA08AB09A90A1208ACE98021EEFAE4
:102E1000EFFB1208BEE9F50AE50AC3940A5010E573
:102E2000084509600AAA08AB09A90A1208ACE9A971
:102E30000A7F06021B7E74F2121AAC8A0C8B0DE913
:102E4000FE7F1574FF650C700474FF650D702A75A4
:102E50000800E508C3940A5014EEFC7A027B00A92E
:102E600008120888E960027F00050880E5EE6063CB
:102E70007A007B091211C4805AAA0CAB0D1211A65C
:102E80008A0A8B0B850A08850B09E508450960410C
:102E90007C007D00E5082405FAE5093400FB85087F
:102EA00082850983A3A3A3A3E0F912086AE9F50ABE
:102EB000E50AC3940A500EEEFC7A027B00A90A12BE
:102EC0000888E97F00EE600BAA08AB0912090080B0
:102ED000027F14EFF97F06021B7E74EE121AAC8A91
:102EE0000E8B0F8C0A8D0B7412121AA0E0F50CA336
:102EF000E0F50D75081574FF650E700474FF650F1D
:102F0000701E7E00EEC3940A5062AC0CAD0DAA0A8E
:102F1000AB0BEEF912088EE960037508000E80E431
:102F2000AA0EAB0F1211A68A108B11AE10AF11EEC4
:102F30004F60367C007D00EE2405FAEF3400FB8EF6
:102F4000828F83A3A3A3A3E0F912086AE9F509E538
:102F500009C3940A5016AC0CAD0DAA0AAB0BA90913
:102F600012088EE97508008003750814A9087F0A05
:102F7000021B7E74F7121AACEAFEEBFF900308EE18
:102F8000F0A3EFF09002EEE0FC7D007A237B0012CC
:102F90000CC0E9F5089002EEE0F9120F247F01025F
:102FA0001B7E74EE121AAC74EC121A558A0A8B0B43
:102FB000850A82850B83A3A3E024FA70030234D62A
:102FC00024FD700302334C1470030230951460101A
:102FD00024FD70030232F414700302338C0234F9BE
:102FE000AE0AAF0B900308E0F8A3E0F9E849606986
:102FF000900308E0F8A3E0F5838882E0F8A3E0F905
:10300000E8496055EE240CF582EF3400F583E0F5D5
:10301000087808121CC3EE240BF582EF3400F58308
:10302000E0F98E828F83A3A3A3A3A3A3A3A3A3E00A
:10303000FCA3E0FDEE2403FAEF3400FB900308E06C
:10304000F8A3E0F5838882E0F8A3E0F58388821294
:103050001AAA7401121A6B80398E828F83A3A3A3DC
:10306000A3A3A3A3A3A3121CD69003041219431273
:103070000D5C7402121A6BE9601879018E828F83DD
:10308000A3A3A3A3A3A3A3A3A3E0FAA3E0FB120D0E
:1030900056E90234F9AE0AAF0B8E828F83A3E0604B
:1030A000030232A28E828F83A3A3A3A3A3E0A2E094
:1030B00040030232A27C0E7D0079008518828519BA
:1030C00083AA82AB831206BA8A088B09AA08AB09C5
:1030D0008E828F83A3A3A3A3A3A3A3A3E0F8A3E05B
:1030E000F9E849603D7508067509007808121CBFAB
:1030F0008E828F83A3A3A3A3A3A3A3A3E02410FC86
:10310000A3E03400FD7402121AA0AA82AB83120657
:10311000A27402121A6B8A088B09850882850983BA
:1031200080548E828F83A3A3A3E0FAA3E0FB121145
:10313000A68A0C8B0D850C08850D09E508450960EC
:1031400032750C06750D00780C121CBFE5082405BD
:10315000FCE5093400FD7402121AA0AA82AB8312A6
:1031600006A27402121A6B8A0C8B0D850C82850DD7
:103170008380030234F98E828F83A3A3A3A3A3E0E9
:10318000A2E25004D2F08002C2F0A2F0E433F87957
:1031900000740C121AA0E048F0A3E049F08E828F70
:1031A00083A3A3A3A3A3A3A3A3A3A3E0F8A3E0F9EA
:1031B000E84960228E828F83A3A3A3A3A3A3A3A322
:1031C000A3A3E02410F8A3E03400F988828983786F
:1031D0000C1219258008908354780C1219258E82C0
:1031E0008F83A3A3A3A3A3A3A3A3A3A3E0F8A3E014
:1031F000F9E84960178E828F83A3A3A3A3A3A3A397
:10320000A3A3A3E0F508A3E0F509800675080075FF
:1032100009008E828F83A3A3A3A3A3A3A3A3E0F893
:10322000A3E0F9E84960158E828F83A3A3A3A3A32B
:10323000A3A3A3E0F510A3E0F511800675100075B7
:103240001100780C121CBB7808121CBF7810121CDD
:10325000BFEE240CF582EF3400F583121CD68E826B
:103260008F83A3A3A3A3A3A3E0FCA3E0FD740A128E
:103270001AA0AA82AB831208A0740A121A6BE9F58D
:10328000088E828F83A3A3A3E0F8A3E0F9900398AC
:10329000E8F0A3E9F07A017B009002EEE0F9120673
:1032A000F6E9900308E0F8A3E0F9E84960439003E9
:1032B00008E0F8A3E0F5838882A3A3E0F8A3E0F98F
:1032C000E849602D8E828F83A3E0FC79018E828F86
:1032D00083A3A3A3E0FAA3E0FB900308E0F8A3E034
:1032E000F5838882A3A3E0F8A3E0F5838882121A0D
:1032F000AA0234F9AE0AAF0B900308E0F8A3E0F994
:10330000E8496045900308E0F8A3E0F5838882A3CC
:10331000A3E0F8A3E0F9E849602F850A82850B83D2
:10332000A3E0FC79028E828F83A3A3A3E0FAA3E03B
:10333000FB900308E0F8A3E0F5838882A3A3E0F8FC
:10334000A3E0F5838882121AAA0234F9AE0AAF0B01
:103350007C007D00EE2404FAEF3400FB8E828F8324
:10336000A3A3A3E0F912086AE9F508E508C3940AE3
:103370005017EE240AFCEF3400FD7A0475F006E5E0
:1033800008A42425F9120B76E90234F9AE0AAF0B32
:10339000900303E06018900BEAE0F98E828F83A31C
:1033A000A3A3E0FAA3E0FB120D56E90234F9900B57
:1033B000E7E0701579058E828F83A3A3A3E0FAA3BB
:1033C000E0FB120D56E90234F98E828F83A3A3A38A
:1033D000E0FAA3E0FB1211A68A0C8B0D850C088580
:1033E0000D098E828F83A3A3A3A3A3A3A3E0A2E0CE
:1033F0005075E5084509606C850882850983A3A39B
:10340000A3A3E060628E828F83A3A3A3A3A3A3A33D
:10341000A3A3E0F8A3E0F9E8C4540FF8790054013D
:10342000F8E95400F9E8A2E0403D740E121AA0AC8D
:1034300082AD83E5082405FAE5093400FB8508829E
:10344000850983A3A3A3A3E0F912086AE970187998
:10345000038E828F83A3A3A3E0FAA3E0FB120D5691
:10346000E90234F90234F9EE2405FCEF3400FD855D
:103470000882850983A3A3A3A3E0F98E828F83A387
:10348000A3A3E0FAA3E0FB12090C900308E0F8A361
:10349000E0F9E8496063900308E0F8A3E0F5838869
:1034A00082A3A3E0F8A3E0F9E849604D7C0079002D
:1034B0008E828F83A3A3A3E0FAA3E0FB900308E02E
:1034C000F8A3E0F5838882A3A3E0F8A3E0F583885E
:1034D00082121AAA8023120E22E9701D900397E02F
:1034E0006401700B1208D6E9F89003977400F07924
:1034F00050120B82E9FE1208C47414121A6B7F0A70
:10350000021B7E74F3121AAC74F2121A558909EA7E
:10351000FEEBFF8C0C851882851983AC82AD837A13
:103520000E75F006E509A42420F9120B7CE97072EF
:103530007C0679FF851882851983AA82AB831207DE
:103540001AE9705E740C121AA0E0F8A3E0F9E8F52D
:1035500008E50C6005EE42088004EEF45208850888
:103560000A750B00740C121AA0E0650A7004A3E03F
:10357000650B602AE508A8087900740C121AA0E50A
:1035800008F0A3E9F0851882851983AC82AD837AAF
:103590000E75F006E509A42420F9120B76E97901ED
:1035A00080027900740E121A6B7F05021B7E74F084
:1035B000121AAC74E6121A55890B8A0C8B0DECFEAC
:1035C000EDFF740C121AA0AC82AD837A0E75F00672
:1035D000E50BA42420F9120B7CE960030237127C6E
:1035E0000679FF740C121AA0AA82AB8312071AE99B
:1035F0006003023712851882851983AC82AD837A05
:103600000C7470250BF9120B7CE9600302370E7500
:103610000A00851882851983AA82AB8312089AE56D
:103620000C450D703A7C0C7900851882851983AAA7
:1036300082AB8312071AE960030236E87C0C7D0036
:103640007900851882851983AA82AB831206BA8A0B
:10365000088B09850882850983750A010236E88589
:103660001882851983AC82AD83AA0CAB0D12089425
:103670008A0E8B0F850E08850F09E50845097036FF
:10368000EE4F6021851882851983AC82AD837A0064
:103690007B001208948A0E8B0FA80EA90F88088948
:1036A00009E84970047900806B850882850983E503
:1036B0000CF0A3E50DF0850882850983A3A3E0F84B
:1036C0007900EE687002EF69601EEE850882850958
:1036D00083A3A3F0EE4F700D8508828509837400E3
:1036E000F0A37400F0750A01E50A6022851882854E
:1036F0001983AA82AB8312089A851882851983AC34
:1037000082AD837A0C7470250BF9120B76E979017E
:1037100080027900741A121A6B7F08021B7E74F7FC
:10372000121AACEAFEEBFF7B00EBC39404504EEBA5
:10373000F87900E875F003A4C8AAF075F000A42A8F
:10374000FA75F003E9A42AF9EC28F582ED39F5833E
:10375000E06E7003A3E06F7021EBF87900E875F07C
:1037600003A4C8AAF075F000A42AFA75F003E9A42E
:103770002AF9EC28FAED39FB80070B80AC7A007B44
:10378000007F01021B7E74F7121AAC7F00EFC39416
:10379000044003023835EFF87900E875F003A4C857
:1037A000ACF075F000A42CFC75F003E9A42CF9EA48
:1037B00028F582EB39F583E0F4FCA3E0F4FDEFF8A3
:1037C0007900E875F003A4C8AEF075F000A42EFEF1
:1037D00075F003E9A42EF9EA28F582EB39F583ECBC
:1037E000F0A3EDF0EFF87900E875F003A4C8ACF0B1
:1037F00075F000A42CFC75F003E9A42CF9EA28F577
:1038000082EB39F583A3A3E0F4C0E0EFF87900E898
:1038100075F003A4C8ACF075F000A42CFC75F0039F
:10382000E9A42CF9EA28F582EB39F583A3A3D0E0CB
:10383000F00F02378D7F01021B7E74EA121AAC74FE
:10384000F4121A55EAFEEBFF8C108D117422121A35
:10385000A0E0F50EA3E0F50F7424121AA0E0F50C19
:10386000A3E0F50D7426121AA0E0F50AA3E0F50B0B
:10387000EE4F7005790A0239B0EEFAEFFB1208B884
:10388000E9F508E508C3940A40061208CAE9F508F4
:10389000E508C3940A40030239AEEEFCEFFD7A0E50
:1038A00075F006E508A42420F9120B76E9F8E51076
:1038B00045116013AC10AD117A1B75F006E508A434
:1038C0002421F9120B76E9E50E450F6013AC0EAD1D
:1038D0000F7A1B75F006E508A42422F9120B76E98D
:1038E000E50C450D6013AC0CAD0D7A1075F006E5D6
:1038F00008A42423F9120B76E9E50A450B602DACE8
:103900000AAD0B7A1075F006E508A42424F9120B11
:1039100076E9F5097428121AA0AC82AD837A047591
:10392000F006E508A42425F9120B76E97C0C7D004D
:1039300079FF851882851983AA82AB831206BA8A19
:10394000128B13851214851315851882851983AC83
:1039500082AD837A0C74702508F9120B76E9F509AB
:1039600075120E7513007812121CBFEEFCEFFDE508
:1039700008A8087900E875F00EA4C8AAF075F00050
:10398000A42AFA75F00EE9A42AF9740A28FA740335
:1039900039FB1206A27402121A6B8A128B13A81238
:1039A000A913900396E0600312091E120906A908E4
:1039B000740C121A6B7F0E021B7E74F7121AAC7411
:1039C000F2121A55E9FE851882851983AC82AD83FF
:1039D0007A0E75F006A42420F9120B7CE9700E749F
:1039E0000C121AA0E0F8A3E0F9E8F980027900745B
:1039F0000E121A6B7F01021B7E74F4121AAC74F261
:103A0000121A558909EAFEEBFFE509C3940A50042E
:103A1000EE4F70047902804B851882851983AC8241
:103A2000AD837A0E75F006E509A42420F9120B7C0B
:103A3000E9F508E508702A750A06750B00780A1280
:103A40001CBF7402121AA0AC82AD83EEFAEFFB1217
:103A500006A27402121A6B8A0A8B0B850A82850BE6
:103A600083A908740E121A6B7F04021B7E74F41271
:103A70001AACEAFEEBFF750800E508C3940A50454E
:103A8000750A06750B00780A121CBFEEFCEFFDE507
:103A900008A8087900E875F00EA4C8AAF075F0002F
:103AA000A42AFA75F00EE9A42AF9741028FA74030E
:103AB00039FB1206B47402121A6BE96004A908807B
:103AC00006050880B4790A7F04021B7E74F4121A7A
:103AD000ACEAFEEBFF750800E508C3940A50457593
:103AE0000A06750B00780A121CBFEEFCEFFDE50814
:103AF000A8087900E875F00EA4C8AAF075F000A433
:103B00002AFA75F00EE9A42AF9740A28FA7403391E
:103B1000FB1206B47402121A6BE96004A90880064D
:103B2000050880B4790A7F04021B7E74F7121AAC70
:103B300074F0121A55EAFEEBFF750800E508C3940D
:103B40000A504B851882851983AC82AD837A107533
:103B5000F006E508A42423F9120B7CE9702C7C10F4
:103B600079FF851882851983AA82AB8312071AE927
:103B70007018EEFCEFFD851882851983AA82AB834D
:103B8000120D2CE97004A9088006050880AE790A98
:103B90007410121A6B7F01021B7E74F4121AAC753A
:103BA0000800E508C3940A4003023C7CE508A80825
:103BB0007900E875F00EA4C8AAF075F000A42AFAFE
:103BC00075F00EE9A42AF9740A28FC740339FD7A09
:103BD0000E75F006E508A42420F9120B7CE97003A9
:103BE000023C777C067D0079FFE508AA087B00EAA5
:103BF00075F00EA4CAA8F075F000A428F875F00EB0
:103C0000EBA428FB740A2AFA74033BFB1206BA8A57
:103C10000A8B0BAE0AAF0B7C067D0079FFE508AA84
:103C2000087B00EA75F00EA4CAA8F075F000A4287D
:103C3000F875F00EEBA428FB74102AFA74033BFB12
:103C40001206BA8A0A8B0BAC0AAD0BE508A80879F4
:103C500000E875F00EA4C8AAF075F000A42AFA7561
:103C6000F00EE9A42AF9741628F582740339F58355
:103C70007400F0A37400F00508023BA2900396E0E4
:103C8000600312091E1209067F04021B7E74F712DC
:103C90001AAC7E00EEC3940A50327C0679FFEEFA2D
:103CA0007B00EA75F00EA4CAA8F075F000A428F80D
:103CB00075F00EEBA428FB740A2AFA74033BFB127E
:103CC000071AE96004EEF980050E80C8790A7F01C1
:103CD000021B7E74F7121AAC7E007F00EFC3940AB9
:103CE000502F7C0679FFEFFA7B00EA75F00EA4CA2C
:103CF000A8F075F000A428F875F00EEBA428FB746A
:103D00000A2AFA74033BFB12071AE970010E0F80AE
:103D1000CBEEF97F01021B7E74F7121AAC7E007F96
:103D200000EFC3940A500DEE700AEFF91208DCE9B7
:103D3000FE0F80EDEEF97F01021B7E74EE121AACCD
:103D400074CB121A55E9FE7427121AA0AC82AD8307
:103D50007A0E75F006EEA42420F9120B7CE96003BC
:103D6000023E7C7C0679FF7427121AA0AA82AB83DC
:103D700012071AE96003023E7C7C0E7D0079FF7415
:103D800027121AA0AA82AB831206BA8A0A8B0B8565
:103D90000A0E850B0F7C1B7D0079FF740C121AA094
:103DA000AA82AB831206BA8A0A8B0B850A0C850B92
:103DB0000D7C0C7D0079FF851882851983AA82AB62
:103DC000831206BA8A108B1185100A85110B74278D
:103DD000121AA0AC82AD837A0E75F006EEA42420F0
:103DE000F9120B76E9F508740C121AA0AC82AD83B7
:103DF0007A1B75F006EEA42421F9120B76E942082D
:103E0000740C121AA0AC82AD837A1B75F006EEA476
:103E10002422F9120B76E94208740C121AA0AC8223
:103E2000AD837A1075F006EEA42423F9120B76E91F
:103E30004208740C121AA0AC82AD837A1075F00699
:103E4000EEA42424F9120B76E94208740C121AA08D
:103E5000AC82AD837A0475F006EEA42425F9120B2A
:103E600076E94208851882851983AC82AD837A0C85
:103E700074702EF9120B76E942088003750800A9C8
:103E8000087435121A6B7F0A021B7E74F7121AAC83
:103E9000E9FE9002EEF01208C47F01021B7E74F26C
:103EA000121AAC890A8A088B09E5085400F8E5095A
:103EB0005480F9E84960339002EEE0F91206DE8A98
:103EC0000C8B0DA80CA90DE8FEE9FFE849600FEE88
:103ED000FAEFFB1208EEEEFAEFFB1206CCE9E5086A
:103EE0006400FAE5096480FB8021E508A2E0501730
:103EF000900398E0FAA3E0FB120924E5086401FAB4
:103F0000E5096400FB80047A007B007F06021B7ECB
:103F100074F7121AACEAFEEBFF8E828F83E0245016
:103F2000601014601624E17019EEFAEFFB1208829B
:103F30008010EEFAEFFB1208F48007EEFAEFFB12A6
:103F400008FA7F01021B7E74F7121AACEAFEEBFF3F
:103F50008E828F83A3A3A3A3E0641E701179008EC9
:103F6000828F83A3A3E0FAA3E0FB120870E97F012C
:103F7000021B7E74F6121AACEAFEEBFF8E828F8370
:103F8000A3A3A3A3E0703A8E088F09850882850950
:103F900083A3A3A3A3A3A3A3121CD6850882850988
:103FA00083A3A3A3A3A3E0FCA3E0FD850882850966
:103FB00083A3A3E0FAA3E0FB1208767402121A6B43
:103FC000E97F02021B7E74F7121AACEAFEEBFF9047
:103FD00002EEE0F98E828F83A3E0FAA3E0FB120FDA
:103FE000AEE97F01021B7EC082C08374FF121A55A6
:103FF0001208D0E9C39402400B8518828519837496
:1040000002F08009851882851983740AF085188268
:10401000851983AC82AD837A017905120E3AE97471
:1040200001121A6BD083D08202013574F2121AACDD
:1040300074E8121A55EAFEEBFF890A8C088D097C98
:10404000187D007900851882851983AA82AB8312B6
:1040500006BA8A0C8B0DAC0CAD0D851882851983C0
:10406000EEF0A3EFF09002F0E0C0E07402121AA0AC
:10407000D0E0F09002F1E0C0E07403121AA0D0E0AA
:10408000F0900BECE0C0E07417121AA0D0E0F074CE
:1040900015121AA0E054FEF8A3E054FFF9900BEBC0
:1040A000E0A2E0E433FA7B00E84AF8E94BF9741542
:1040B000121AA0E8F0A3E9F0900BEBE0A2E15004A3
:1040C000D2F08002C2F07415121AA0E054FDFAA3D7
:1040D000E054FFFBA2F0E433F87900C333F8E9338E
:1040E000F9EA48F8EB49F97415121AA0E8F0A3E9C7
:1040F000F0900BEBE0A2E35004D2F08002C2F07427
:1041000015121AA0E054F7FAA3E054FFFBA2F0E462
:1041100033F50C750D007403780C121A42EA450C45
:10412000F8EB450DF97415121AA0E8F0A3E9F09028
:104130000BEBE0A2E45004D2F08002C2F07415123E
:104140001AA0E054EFFAA3E054FFFBA2F0E433F529
:104150000C750D007404780C121A42EA450CF8EB49
:10416000450DF97415121AA0E8F0A3E9F0900BEBD5
:10417000E0A2E55004D2F08002C2F07415121AA039
:10418000E054DFFAA3E054FFFBA2F0E433F50C7532
:104190000D007405780C121A42EA450CF8EB450D37
:1041A000F97415121AA0E8F0A3E9F0900BEBE0A265
:1041B000E25004D2F08002C2F07415121AA0E0544A
:1041C000FBFAA3E054FFFBA2F0E433F50C750D00FD
:1041D0007402780C121A42EA450CF8EB450DF9749A
:1041E00015121AA0E8F0A3E9F09002F1E0602A7538
:1041F0000C10750D00780C121CBF7CF27D02740649
:10420000121AA0AA82AB831206A27402121A6B8A37
:104210000C8B0D850C82850D83900302E06012E506
:104220000A600E7415121AA0E04402F0A3E04400E4
:10423000F0900302E060067801790080047800794C
:10424000007414121AA0E048F09002EFE0600678C3
:104250000479008004780079007414121AA0E048F0
:10426000F0AC08AD09851882851983AA82AB831248
:104270000D50E97418121A6B7F06021B7E74F71238
:104280001AACEAFEEBFF750800900302E0600678C6
:10429000017900800478007900E842089002EFE09C
:1042A000600678047900800478007900E84208A963
:1042B00008EEFAEFFB120E0AE97F01021B7E74EE94
:1042C000121AAC74E5121A558A0C8B0DE9FF8C0892
:1042D0008D09742D121AA0E0F50A74086509700A98
:1042E00075F006EFA42422FE800875F006EFA424E2
:1042F00021FE7C1B7D007900851882851983AA82A6
:10430000AB831206BA8A108B1185100E85110F85AA
:104310001882851983AC82AD837A1BEEF9120B7C6F
:10432000E9703C741A121AA0E0C394074031741A61
:10433000121AA0E0C394115026E50AF50B780B126F
:104340001CC37401121AA0AC82AD83E508A2E0E49C
:1043500033F9AA0CAB0D120D627401121A6BE974D9
:104360001B121A6B7F0A021B7E74F7121AAC121012
:1043700020E97E00EEC3940A50557C0679FFEEFAE0
:104380007B00EA75F00EA4CAA8F075F000A428F826
:1043900075F00EEBA428FB740A2AFA74033BFB1297
:1043A000071AE97027EEF87900E875F00EA4C8AA9C
:1043B000F075F000A42AFA75F00EE9A42AF9740A3F
:1043C00028FA740339FB7900121026E90E80A57FC4
:1043D00001021B7E74F4121AAC74FB121A558A087F
:1043E0008B097403121AA085820A85830B780A123E
:1043F0001CBF750A02750B00780A121CBF750AA251
:10440000750B83780A121CBF7CFF7DFF7A017B004D
:10441000120E7C7406121A6B8A0A8B0BAE0AAF0B53
:10442000EE4F70030244DEE4F50AF50B780A121C25
:10443000BF7404121AA085820A85830B780A121CA5
:10444000BF7404121AA085820A85830B780A121C95
:10445000BF7409121AA0121CD67902EEFCEFFDAA55
:1044600008AB09120F9C7408121A6BE97043851887
:1044700082851983E0FA7B007401121AA0E0F879B2
:1044800000E4C8F9EA28F50AEB39F50BE50A450B13
:10449000601F780A121CBF8E828F83A3A3A3A3E0A0
:1044A000FCA3E0FDAA08AB091208767402121A6B8D
:1044B000E9E4F50AF50B780A121CBF7405121AA07C
:1044C000121CD67CFF7DFFEEFAEFFB120E887404FF
:1044D000121A6B8A0A8B0BAE0AAF0B0244207405CA
:1044E000121A6B7F04021B7EC082C083E9900EF417
:1044F000F002476C74F7121AACE990056DF07CA5D8
:104500007D057AFF7BFF120FB490056E74FFF0A358
:10451000F0A3E4F0A3F07905120F3C90056DE0F9EB
:10452000120E647AD27B0F12119402547A74F41230
:104530001AAC8A088B09EB5480603090056DE0F965
:104540001206DE8A0A8B0BAE0AAF0BEE4F60138E9B
:10455000828F83E064B07003120F54EEFAEFFB1207
:1045600006CCAA08E5096480FB80047A007B00027F
:10457000473B74F2121AAC74FC121A55EAFEEBFFB8
:104580007412121AA0125961EE4F7003024615748C
:1045900002121AA0EEF0A3EF124976ECF0A3ED128E
:1045A0004976AA82AB83120E5EE9F50A706AE508C5
:1045B000450960648E828F83125947EE4F60567AA8
:1045C000067B001207388A0C8B0DA80CA90DE84950
:1045D0007005750A13804188828983E4124622EEB1
:1045E000F0A3EF125972E508F0A3E509F090057306
:1045F0001246A99005737005125424801B125412A0
:104600008003EAFCEBFD8C828D831246A970F38C4B
:10461000828D8380E3750A02A90A7404121A6B0260
:104620005B61F0A3125918A32274F2121AAC890A22
:10463000E975F017A4FEAFF0900572E4F0900570F4
:104640001246A9600A12073E900570E4F0A3F0EE4E
:10465000FAEFFB1207388A088B09EA4509602FEE4A
:10466000FCEFFD79001206BA900570E508F0A3E5AD
:1046700009F07B008008124693E4F0A3F00BEBC333
:10468000950A40F2E50A900572F0790080027913EC
:10469000025B61EB75F017A4F8A9F0900570E028B3
:1046A000FAA3E0398A82F583221250B6EA4B2274CB
:1046B000F4121AAC740C121AA012593CFEE9FF75E0
:1046C0000800750900800CE5082401F508E50934A7
:1046D00000F509C3E5089CE5099D503285080A8567
:1046E000090B7403780A121A42EA250AF8EB350B13
:1046F000F988828983A3A3A3A3A3A31254F9EE6527
:104700000A7003EF650B70BFE8FAE9FB80047A00DA
:104710007B00802774F4121AAC7900EAA2E0501BE7
:1047200075089E7509827808121CBF7C047D007A8A
:10473000F67B0E120F367402121A6B7F04021B7E78
:10474000C082C083900573124773601C888289837E
:10475000A3A3E06A7003A3E06B8882898370E8A357
:10476000A3A3A31250B280047A007B00D083D0822E
:10477000020135125C47E8492274EE121AAC74FC4F
:10478000121A55EAFEEBFF851882851983E4F0A31F
:10479000F0EE2402125404EE240512591FEE2404F4
:1047A000F50EEF124D2BE024FE603924FC60462408
:1047B000FE605224FE605E24FE700302488C24FEDC
:1047C00070030248F024FE70030248FF24FE7003C9
:1047D00002490E24FC700302491D24FE70030249A5
:1047E0002C02496990058C7417F0A3E412497E12DB
:1047F0000BDC024969851882851983AC82AD83126E
:104800000F5A024939851882851983AC82AD83120B
:104810000F60024939850C08850D097402121AA02F
:10482000AC82AD838508828509831250B2120E8254
:104830008A0C8B0DAC0CAD0DEC4D603BE4F50CF52A
:104840000D780C121CBF750C8C750D05780C121CA4
:10485000BF750C8D750D05780C121CBF7408121AEB
:10486000A0121CD6125DC3121A6BE9F50C700B1264
:1048700050A8120BF4800F750C01850882850983FE
:1048800012496C125424850C0802493C7402121A15
:10489000A0AC82AD83850C82850D83124E7D603C79
:1048A000850C82850D83A3A3121CD675108C7511FF
:1048B000057810121CBF75108D7511057810121C2B
:1048C000BF7408121AA0121CD6125DC3121A6BE92B
:1048D000F509700B1250A8120BFA800F75090185AB
:1048E0000C82850D8312496C125424850908804C72
:1048F000851882851983AC82AD83120F66803A8554
:104900001882851983AC82AD83120F6C802B8518B9
:1049100082851983AC82AD83120F72801C85188248
:10492000851983AC82AD83120F78800D851882853E
:104930001983AC82AD83120F7EE9F508E508602982
:104940008E828F83A3E06414601F850E82850F839F
:10495000E090058C124976125C4390058D12542428
:10496000E508A312497E120BD6025313125C478549
:10497000188285198322F085188285198322F07C9C
:104980008C7D05850A82850B831250B62274EE1247
:104990001AAC74FC121A558A0A8B0B8C0E8D0FEA16
:1049A0002405F508EB3400F5097C157D0079007AC3
:1049B0008C7B051206BAE5082402F50CE5091259AC
:1049C00022851882851983858210858311781012BB
:1049D0001CBF850882850983A3A3A3A3124E74126A
:1049E0001CBFE5082405F510E5093400F511781021
:1049F000121CBF850C82850D831251C9120E7C7466
:104A000006121A6B8A108B11AE10AF11E50A240240
:104A1000F50AE50B125407EE4F7003024B4B80175B
:104A20007402121AA01250B288828983EAF0A3EBB2
:104A3000F090058CE004F090058CE0C394054003F1
:104A4000024B4BE4F510F5117810121CBF75107570
:104A50007511057810121CBF751076751105781048
:104A6000121CBF7406121AA0121CD67910EEFCEFAD
:104A7000FD125DC5121A6BE9705E85088285098397
:104A8000A3A3A3A3A3A3A3E0F8900575E0687048CF
:104A9000124E74121CBF7C767D05E5082408FAE5E9
:104AA000093400FB1206B47402121A6BE960298EF5
:104AB000828F83A3A3A3A31250B290058CE0F510BC
:104AC00074027810121A42748D2510F5827405351F
:104AD00011F583EAF0A3EBF07402121AA08582109C
:104AE0008583117810121CBF7402121AA0121CD6F2
:104AF000850C82850D831250D8121A6B8A108B1187
:104B0000AE10AF1190058CE0F510751100740278AD
:104B100010121A42748C2510F874053511F9888228
:104B20008983A31246A97003024A17E824030808E0
:104B300008E93400F9EE4F6003024A208882898335
:104B400074FFF0A3F090058CE004F090058CE06019
:104B50000A1250A8120BE87900800B85088285099B
:104B60008312541B790A02531374EA121AAC74FEAE
:104B7000121A558C128D13EA2405F50CEB125DAD5B
:104B800012594B750800750900EA2402F510EB3440
:104B900000F51185188285198385820A85830B7833
:104BA0000A121CBF850C82850D83A3A3A3A3124DFB
:104BB00041121CBFE50C2405F50AE50D12540778D7
:104BC0000A121CBF850C82850D83124D45120E7C86
:104BD0007406121A6B8A0A8B0BEA450B7003024C9F
:104BE000E6EA2404F50EEB124D2B12594B8A828B08
:104BF00083A3A3A3E0F98510828511831250BC60C2
:104C000003024CE6E4F514F5157814121CBF751474
:104C1000757515057814121CBF7514767515057811
:104C200014121CBF7406121AA0121CD67913AC0AF7
:104C3000AD0B851082851183125DCB121A6BE9F5DD
:104C4000096003024CE6900575E0F8E5087009E09C
:104C5000240290058DF0801490058DE0FCE824027C
:104C6000FAE43400FBEA6C7001EB707E850882AADE
:104C700082124E6B9414124E63506B850E82850F18
:104C800083E0C0E0748E2A124D22D0E0F005088542
:104C90000E82850F83A3E0C0E085080A748E250A82
:104CA000124D22D0E0F00508900575124D41121CFE
:104CB000BF7C767D0585080A748E250A124D351253
:104CC0001A6B900575E02508F50874FF6E70037483
:104CD000FF6F6012EE24010EEF3400FFE508C3946D
:104CE000145003024B93E50860131250C6851082DE
:104CF0008511831250B2120BEE79008014E5097011
:104D00000375090A851282851383EEF0A3EFF0A9DB
:104D1000097402121A6B7F0E021B7E85080C748EBA
:104D2000250CF58274053400F583223400F50F85D7
:104D30000E82F58322FA74053400FB1206A2740277
:104D40002212598122A3A3124D4B22125412FDEEBE
:104D5000FAEFFB2274EE121AAC74FE121A558C0E86
:104D60008D0FEA2405F50CEB125922750B00900506
:104D70008CE4F0F50AEA2402F508EB3400F509802A
:104D80004490058CE0FA900575E0F8124E6B94178C
:104D9000124E63400D90058CE0F87416C398900590
:104DA00075F0124E74121CBF7C767D05748D2AFA44
:104DB0007405124D38121A6B900575E0F890058C49
:104DC000E028F0050AE50C2416F582E50D124D26C3
:104DD000E0F8E50AC398507490058CE0C39416502F
:104DE0006BE50AC333F8E433F9E50C28FEE50D3929
:104DF000FF851882851983AC82AD838E828F8312E2
:104E00004E7D7008750B011254178050E4F510F5B3
:104E1000117810121CBF7510757511057810121CD1
:104E2000BF7510767511057810121CBF7406121A22
:104E3000A0121CD67916850882850983125DCB12D3
:104E40001A6BE9F50B7003024D8180BB7C8C7D05EC
:104E50008508828509831250B2120C00A90B7402D6
:104E6000025315E99400C365D03322EA28F8E434EC
:104E700000F9E822E0F51075110078102212530AAB
:104E80008A108B11AC10AD11EC4D2274EA121AACE1
:104E900074FC121A558A0C8B0D8C128D13EA2405A2
:104EA000F50AEB125407750800750900E50A24029B
:104EB000F510E50B3400F5117402121AA085820E6C
:104EC00085830F780E121CBF850A82850B83A3A3EE
:104ED000A3A3125927121CBFE50A2405F50EE50B02
:104EE0003400F50F780E121CBF85108285118312D5
:104EF000540D1250AC120E7C7406121A6B8A0E8B73
:104F00000FAE0EAF0FE50C2402F50EE50D3400F5E3
:104F10000F80388882898374FFF00508124D1B7456
:104F2000FFF00508900575E0F50C750D00780C1282
:104F30001CBF7C767D0585080C748E250C124D35C2
:104F4000121A6B900575E02508F508EE4F60278E64
:104F5000828F83A3A3A3E0F9850E82850F8312506D
:104F6000BCEE240412591FE96027850C82850D834D
:104F700012509E125424E50870030250841250C649
:104F8000850E82850F831250B2120C0679000250F2
:104F900099E4F514F5157814121CBF751475751580
:104FA000057814121CBF7514767515057814121C3B
:104FB000BF7408121AA0121CD67911EEFCEFFD8501
:104FC0000E82850F83125DCB121A6BE9F509709A78
:104FD000850882AA82EA9005757009E0240490058C
:104FE0008DF08025E0F890058DE0F514E82404FCB0
:104FF000E43400FDEC65147001ED7081124E6B9489
:1050000012124E634003024F7D850C82850D83E0B2
:10501000C0E0748E2A124D22D0E0F00508850C8283
:10502000850D83A3E0C0E0124D1BD0E01250E18556
:10503000820C85830D780C121CBF7404121AA01206
:105040001CD68510828511831250D8121A6B8A0CD7
:105050008B0DAE0CAF0D85080C748E250CF8740505
:105060003400F9EE4F7003024F13851882851983BF
:10507000E0888289831250E1A3E0C0E0124D1BD08A
:10508000E0024F21E509700375090A850A82850B44
:105090008312509E125424A9097404024D13125C09
:1050A00047851282851383227C8C7D05850A828543
:1050B0000B831250B622E0FAA3E0FB221250B61284
:1050C0000E6AE9F5092290058DE0F5F0E508849077
:1050D000058CF07C8C7D0522124D4B120E887404D9
:1050E00022F005088518828519832274EC121AAC07
:1050F00074FE121A558A088B098C0E8D0FEA24054E
:10510000FEEB3400FF1252F4EE241812591FEA4548
:105110000B70030251971252DD50291251BC8A10B4
:105120008B11EA4511606B7912AC0AAD0B850882D0
:105130008509831250B2851082851183121AAAE95B
:10514000F50A7058E4F50AF50B780A121CBF8E8236
:105150008F83A3A3E0F50A780A121CBFEE24031282
:105160005404780A121CBF8E828F831251C9120F09
:10517000A27406121A6BE9F50A7021850C82850D5E
:1051800083E0701F8508828509831250B2120C0CCF
:105190008011750A0E8009750A018004E50A600312
:1051A000125417850C82850D83E06004790080021B
:1051B000A90A7402121A6B7F0C021B7E8518828565
:1051C00019831250B6120F9022125412FD850882D4
:1051D0008509831250B62274EE121AAC74FE121AAC
:1051E000558A088B098C0C8D0DEA2405FEEB3400E2
:1051F000FF750E001252F4EA450B70030252BB1207
:1052000052DD502C1251BC8A0E8B0FEA450F604ABA
:105210007912AC0AAD0B8508828509831250B285DC
:105220000E82850F83121AAAE9F50E60030252BEA0
:105230008508828509831254F9AA0AFB1252CF709D
:10524000147AFF7BFF1252CF606C88828983E50A53
:10525000F0A3E50BF0750A008007750E0E805F0560
:105260000A900572E0FAE50AC39A504AE50A75F019
:1052700017A4FAABF088828983A3A3E02AFAA3E0FB
:105280003BFB8A828B8312540DEC4D70D2750A174A
:10529000750B00780A121CBFEEFCEFFD1206A2741B
:1052A00002121A6BEEFCEFFD85088285098312500D
:1052B000B2120C128014750E098003750E01125C77
:1052C0003F850C82850D83125424A90E024E5E1276
:1052D0000F848A108B11A810A911E84922E508242F
:1052E00002F508E5093400F5098A828B83A3A3A39C
:1052F000E0A2E522851882851983AC82AD838E8277
:105300008F8312530A8A0A8B0B22E0FAA3E0FB1266
:105310000E82227404121A6B7F0A021B7E74EC1236
:105320001AAC8C108D11EA2405F50CEB125922757C
:105330000F00EA2402F50AEB125407850A82F5836E
:105340001250B2125E5170030253F9750E00807153
:10535000850C82850D83E06401704F8E828F83A35C
:10536000A3121CD68E828F83A3A3A3A3E0F512758C
:1053700013007812121CBFEE2405F512EF3400F56D
:10538000137812121CBF1250AC120FA27406121A1C
:105390006BE9F50F6014850C82850D83E4F0125CD7
:1053A0003F8510828511831254247C177D0079007B
:1053B000EEFAEFFB1206BA8E828F83E4F0A3F005BB
:1053C0000E900572E0F8E50EC398501EE50E75F0DC
:1053D00017A4F8A9F0850882850983A3A3125DB7F5
:1053E00012540DEC4D6003025350850882850983E9
:1053F00074FFF0A3F0E50F70061250AC120C18A960
:105400000F0251B7F50AEF3400F50B22A312541224
:10541000FD22E0FCA3E0228E828F83125C47850E82
:1054200082850F83E8F0A3E9F022C082C083900553
:105430006EE06A7003A3E06B70067A6E7B058004F1
:105440007A007B0002476C74F7121AAC7F00EF758C
:10545000F003A4F8A9F0EC28F8ED39F988828983E3
:10546000E06A7003A3E06B7006E8FAE9FB800B0FBB
:10547000EFC3940240D87A007B007F01021B7E7448
:10548000F6121AAC125A3070067A007B008007A31D
:10549000A3A3A31250B2025AF174F2121AACE9FE9D
:1054A000740E121AA01254F97410121AA012596133
:1054B0008C828D83E06402703BA3125C43888289F6
:1054C00083E0F50CA3E0F9A80C740268700374295A
:1054D000697021750C02750D00780C121CBF7808DC
:1054E000121CBF780A121CBFEEF9120FC674061206
:1054F0001A6B80027901025B61E0F50AA3E0F50B0B
:105500002274E8121AAC74FB121A55E985188285C8
:105510001983F08A168B178C0E8D0F741F121AA028
:105520001259617421121AA01254F97423121AA08C
:1055300012594B7510008C828D83A3A3A3E0A2E4C3
:10554000502A741D121AA01251C28A828B83E582DE
:105550004583700302560D790AAC0EAD0FAA16AB47
:1055600017121AAAE9F5106003025610850E8285FB
:105570000F83E0640260030258C6A3125C438508EF
:1055800082850983A3858212858313E50E2406F59F
:105590000CE50F12592288828983E0FAA3E0F9EA28
:1055A0002400F514E439F5157814121D49010000A2
:1055B000280128D55507000228AC5603281C5600A0
:1055C00029D6570129FE570229A5570329D6570482
:1055D000296758C658EE4F703E850C82850D8312A0
:1055E000593CFAE9FB8A828B83E0850A82850B832A
:1055F000125978121CBF8A828B83A3125412FDAAFF
:1056000008AB091206A27402121A6B800375100E01
:10561000A9107405025DA575100B80F4EE4F70F7AC
:10562000850A82850B837401F012595185088285A1
:105630000983F07C007D00850E82850F83A3A3A3E0
:10564000A3E02401FAA3E03400FB120E82EA4B60CF
:10565000418A828B83E02402F8850A82850B83E0ED
:1056600028F0EA2404F8EB3400F988828983E08585
:10567000128285138312598A125978121CBF8A82AA
:105680008B8312540CE5082403FAE5093400FB026D
:105690005603850A82850B83E02404F07C047D0098
:1056A0007900AA12AB131206BA025610EE4F60032D
:1056B000025617125951FEA3E0FF850A82850B831B
:1056C0007404F0EE850882850983F0EF85128285E7
:1056D0001383F07403121AA0AC82AD83EEFAEFFBD1
:1056E000125A1E70030257828A828B83A3A3125917
:1056F000477401121AA085820E85830F780E121C42
:10570000BF7405121AA0121CD67CFF7DFF120E88F2
:105710007404121A6B8B0FEA450F7033850C828567
:105720000D83125927121CBF850C82850D83A3128D
:105730001CD67C027D007ACC7B83120CB4740412DC
:105740001A6BE9700A7401121AA074FFF0A3F08EAC
:10575000828F83E064027034750C02750D00780C42
:10576000121CBF8E828F8312540CE5082404FAE5C4
:1057700009124D38121A6B850A82850B83E02402C8
:1057800080097401121AA0EEF0A3EFF07401121A4E
:10579000A0125938F07401121AA0A3125930A3A311
:1057A000A3F0025610EE4F6003025617850C828557
:1057B0000D8312540DAA16AB17120FBA850A8285F3
:1057C0000B837402F0EA850882850983F0851282D2
:1057D000851383EB80CBEE4F6003025617125951AD
:1057E000F8A3E0F9850A82850B837402F0E8850846
:1057F00082850983F0E985128285138380A3850C55
:1058000082850D831250B212069CEAFC8C82A8821B
:10581000C39EE49F404BE86E7001EF70047C0080F3
:105820001F851882851983E0FAEE2AFAEF3400FB0F
:10583000C3EA98EB94005003E08004EECCC39CFCD8
:10584000EC850A82850B83F08C0A750B00780A12AE
:105850001CBF850C82850D83E02EFCA3E03F025522
:10586000FE751007025610EE4F6003025617850CA6
:1058700082850D83125C43850A82850B837407F051
:1058800088828983125930125918E0851282851353
:1058900083F0E82402FAE93400FB8A828B831259F0
:1058A00030125969125938A3125972125941F0E84D
:1058B0002405F8E93400F988828983125941A3123A
:1058C000598AA302579E741D121AA0125A297003F6
:1058D00002560D125C43880C890DE8450D700302D9
:1058E000560D8E108F117810121CBF780A121CBF33
:1058F0007808121CBF7406121AA0E0F9AC0EAD0FA6
:10590000AA16AB17850C82850D83121AAA7406128B
:105910001A6BE9F510025610F088828983A322F5EC
:105920000CEF3400F50D22E0F50E750F00780E2215
:10593000E08508828509832212599122125C47E88A
:1059400022125991A3A322A3A3A3A3E0FEA3E0FFE5
:1059500022850C82850D83E0F8A3E0F5838882E040
:1059600022E0F508A3E0F50922A3A3F08A828B8345
:10597000A322124624A3A322F08A828B8312598188
:1059800022E0F50A750B00780A2212591812599173
:1059900022E0850882850983A3A32274EE121AAC43
:1059A00074FE121A558A0A8B0BECFAEDFB74141272
:1059B0001AA0E0F510A3E0F5117416121AA0E0FE8B
:1059C0007418121AA0E0F50EA3E0F50F8518828571
:1059D0001983AC82AD83125A1E603E8518828519E8
:1059E00083125A29602FA3A3125961E50845096063
:1059F00024780E121CBF7810121CBFEEF9AC0CAD4F
:105A00000DAA0AAB0B850882850983121AAA7404B1
:105A1000121A6B8006790E80027901024E5E120E18
:105A2000828A0C8B0DEA450D221250B6125A302292
:105A3000120F4E8A828B83E58245832274F6121AF6
:105A4000AC74FE121A55740C121AA012593C851827
:105A500082851983F07401121AA0E9F0E4F508F5C3
:105A6000097808121CBF7508027808121CBF74045C
:105A7000121AA08582088583097808121CBF120FAC
:105A8000A27406121A6B7402121A6B806474F712F5
:105A90001AACEAFEEBFF89087CA57D05120FBAEA75
:105AA0005402600BA908EEFAEFFB120E7680027921
:105AB0000102547A74F6121AAC74FF6A700374FF10
:105AC0006B701C7B00EB75F003A4F8A9F0EC28F8D0
:105AD000ED39F9125AF60BEBC39402501480E6121A
:105AE0000F8A8A088B09A808A909E8496003125A95
:105AF000F67F02021B7E8882898374FF124622E4AD
:105B0000F02274F6121AAC120F8A8A828B83E58215
:105B100045836006A3A3E0FA80027A007B0080D16F
:105B200074F2121AAC8A088B09ECFEEDFF740E12A7
