:020000040000FA
:0600000002011D0222575F
:03002B00021E783A
:03003300021E5951
:030053000222CABC
:03006B00021E046E
:03007B00021E2A38
:1000830002210BE5C754F84401F5C77901220000AA
:100093000080FB120086B90003020107E47921788E
:1000A30008B800028004F709D8FCE479297802B87B
:1000B30000028004F709D8FCE4900281786879088B
:1000C3008002F0A3D8FCD9FA781A90014D7A01BACC
:1000D30000028007E493A3F608DAF99009E8AA82FC
:1000E300AB8390014E785179068015E493A3AC82DB
:1000F300AD838A828B83F0A3AA82AB838C828D83A8
:10010300D8E9D9E775824F7583DC740312012F7523
:100113008291758300740012012F75D00075813FA1
:10012300751881751902759F00020096C09FF59F8F
:10013300E473D09F22D083D082C09FE493C0E07445
:100143000193C0E0740293F59F2201FFFF0A094265
:10015300656453656E736F72051240066009020A87
:10016300000201054E6F637475726E65204265640B
:100173002053656E736F7200D007E803B80BE8076E
:10018300000012416363656C2E2044617461000AB0
:10019300416363656C2E20436F6E662E000A4163D4
:1001A300632E20506572696F640002AA8301000008
:1001B300788302A6830100001F0A10158101000045
:1001C300B30202A283030000B60202A4830100006B
:1001D300200A02A6830100002C0A102581030000D7
:1001E300BC0202A4830100002D0A02A683010000C1
:1001F3003A0A103581030000BD0202A48301000006
:100203003B0A124261726F6D6574657220446174BA
:100213006100024261726F6D657465722043616CA7
:10022300692E000A4261726F6D6574657220436FB7
:100233006E662E0002AA830100007B8302A683015F
:1002430000009F0A104582010000BE0202A2830340
:100253000000C20202A483010000A00A02A68301D7
:100263000000C00A108581030000DE0202A483019E
:100273000000C10A02A683010000AF0A10758101C4
:100283000000C80202A283030000D80202A4830173
:100293000000B00A02AA830100008D8310B581011A
:1002A3000000DF02020202020202020202010D004A
:1002B3000000100102AA83010000908302A68301BB
:1002C3000000410B02C283010000E60202A6830183
:1002D3000000420B02C083010000B08202A683012A
:1002E3000000430B02BE83010000BF8202A683010C
:1002F3000000450B02BC83010000818002A683013C
:100303000000460B02BA83010000B58202A68301F6
:100313000000440B02B883010000BA8202A68301E5
:100323000000470B02B683010000938002A68301FD
:100333000000480B02B483010000758202A683010A
:100343000000490B02B2830100004A0B01E80305D8
:100353003F10124779726F2E2044617461000A477F
:1003630079726F2E20436F6E662E0002AA830100FE
:1003730000878302A683010000EF0B10F5810100C3
:10038300009A0302A283030000A00302A4830100D6
:1003930000F00B02A683010000FB0B10D5810300C4
:1003A30000A60302A483010000FC0B03800000806D
:1003B300700061801248756D69642E204461746118
:1003C300000A48756D69642E20436F6E662E000225
:1003D300AA83010000848302A683010000510C104C
:1003E300F5800100002D0402A28303000031040202
:1003F300A483010000520C02A6830100005E0C10CE
:10040300E580030000370402A4830100005F0C129F
:1004130049522054656D702E2044617461000A496D
:10042300522054656D702E20436F6E662E0002AA13
:1004330083010000818302A683010000AC0C10B588
:1004430080010000380402A2830300003C0402A4DC
:1004530083010000AD0C02A683010000BB0C10A5B4
:1004630080030000420402A483010000BC0C124D6F
:1004730061672E2044617461000A4D61672E204339
:100483006F6E662E000A4D61672E20506572696F8C
:10049300640002AA83010000938302A68301000083
:1004A3000B0D105581010000430402A283030000D9
:1004B300490402A4830100000C0D02A6830100007D
:1004C300160D1025820300004F0402A483010000CF
:1004D300170D02A683010000220D103582030000D0
:1004E300500402A483010000230DFF0001307503B3
:1004F30002010600000000000000000000000000F0
:10050300000000000000000000000000000000FFE9
:10051300FF0600800CE803104B6579205072657369
:10052300732053746174650002AA830100007E8303
:1005330002A683010000B40D02C883000000FE047C
:1005430002A283030000FF0402A483010000B50D8F
:1005530002546573742044617461000A54657374B2
:1005630020436F6E6669670002AA830100008A83D5
:1005730002A683010000ED0D10D5800300000505E0
:1005830002A483010000EE0D02A683010000F80D12
:1005930010C5810300000D0502A483010000F90DBD
:1005A300FF0000B4000028002800283075A000A038
:1005B30000A000A00000080008E001F000100010F7
:1005C30000100010001000100050005000500010E8
:1005D300001000D0070000000000000F0030750776
:1005E300001000010081FF0000FFD60DF40DDC0DAB
:1005F300FF02020A0A025000A0000000E80302AA58
:1006030083010000968302A6830100008E0E02A0E0
:10061300830100003F0502A6830100008F0E029CA8
:1006230083010000550502A683010000900E029E7F
:1006330083030000570502A683010000910E02A860
:1006430083030000580502A683010000920E02B046
:1006530083010000930EFF0100FF2002AA83010023
:1006630000998302A683010000F70E02C6830000EF
:1006730000000002A283030000A505B213B213B267
:1006830013B213B213B213B213B213B213B213B23F
:1006930013B213B213401658163A16120138A0E0DB
:1006A30002120138B5E0021201380DE102120138DD
:1006B30074E102120138BCE10212013832E2021283
:1006C300013861E2021201386FE202120138D3E20B
:1006D3000212013811E3021201382CE3021201382D
:1006E300C4E3021201386BE402120138ECE4021293
:1006F300013823E502120138ACE50212013801E6A4
:10070300021201385EE60212013870E60212013865
:1007130096E6021201389FE602120138F8E7021248
:100723000138B9CF0312013898D003120138ABB4A2
:1007330003120138F0B40312013834B5031201383F
:10074300C5B60312013844D4031201385FD403122F
:1007530001386FD403120138C6D40312013825D7E8
:100763000312013800800312013817800312013885
:100773001181031201385D81031201387D81031257
:100783000138CE81031201383982031201387D8288
:1007930003120138DB820312013883850312013807
:1007A3000C860312013877CE03120138A7CE031249
:1007B3000138D7CE03120138F7CE0312013851CFD7
:1007C300031201385E9B02120138A89D0212013800
:1007D300D4A10212013806A20212013831A2021278
:1007E300013837A302120138D6A302120138B4A488
:1007F30002120138EBA40212013822A502120138B9
:1008030059A50212013890A502120138C7A5021298
:100813000138FEA50212013835A6021201380CA7D1
:100823000212013810D5031201383BD303120138E9
:100833008EBF03120138D6BF0312013859C0031209
:10084300013836C1031201381D860312013842866E
:10085300031201387D86031201383CDA0312013892
:100863005C2900120138CF2B001201388F2D0012A2
:1008730001383A2E00120138DE2E00120138772F8C
:1008830000120138A62F0012013807350012013873
:10089300B235001201382237001201388A370012AC
:1008A30001383E3800120138BE3900120138FD39D3
:1008B30000120138713A00120138D03A001201389F
:1008C3002F3B001201389E3B00120138913C00126D
:1008D3000138D73C001201381C3D001201383F3D5E
:1008E300001201388F3E00120138A23E0012013877
:1008F300143F001201384B3F00120138773F0012BA
:100903000138CA3F00120138EB3F001201382F4073
:1009130000120138814200120138C242001201382C
:100923006D4300120138D8430012013866D8031210
:100933000138DFC403120138BDC5031201386EC686
:100943000312013820C80312013859C803120138B1
:1009530077C80312013800C903120138AAC9031268
:1009630001384FDB031201385BDB03120138C5FF8B
:1009730002120138F4D00312013804D103120138F2
:1009830018D10312013820D2031201381BAF03120E
:100993000138BEAF03120138DAB1031201388FBB3D
:1009A3000312013804BC031201387CBC0312013862
:1009B30003BD0312013813BD0312013854BD0312E2
:1009C300013897BD03120138BCC903120138F6C9B7
:1009D3000312013869CA03120138A3CA031201388A
:1009E300E8CA03120138FACA0312013831CB0312E1
:1009F300013880C603120138CFC60312013801C77C
:100A03000312013892C7031201380EC803120138CA
:100A130080FC02120138A9FC02120138D2FC021236
:100A2300013892FD02120138E3FD02120138B3FFCF
:100A330002120138EACC031201381DCD031201382A
:100A430099CD03120138B9CD031201381ECE03121A
:100A5300013866CE0312013869CE03120138AE9411
:100A630003120138C794031201385C95031201384D
:100A73003F9603120138B99803120138F99803120B
:100A830001383799031201385DB903120138ACB943
:100A930003120138D8B903120138F8B90312013827
:100AA30085BA031201387DBB0312013855CB0312FB
:100AB3000138A6CB0312013830CC03120138BDCC68
:100AC30003120138F87F00120138F5B1031201381F
:100AD300F5B30312013861B403120138A8B4031249
:100AE3000138C8D703120138A0D903120138C8D579
:100AF30003120138A9BD0312013808BE03120138DD
:100B0300B6BE0312013835BF03120138FBA8031226
:100B130001382DA90312013835AA031201385AAB43
:100B230003120138F8CB02120138EACC0212013861
:100B33002DCD0212013867CD02120138DCCD02122D
:100B430001383DCE02120138BACE0212013896CFD7
:100B530002120138A1D00212013822D10212013847
:100B6300C9D2021201385FD302120138D2D3021262
:100B730001384ED40212013865D4021201389CD5D3
:100B830002120138F6D502120138C5AD011201383F
:100B93007BB20112013840B50112013869B5011267
:100BA300013890B50112013838B60112013827B85F
:100BB300011201381DB90112013870BE011201384A
:100BC300A9BE01120138C6DC031201387BD6031219
:100BD300013804D9031201382CC30312013843C36B
:100BE3000312013872C303120138ABC30312013875
:100BF300D3C30312013801C40312013818C403120A
:100C030001382FC40312013845C4031201386CC4E0
:100C1300031201387FC40312013895C4031201384B
:100C2300A8C403120138CDC40312013862D60212DC
:100C3300013861D70212013896D702120138B7D7AB
:100C430002120138C7D702120138E8D7021201385D
:100C5300F4D802120138C1D90212013834DA02126F
:100C63000138BADA02120138FDDA0212013834DB34
:100C730002120138BADB021201388CDC021201388D
:100C8300EADC0212013802DD021201387CDD0212B5
:100C930001387FDD0212013882DD0212013829DEBC
:100CA3000212013841DE0212013871DE02120138EC
:100CB30091DE021201387FDF0212013835E00212A1
:100CC30001380690031201382E90031201385C900C
:100CD30003120138939003120138FB900312013879
:100CE3004491031201388F9103120138CD910312FD
:100CF30001380A9203120138389203120138DF9245
:100D030003120138E99203120138F69203120138F3
:100D1300299303120138EB9303120138F79303125B
:100D230001380F94031201381994031201380C7F10
:100D3300001201381A7F00120138327F0012013885
:100D43004A7F001201383CD001120138DAD0011277
:100D5300013852D10112013867D201120138A1D2F0
:100D6300011201384AD3011201381FD4011201388C
:100D730083D501120138DAD50112013861D6011287
:100D8300013848D70112013895D70112013823D809
:100D93000112013847D8011201381CDA0112013857
:100DA3005DDA011201387FDA0112013800DB01122A
:100DB3000138EADB01120138B0DC011201384CEFD3
:100DC300021201381EF002120138C7F00212013874
:100DD3000AF10212013897F10212013823F20212CA
:100DE300013804F30212013833F3021201382FF4ED
:100DF3000212013877F40212013879F50212013830
:100E0300BDF502120138E3F502120138C6DA031206
:100E130001388DA103120138A3A103120138C9A11E
:100E230003120138F1A203120138FBA203120138A5
:100E330054A40312013854A503120138138B03126F
:100E43000138208C03120138548C03120138968C1C
:100E530003120138508E03120138DFC0011201382A
:100E630042C10112013887C20112013897C201122F
:100E73000138BAC20112013805C301120138AAC3ED
:100E830001120138A0C4011201386AC501120138E8
:100E9300E2C60112013824C701120138C2C7011288
:100EA30001380FC80112013835C80112013823CAAD
:100EB3000112013828CA0112013809CC0112013884
:100EC3005DCC01120138BFCC01120138E7CC01120D
:100ED30001388BCD011201384DCE011201387ECE7F
:100EE3000112013881CE01120138C9CE0112013835
:100EF3000BCF0112013872CF0112013807B7031269
:100F030001381AB70312013833B7031201387EB719
:100F13000312013859B803120138E8B80312013833
:100F230033B903120138EC4400120138F8440012BB
:100F330001383145001201387645001201382D463B
:100F430000120138B3460012013818470012013865
:100F53004447001201387D470012013891490012BD
:100F630001386D4B00120138584D001201388F4E75
:100F730000120138EF5000120138DB510012013822
:100F83002153001201382E54001201384B54001221
:100F930001388354001201389D540012013805555D
:100FA300001201389F5900120138405A00120138CB
:100FB300915A00120138B85A00120138065B001228
:100FC3000138245B00120138785B00120138515C50
:100FD30000120138D85D00120138605E001201383A
:100FE30058F60212013862F6021201382DF7021286
:100FF300013871F70212013897F702120138E3F74B
:10100300021201381BF80212013844F802120138A7
:1010130081F902120138AEF902120138DBF902122A
:10102300013826FA0212013841FA021201388CFA09
:1010330002120138C6FA0212013800FB021201380B
:1010430055FB02120138C0FB0212013809FC0212DF
:10105300013833FC0212013858FC02120138A19DF9
:10106300031201386B9E031201384E9F031201389D
:10107300C49F0312013806A00312013833A10312DF
:101083000138E7A70212013810A80212013829A873
:10109300021201386EA9021201384CAA0212013859
:1010A3006BAA02120138F8AA021201383BAB0212F2
:1010B300013888AC0212013827AD02120138A6AFFD
:1010C300021201383DB00212013811B10212013887
:1010D300F3B1021201385FB302120138F2B3021204
:1010E300013826D2031201388FD203120138E3D21A
:1010F300031201380AD3031201385DFB01120138D0
:10110300CAFB0112013815FC011201380AFD011254
:10111300013806FE01120138F0FE011201389E76F5
:1011230000120138E07600120138BA770012013854
:101133009378001201388E79001201386D7A00120B
:101143000138D97A00120138A07B001201380B7CD8
:1011530000120138727C001201389D7C00120138A4
:101163000E7D00120138A17D001201380A7E0012A3
:1011730001381F7E00120138677E00120138807E1D
:1011830000120138E57E00120138E87E00120138B2
:1011930021AC0312013849AC0312013887AC0312A6
:1011A300013845AD03120138B0AD03120138CCAD9F
:1011B30003120138F4AD0312013824AE03120138CF
:1011C30033AE03120138ADAE03120138D3AE0312AE
:1011D300013863ED0112013840EF011201383BF190
:1011E300011201380EF20112013859F201120138CD
:1011F300A4F201120138C2F20112013804F3011200
:1012030001381FF3011201386BF301120138A5F302
:1012130001120138C8F30112013815F40112013823
:1012230088F4011201389AF60112013844F80112C8
:10123300013894F801120138F9F9011201384FFA13
:1012430001120138BDFA0112013808FB01120138FD
:1012530032FB0112013869B40212013894B402124C
:1012630001387BBB021201389FBD021201385ABFFD
:1012730002120138B7C002120138C75E00120138EA
:101283005E5F001201388B5F00120138D15F0012DC
:101293000138106100120138A76200120138FC62A4
:1012A30000120138716300120138A0640012013882
:1012B300FB6500120138FD66001201385A680012FE
:1012C3000138736800120138D06800120138B2691E
:1012D30000120138E56900120138556A001201381D
:1012E300CF6A001201381E6B00120138EA6B00123C
:1012F3000138EF6C00120138CE6D00120138596EBF
:1013030000120138C76E001201383B6F001201381A
:10131300646F001201382370001201389D710012AE
:101323000138BA7100120138D971001201386A729A
:10133300001201388F7200120138B772001201389F
:101343003273001201388C7300120138E0740012FA
:1013530001389D7500120138707600120138008043
:10136300021201385080021201385C8002120138E7
:10137300398102120138698102120138A1810212F6
:101383000138208202120138588202120138AA82DF
:1013930002120138E782021201380C850212013869
:1013A3003887021201383389021201380E8B021278
:1013B3000138E37F00120138149A011201385E9A52
:1013C300011201383DA001120138BEA101120138FA
:1013D3001DA80112013818A90112013855A90112DB
:1013E300013878A901120138BAA901120138C3A939
:1013F30001120138CDA901120138B9AA011201382D
:10140300ADAB01120138CF8301120138478E0112AF
:1014130001384D8E011201385995011201385EA52C
:1014230003120138F4A5031201380AA60312013886
:1014330084A603120138DAA60312013818A703128F
:10144300013875A703120138F2A703120138FBA76D
:101453000312013807A8031201381AA8031201382E
:1014630056A8031201386CA803120138CBA8031243
:1014730001385599031201386299031201387C9996
:1014830003120138BB9903120138F9990312013889
:101493005E9A03120138739A031201387E9A03127B
:1014A30001388B9A03120138A29A03120138B09AB9
:1014B30003120138BB9A03120138C79A0312013889
:1014C300D69A03120138E19A03120138049B0312DE
:1014D3000138AD9B03120138BD9B03120138D79B22
:1014E30003120138F49B03120138109C03120138D4
:1014F300359C031201383F9C03120138539C03129D
:101503000138729C03120138D39C03120138D99C11
:1015130003120138DF9C03120138E59C03120138E2
:10152300F19C03120138249D03120138D48D021259
:101533000138568E02120138FF8E0212013847908D
:10154300021201385592021201383B9302120138FC
:101553007093021201389293021201383B940212E3
:1015630001380B9602120138349602120138AC96F8
:1015730002120138DE9602120138EB96021201388C
:101583003697021201385A9702120138AB990212A8
:101593000138B59A02120138119B02120138E5DEB7
:1015A30001120138F6DF01120138DAE001120138C5
:1015B300E4E00112013806E10112013812E10112DF
:1015C3000138B6E201120138E3E201120138F9E30E
:1015D300011201384EE4011201389DE50112013870
:1015E30072E601120138CEE60112013839E7011221
:1015F30001386EE701120138B1E7011201387BEAC5
:101603000112013893EA0112013824EB0112013867
:1016130032EB011201387FEB011201388DEB01121D
:101623000138F9EB0112013874EC01120138CBECEB
:1016330001120138DAC002120138FCC0021201386B
:101643000DC302120138CCC502120138F6C60212CC
:101653000138B4C702120138A0C80212013873C19D
:101663000312013898C1031201380EC20312013864
:101673002FE80212013838E80212013841E8021259
:10168300013819E902120138CAEA02120138FAEAEA
:101693000212013825EB0212013855EB0212013810
:1016A30080EB02120138B4EB02120138E0EB0212B4
:1016B300013823EC021201384EEC0212013895EC8A
:1016C30002120138EAEC021201382CED0212013841
:1016D30086ED02120138B1ED0212013800EE02125A
:1016E300013830EE021201385BEE0212013889EE46
:1016F30002120138ACEE02120138D2DB03120138B8
:10170300FEDB031201382BDC0312013835DC031234
:10171300013845DC03120138B2FF01120138DFFF43
:1017230001E066701008A3E066700A08A3E0667023
:101733000408A3E06622C3E7960809E7960809E7C9
:10174300960809E79622C3E09608A3E09608A3E06B
:101753009608A3E09622C008C3E096F50808A3E024
:1017630096420808A3E096420808A3E0964508704D
:1017730001D3D00822080808EAC0E0EBC0E086F0F5
:10178300E7A4FA180986F0E7A42AFA180986F0E70D
:10179300A42AFA180986F0E7A42AFA1986F0E7A41E
:1017A300FBE5F02AFA190886F0E7A42BFBE5F03AEB
:1017B300FA190886F0E7A42BFBE5F03AFA181809A2
:1017C30086F0E7A4C5F02BFBE43AFA1908E7C5F065
:1017D300C6A426F6E5F03BFBE43AFA1886F0E7A444
:1017E300F6E5F00826F6E43B08F6E43A08F6D0E01E
:1017F300FBD0E0FA22E4CFC0E0E4CEC0E0E4CDC009
:10180300E0E4CCC0E075F020C3E633F608E633F637
:1018130008E633F608E633F6181818EC33FCED3314
:10182300FDEE33FEEF33FFC3EC9709ED9709EE9717
:1018330009EF97191919400FFFEC97FC09ED97FD74
:1018430009EE97FE191906D5F0BEECF709EDF70975
:10185300EEF709EFF7191919D0E0FCD0E0FDD0E05D
:10186300FED0E0FF226016080808C6C313C618C6D8
:1018730013C618C613C618C613C6D5E0EA227009E4
:10188300080808226016181818C6C333C608C633DA
:10189300C608C633C608C633C6D5E0EA22E627F62D
:1018A3000809E637F60809E637F60809E637F622A7
:1018B300E026F608A3E036F608A3E036F608A3E030
:1018C30036F622E026F008A3E036F008A3E036F06F
:1018D30008A3E036F022C3E697F60809E697F60870
:1018E30009E697F60809E697F622C3E096F008A3FF
:1018F300E096F008A3E096F008A3E096F022E05605
:10190300F608A3E056F608A3E056F608A3E056F659
:1019130022E056F008A3E056F008A3E056F008A32F
:10192300E056F022E0F608A3E0F608A3E0F608A3E9
:10193300E0F622E6F008A3E6F008A3E6F008A3E643
:10194300F022E0FAA3E0FBA3E0FCA3E0FD22EAF02F
:10195300A3EBF0A3ECF0A3EDF022CAC0E0E6F0A302
:1019630008DAFAD0E0FA22CAC0E0E0A3C582CCC507
:1019730082C583CDC583F0A3C582CCC582C583CD83
:10198300C583DAE6D0E0CA22C3E498F8E499F912F1
:1019930019CC8026C3E49AFAE49BFBE920E7E91219
:1019A30019CCE498F8E499F922C3E498F8E499F996
:1019B3001219CCE498F8E499F9C3E49AFAE49BFB8E
:1019C30022EB20E7CFE920E7E0B90010BB0008E8ED
:1019D3008AF084F8AAF022E4FBC8FA22EB70227B97
:1019E30010C833C8C933C9335007C39AC3DBF28065
:1019F300069A50012ADBEAC833F4C8C933F4C9FA9A
:101A03002275F008E4C833C8C933C933C99AC99BDE
:101A13005004C92AC93BD5F0ECFBC833F4C8E4C968
:101A2300FA22600D08C6A2E713C618C613C6D5E08E
:101A3300F322600C08C6C313C618C613C6D5E0F458
:101A430022700422600D18C6C333C608C633C6D538
:101A5300E0F41822251810AF08F518400215198074
:101A630008F51840021519D2AF22C0D0251810AFBF
:101A730008F518500205198008F51850020519D207
:101A8300AFD0D0222518F58210AF08F51840021503
:101A9300198008F51840021519D2AF85198322253C
:101AA30018F582E43519F58322E4732518C582C03D
:101AB300E0E51934FFC583C0E0E518C3958224F837
:101AC30010AF08858319858218800885831985825C
:101AD30018D2AFCEF0A3E520F0A37808E608F0A370
:101AE300DEFAEFF0A3E58124FAF8E608F0A3E608AE
:101AF300F0A3E608F0A30808E608F0A3E608F0A3BD
:101B030015811581D0E0FED0E0F81581158115818E
:101B1300E8C0E0EEC0E0222518C582C0E0E5193434
:101B2300FFC583C0E0E518C3958224F910AF08858B
:101B330083198582188008858319858218D2AFCED0
:101B4300F0A3E520F0A37808E608F0A3DEFAEFF0AF
:101B5300A3E58124FBF8E608F0A3E608F0A3080850
:101B6300E608F0A3E608F0A315811581D0E0FED0C6
:101B7300E0F815811581E8C0E0EEC0E02285198305
:101B8300851882E0A3FEE0A3F5207808E0A3F60819
:101B9300DFFAE0A3FFE0A3C0E0E0A3C0E0E0A3C05E
:101BA300E0E0A3C0E0E0A3C0E010AF0885821885A1
:101BB30083198008858218858319D2AFD083D08298
:101BC300020135851983851882E0A3FEE0A3F52081
:101BD3007808E0A3F608DFFAE0A3FFE0A3C0E0E0A3
:101BE300A3C0E0E0A3C0E0E0A3C0E010AF0885829B
:101BF300188583198008858218858319D2AFD0830D
:101C0300D08222C0D02518C582C0E0E51934FFC5B3
:101C130083C0E0E518C3958224F310AF08858319C8
:101C23008582188008858319858218D2AFC8F0A3EE
:101C3300E9F0A3EAF0A3EBF0A37908E709F0A3D84E
:101C4300FAECF0A3EDF0A3EEF0A3EFF0A3D0E0F0F5
:101C5300A3D0E0F0A3D0E0F0A3E520F0A3E5F0F0FB
:101C6300A322851983851882E0C0E0A3E0F9A3E0ED
:101C7300FAA3E0FBA37808E0F608A3DFFAE0FCA3ED
:101C8300E0FDA3E0FEA3E0FFA3E0C0E0A3E0C0E02B
:101C9300A3E0F5D0A3E0F520A3E0A3F5F010AF088F
:101CA3008583198582188008858319858218D2AFA8
:101CB300D082D083D0E0F8D0E0327404800674027E
:101CC30080027401C0E0F404121A87D0E012195D97
:101CD300227404800474028000CCC0E0EDC0E0E50F
:101CE30018C39CCCAD1950011D10AF068C188D196B
:101CF30080068C188D19D2AF12196AD0E0FDD0E09E
:101D0300FC22D083D082E9C0E0E493A3C386F0C56C
:101D1300F095F0F908E493A386F0C5F095F0700B05
:101D2300E493A3C3994005E9048002A3E475F00298
:101D3300A42582F582E5F03583F583D0E0F9E493B9
:101D4300A3C0E0E493C0E022D083D082ECC0E0EDF6
:101D5300C0E0E493A3FCE493A3FDED4C600D121DDE
:101D630097EC24FFFCED34FFFD80EFE493A3FCE448
:101D730093A3FDED4C600D121DD6EC24FFFCED3456
:101D8300FFFD80EFD0E0FDD0E0FCE493A3C0E0E4EE
:101D930093C0E022C0E0C3E49396087401939618BD
:101DA300400FE4936670080874019366187000701E
:101DB30019A3A3C3E49396087401939618A3A340AD
:101DC3000DD0E0D0E0D0E0021D87A3A3A3A3A3A37B
:101DD300D0E022C0E0C0F088F0E493667008087495
:101DE300019366187000A8F0A3A3700BD0F0D0E0A5
:0E1DF300D0E0D0E0021D87A3A3D0F0D0E02204
:101E0400C0E074F2121C06A2AFE433FED2AFE5893F
:101E1400A2E05003120A4C758900C2C5EEA2E092FA
:101E2400AF7F01021C65C0E074F2121C06A2AFE48D
:101E340033FED2AFE58AA2E64006E58AA2E7500364
:101E4400120A4C758A00758A00C2EBEEA2E092AFCA
:101E54007F01021C65C0E0C0D0E8C0E0A2AFE4335B
:101E6400F8D2AF758B00C2E8A2E092AFD0E0F8D010
:101E7400D0D0E032C0E0C0D0E8C0E0A2AFE433F894
:101E8400D2AFC2C7751A00A2E092AFD0E0F8D0D0AA
:101E9400D0E03274F5121B1AEAFEEBFFEE2434F89C
:101EA400EF3400F988088909EE2435F582EF34000F
:101EB400F583E0F8EE2437F582EF3400F583E0F59E
:101EC4000AEC850AF0A4FCAAF0850AF0EDA42AFD28
:101ED400E82CF8E43DF97A257B001219CCEA850850
:101EE40082850983F05407F87401B800028004C3A2
:101EF40033D8FCC0E0E0131313541FF8EE28F8EFB6
:101F04003400F9E8245DF582E93400F583D0E0F883
:101F1400E0586008EE2434F582EF801EEE2436F596
:101F240082EF3400F583E0F5F0EA84A8F0EE28F8B7
:101F3400EF3400F9E82438F582E93400F583E0F958
:101F44007F04021BC674F5121B1AEAFEEBFFEE2493
:101F540034F582EF3400F583E0C0E0EE2435F582F9
:101F6400EF3400F583D0E0F08E828F83A3A3A3A384
:101F7400A3A3A3C082C0838E828F83A3A3A3A3A39E
:101F8400E0F8A3E0F9D083D082E0C398F508A3E099
:101F940099F509EE2480F582EF3400F583E06401BD
:101FA4007069EE2481F582EF3400F583E0F8A3E054
:101FB400F98E828F83A3A3A3A3A3A3A3E0FCA3E02E
:101FC400FD8E828F83A3A3A3A3A3E0FAA3E0FBC3A4
:101FD400EA9CEB9D5027C3EC98ED99402EC3EA98F8
:101FE400EB9950277C8A7D07EEFAEFFB121310EE73
:101FF4002480F582EF3400F583E4F0800EC3EA9880
:10200400EB9940E0C3EC98ED9950D9EE2434F8EF05
:102014003400F9E8FCE9FDEE2435F582EF3400F5EF
:1020240083E0F8EE2437F582EF3400F583E0F50A17
:10203400E508850AF0A4F508AAF0850AF0E509A4E4
:102044002AF509E82508F8E43509F97A257B001210
:1020540019CCEA8C828D83F05407F87401B800021D
:102064008004C333D8FCC0E0E0131313541FF8EE0C
:1020740028F8EF3400F9E8245DF582E93400F583AB
:10208400D0E0F8E0586008EE2434F582EF801EEECC
:102094002436F582EF3400F583E0F5F0EA84A8F005
:1020A400EE28F8EF3400F9E82438F582E93400F535
:1020B40083E0F9122945021F44C082C08385188237
:1020C400851983E0F8A3E0F9C3EA9CEB9D5012C3A1
:1020D400EC98ED994019C3EA98EB99501279018074
:1020E40010C3EA98EB9940F5C3EC98ED9950EE795A
:1020F40000D083D08222EAC39CFAEB9DFB2200002D
:102104008521878522C622C0E0C0D0E8C0E0E9C0AE
:10211400E0EAC0E0EBC0E0ECC0E0EDC0E0C008C025
:1021240009C00AC00BC082C083C0F0759B009061D7
:1021340082E0A2E640030221E9E591A2E64003021F
:1021440021E97591BF90064FE064057008121448A8
:10215400121454800312144E7521001214AEE99027
:102164000650F079001214A212128C7A017B0090AE
:10217400064EE0F91206F8907803E0644260030228
:1021840022329007ECE014F06003022232C2AF1254
:10219400219600782AD0E0F618D0E0F6E59F54079F
:1021A400F9700590831C80039083647808121927C2
:1021B400E9C4C0E07829E65508F50808E65509F5AC
:1021C40009740B7808121A35D0E02508F89062706B
:1021D400E0A2E740F8E8C333906272F0906270E0E6
:1021E400D2E0F08049E0A2E55024E591A2E5501E3A
:1021F4007591DF90064FE0640D7013900671E00452
:10220400F064287002E4F07A00E0F912152090617D
:1022140081E0A2E35009E5E9A2E3500375E9F7A3DD
:10222400E0A2E75009E591A2E7500375917FD0F051
:10223400D083D082D00BD00AD009D008D0E0FDD012
:10224400E0FCD0E0FBD0E0FAD0E0F9D0E0F8D0D068
:10225400D0E032C0E0C0D0C082C083906183E0A2ED
:10226400E05009E5BFA2E0500375BFFEE0A2E150D3
:1022740009E5BFA2E1500375BFFDE0A2E25009E504
:10228400BFA2E2500375BFFBE0A2E35009E5BFA281
:10229400E3500375BFF7E0A2E45009E5BFA2E450A0
:1022A4000375BFEFE0A2E55009E5BFA2E550037551
:1022B400BFDFE0A2E65009E5BFA2E6500375BFBF49
:1022C400D083D0828088C0E0C0D0E8C0E0E9C0E01C
:1022D400EAC0E0EBC0E0ECC0E0EDC0E0C0F0E5A790
:1022E400A2E6500FE5A1A2E6500953A7BF75A1BF0E
:1022F40012232FE5A7A2E5500CE5A1A2E550065351
:10230400A7DF75A1DFE5A7A2E15009E5A1A2E1508D
:102314000375A1FDE5A7A2E2500CE5A1A2E25006D7
:1023240053A7FB75A1FBD0F002224074F8121B1ACC
:1023340075210190064FE0640670151213DC8A8241
:102344008B83A3A3A3A3A3A3E0FAA3E0FB121436F5
:10235400A2AFE433FED2AF900655E0640170187A60
:10236400207B0090064EE0F91207887A207B0090CB
:10237400064EE0F91206FE906182E0D2E6F0900784
:10238400EBE0602185C6228016900654E06401705B
:1023940008E5C654F84405F5C653BEFC122104747E
:1023A40001652160E4EEA2E092AF7F01021BC6004A
:1023B4008E238F2485822885832785188285198317
:1023C400E0CEA3E0CF852882852783EBC9EAC8ED58
:1023D400CBECCA75F010C3E833C8E933C9EA33CA91
:1023E400EB33CBC3EA9EF526EB9FF525B35004AB44
:1023F40025AA26EC33CCED33CDD5F0DAAE23AF24C9
:102404002274EB121B1A74FA121A578A088B098C5D
:10241400148D1590064FE024F7C39405500690835D
:102424005C0225671213DC8A0A8B0BAE0AAF0BEE33
:102434004F7003022564AC08AD09851882851983A1
:10244400AA82AB831214668E828F83A3A3780812A8
:1024540019279082D8780812190185188285198362
:10246400780C1219279082D8780C121901780879FF
:102474000C121739501F7808790C1218D99082F46D
:1024840078081217594047850810850911850A12E2
:10249400850B138041850C10850D11850E12850F57
:1024A40013781079081218D99082F47810121759F9
:1024B400501C751000751100751200751301781009
:1024C400790C1218D9781079081218A08008908312
:1024D4005C781012192774097810121881908314EB
:1024E4007808121927781079081217F88E828F83CA
:1024F400A3A3A3A3A3A3E0F8A3E0F97AD07B0312D8
:1025040019CC88088909E4F50AF50B7810790812C2
:1025140018A07404121AA2E0F8A3E0F97AD07B039D
:102524001219CCE8FA8A08E4F50978107908121728
:10253400395007781079081218D990064FE06408CA
:10254400600AE064066005E06405701C9082F87817
:102554001012175950129082FC78101218B3800888
:10256400908360781012192785148285158378105A
:102574001219367406121A6D7F0E021BC674F712F6
:102584001B1A1214789007E9E064017010906245F8
:10259400E4F0A3F053F4F343FE0C5390F312142429
:1025A400E5C654804449F5C6E59E547F644970F8F5
:1025B400906185740FF09007E7E0F47002A3E06087
:1025C4004E9007E8E0600814601B14602E8040758C
:1025D40008017509009007E7E07808121A44E50835
:1025E400F45280802A7508017509009007E7E078A5
:1025F40008121A44E508F45290801475080175090C
:10260400009007E7E07808121A44E508F452A0792C
:10261400007F02021BC674F7121B1AE9FEEAFF745C
:10262400016E700C7A807B0090064EE0F91206F879
:10263400902954E493F46008E493F9121280800919
:1026440053C680E59E547F70FA12142A9007E9E07D
:10265400640170031212989007E7E0F47002A3E09B
:10266400604B9007E8E0600814601A14602C803D09
:102674007508017509009007E7E07808121A44E527
:1026840008428080287508017509009007E7E07802
:1026940008121A44E5084290801375080175090070
:1026A4009007E7E07808121A44E50842A01214786B
:1026B4001213DC8A088B09A808A909E8496015E502
:1026C400E170FCE82414F582E93400F583E0F46059
:1026D40003E0F5E174016F700A7A0190064EE0F9A7
:1026E40012075202261574F1121B1A8A088B098CE0
:1026F4000A8D0B740F121AA2780C1219279082D823
:1027040078081219019082D8780C12190178087986
:102714000C12173950157808790C1218D99082F4D4
:102724007808121759401579018013780C7908122A
:1027340018D99082F4780C12175940EB79007F086D
:10274400021BC674ED121B1A8A088B098C0A8D0BA6
:102754007413121AA2780C1219279082D8780812CE
:1027640019019082D8780C121901780C7908121783
:102774003940117808790C1218D9AA08AB09AC0AA7
:10278400AD0B8022751000751100751200751301D0
:102794007810790C1218D9781079081218A0AA1098
:1027A400AB11AC12AD137F0C021BC69082D8780813
:1027B4001219278A828B8378081219147F04021B4A
:1027C400C674F5121B1A8C828D8378081219278A15
:1027D400828B8378081218EDEA2404F8EB3400F9AC
:1027E4008C828D83A3A3A3A3E0FCA3E0FD8882894C
:1027F40083C3E09CF0A3E09DF088828983C3E094C6
:1028040020A3E0944E402290835478081219278A1A
:10281400828B8378081218C68A828B83A3A3A3A30E
:10282400E02420F0A3E0344EF0808074F5121B1AEB
:10283400E9FE9007A1E0FAA3E0FBEEC333F8E4332A
:10284400F974E528F582748139F583E02AF508A343
:10285400E03BF5097808121CC19082D41219451284
:1028640023B47402121A6D8A088B098C0A8D0B74B6
:10287400107808121868AA08AB097F04021BC674F2
:10288400F1121B1A8A0C8B0D8C0E8D0F740F121AF9
:10289400A2E0FAA3E0FB7411121AA2E0F508A3E087
:1028A400F5097413121AA2E0FEA3E0FF7808121CC3
:1028B400C1EA2401F508EB3400F509E4F50AF50B47
:1028C400780C7908121778908338780812192778C9
:1028D4000C7908121778AA0CAB0DAC0EAD0F1223AD
:1028E400B47402121A6D8B09EA450960047A0180F6
:1028F400027A00EC2AFCED3400FDECF8EDF97A7173
:102904007B021219CC88088909E4F50AF50B8E823A
:102914008F837808121936ECF8EDF97A717B02127C
:1029240019CC8A088B0974057808121A448E828F90
:1029340083A3A3A3A3E508F0A3E509F07F08021B82
:0F294400C6C082C083E9906000F0D083D08222A9
:10295400FFFFFFFFFFFFFFFF74F0121AAE8A0A8B1E
:102964000B8909ECFEEDFF750800850A0C850B0D3B
:10297400780C121D0500040D9F2B9A29BB29DA2916
:10298400FB291C2A3D2A702A912AA82ADE2A092B0F
:102994002A2B4A2B742B7401650970158E828F8340
:1029A400E0C39403500B8E828F83E0900BE9F08098
:1029B40003750818022BC87402650970138E828F80
:1029C40083E0F8A3E0F9900BEAE8F0A3E9F08003D0
:1029D400750818022BC87401650970158E828F83DF
:1029E400E0C39402500B8E828F83E09002EFF0805C
:1029F40003750818022BC87401650970158E828F3F
:102A040083E0C39405500B8E828F83E09002F0F034
:102A14008003750818022BC87401650970158E822D
:102A24008F83E0C39402500B8E828F83E09002F177
:102A3400F08003750818022BC87410650970277597
:102A44000C10750D00780C121CC1EEFCEFFD7AF22F
:102A54007B021206A47402121A6D8A0C8B0D850C6B
:102A640082850D838003750818022BC874016509DB
:102A740070158E828F83E0C39402500B8E828F83F5
:102A8400E0900302F08003750818022BC8740165F6
:102A940009700B8E828F83E0900BEDF08003750834
:102AA40018022BC874046509702A8E828F83C08231
:102AB400C0839082D4780C121927D083D082780CEA
:102AC400121749500F8E828F8312194590030412F6
:102AD40019518003750818022BC8E5097021120EDC
:102AE40024E970131208D8E9F50C7950120B84E923
:102AF400F50D1208C6800B9003977401F0800375DE
:102B04000818022BC87401650970158E828F83E042
:102B1400C39402500B8E828F83E0900303F08003F2
:102B2400750818022BC87401650970158E828F838D
:102B3400E0C3940A500B8E828F83E0900BECF080FC
:102B440003750818807E74016509701F8E828F8357
:102B5400E0C3940740158E828F83E0C39411500B19
:102B64008E828F83E0900BEEF080597508188054A4
:102B7400740165097020900396E0F50C8E828F83B2
:102B8400E0900396F0E50C703B900396E0640170CE
:102B9400331208C6802E7508188029C3E50A9424C8
:102BA400E50B9400501B7402650970158E828F83A7
:102BB400E0FCA3E0FDAA0AAB0B120CC2E9F5088005
:102BC40003750802A9087F08021B8074EC121AAE70
:102BD40074DA121A57890D8A128B138C0A8D0B74AE
:102BE4003A121AA2E0F50C908292C082C083851832
:102BF40082851983AC82AD83D083D0827406121986
:102C04006A851882851983AC82AD83AA12AB13A995
:102C14000D12086CE9FEEEC3940A4003022D6EEE19
:102C2400F91208A8E9FF900BE9E06402700474014A
:102C340080027400F5087808121CC5AD0CEFFCEE98
:102C4400F9AA0AAB0B12091A7401121A6D7C147DCD
:102C54000079007412121AA2AA82AB831206BC8AEB
:102C64000E8B0F850E08850F097412121AA2AC82FE
:102C7400AD837A1075F006EEA42424F9120B7EE9D4
:102C840070437C1079FF7412121AA2AA82AB8312C9
:102C9400071CE970307422121AA2AC82AD837A0444
:102CA40075F006EEA42425F9120B7EE9F5087412DA
:102CB400121AA2AC82AD83EFA2E0E433F9AA0AAB04
:102CC4000B120D4CE97406121AA2AC82AD837A0C75
:102CD40074702EF9120B7EE9707E7406121AA2AA81
:102CE40082AB8312089C750E00E50EC394045068F1
:102CF400E50EA80E7900E875F003A4C8AAF075F0F3
:102D040000A42AFA75F003E9A42AF97406121AA297
:102D1400E58228F508E58339F50985088285098364
:102D2400E0F8A3E0F9E849602B850882850983A3CC
:102D3400A3E0F5107511007810121CC18508828576
:102D44000983E0FCA3E0FDAA0AAB0B120FAA7402EC
:102D5400121A6DE9050E8091EFA2E1500D9002EE7A
:102D6400E0F9AA0AAB0B120FB0E97404650C700FFA
:102D7400900BE9E064027007AA0AAB0B12091479FC
:102D8400007426121A6D7F0C021B8074F2121AAEA4
:102D9400890BEAFEEBFF8C088D09750A0AE50B60C6
:102DA4000C146009146044146064022E33EEFAEFCC
:102DB400FB1208BAE9F50AE50AC3940A5071E5085A
:102DC4004509606B750C06750D00780C121CC1EE7C
:102DD400FCEFFDAA08AB091206A47402121A6D8A4C
:102DE4000C8B0D850C82850D838044EEFAEFFB126B
:102DF40008B4E9F50AE50AC3940A5033E50845091D
:102E0400602DAA08AB09A90A1208AEE98021EEFADE
:102E1400EFFB1208C0E9F50AE50AC3940A5010E56D
:102E2400084509600AAA08AB09A90A1208AEE9A96B
:102E34000A7F06021B8074F2121AAE8A0C8B0DE90B
:102E4400FE7F1574FF650C700474FF650D702A75A0
:102E54000800E508C3940A5014EEFC7A027B00A92A
:102E64000812088AE960027F00050880E5EE6063C5
:102E74007A027B091211C6805AAA0CAB0D1211A852
:102E84008A0A8B0B850A08850B09E5084509604108
:102E94007C007D00E5082405FAE5093400FB85087B
:102EA40082850983A3A3A3A3E0F912086CE9F50AB8
:102EB400E50AC3940A500EEEFC7A027B00A90A12BA
:102EC400088AE97F00EE600BAA08AB0912090280A8
:102ED400027F14EFF97F06021B8074EE121AAE8A89
:102EE4000E8B0F8C0A8D0B7412121AA2E0F50CA330
:102EF400E0F50D75081574FF650E700474FF650F19
:102F0400701E7E00EEC3940A5062AC0CAD0DAA0A8A
:102F1400AB0BEEF9120890E960037508000E80E42B
:102F2400AA0EAB0F1211A88A108B11AE10AF11EEBE
:102F34004F60367C007D00EE2405FAEF3400FB8EF2
:102F4400828F83A3A3A3A3E0F912086CE9F509E532
:102F540009C3940A5016AC0CAD0DAA0AAB0BA9090F
:102F6400120890E97508008003750814A9087F0AFF
:102F7400021B8074F7121AAEEAFEEBFF900308EE10
:102F8400F0A3EFF09002EEE0FC7D007A237B0012C8
:102F94000CC2E9F5089002EEE0F9120F267F010257
:102FA4001B8074EE121AAE74EC121A578A0A8B0B39
:102FB400850A82850B83A3A3E024FA70030234DA22
:102FC40024FD70030233501470030230991460100E
:102FD40024FD70030232F81470030233900234FDAE
:102FE400AE0AAF0B900308E0F8A3E0F9E849606982
:102FF400900308E0F8A3E0F5838882E0F8A3E0F901
:10300400E8496055EE240CF582EF3400F583E0F5D1
:10301400087808121CC5EE240BF582EF3400F58302
:10302400E0F98E828F83A3A3A3A3A3A3A3A3A3E006
:10303400FCA3E0FDEE2403FAEF3400FB900308E068
:10304400F8A3E0F5838882E0F8A3E0F58388821290
:103054001AAC7401121A6D80398E828F83A3A3A3D4
:10306400A3A3A3A3A3A3121CD8900304121945126B
:103074000D5E7402121A6DE9601879018E828F83D5
:10308400A3A3A3A3A3A3A3A3A3E0FAA3E0FB120D0A
:1030940058E90234FDAE0AAF0B8E828F83A3E06041
:1030A400030232A68E828F83A3A3A3A3A3E0A2E08C
:1030B40040030232A67C0E7D0079008518828519B2
:1030C40083AA82AB831206BC8A088B09AA08AB09BF
:1030D4008E828F83A3A3A3A3A3A3A3A3E0F8A3E057
:1030E400F9E849603D7508067509007808121CC1A5
:1030F4008E828F83A3A3A3A3A3A3A3A3E02410FC82
:10310400A3E03400FD7402121AA2AA82AB83120651
:10311400A47402121A6D8A088B09850882850983B2
:1031240080548E828F83A3A3A3E0FAA3E0FB121141
:10313400A88A0C8B0D850C08850D09E508450960E6
:1031440032750C06750D00780C121CC1E5082405B7
:10315400FCE5093400FD7402121AA2AA82AB8312A0
:1031640006A47402121A6D8A0C8B0D850C82850DCF
:103174008380030234FD8E828F83A3A3A3A3A3E0E1
:10318400A2E25004D2F08002C2F0A2F0E433F87953
:1031940000740C121AA2E048F0A3E049F08E828F6A
:1031A40083A3A3A3A3A3A3A3A3A3A3E0F8A3E0F9E6
:1031B400E84960228E828F83A3A3A3A3A3A3A3A31E
:1031C400A3A3E02410F8A3E03400F988828983786B
:1031D4000C1219278008908354780C1219278E82B8
:1031E4008F83A3A3A3A3A3A3A3A3A3A3E0F8A3E010
:1031F400F9E84960178E828F83A3A3A3A3A3A3A393
:10320400A3A3A3E0F508A3E0F509800675080075FB
:1032140009008E828F83A3A3A3A3A3A3A3A3E0F88F
:10322400A3E0F9E84960158E828F83A3A3A3A3A327
:10323400A3A3A3E0F510A3E0F511800675100075B3
:103244001100780C121CBD7808121CC17810121CD5
:10325400C1EE240CF582EF3400F583121CD88E8263
:103264008F83A3A3A3A3A3A3E0FCA3E0FD740A128A
:103274001AA2AA82AB831208A2740A121A6DE9F583
:10328400088E828F83A3A3A3E0F8A3E0F9900398A8
:10329400E8F0A3E9F07A017B009002EEE0F912066F
:1032A400F8E9900308E0F8A3E0F9E84960439003E3
:1032B40008E0F8A3E0F5838882A3A3E0F8A3E0F98B
:1032C400E849602D8E828F83A3E0FC79018E828F82
:1032D40083A3A3A3E0FAA3E0FB900308E0F8A3E030
:1032E400F5838882A3A3E0F8A3E0F5838882121A09
:1032F400AC0234FDAE0AAF0B900308E0F8A3E0F98A
:10330400E8496045900308E0F8A3E0F5838882A3C8
:10331400A3E0F8A3E0F9E849602F850A82850B83CE
:10332400A3E0FC79028E828F83A3A3A3E0FAA3E037
:10333400FB900308E0F8A3E0F5838882A3A3E0F8F8
:10334400A3E0F5838882121AAC0234FDAE0AAF0BF7
:103354007C007D00EE2404FAEF3400FB8E828F8320
:10336400A3A3A3E0F912086CE9F508E508C3940ADD
:103374005017EE240AFCEF3400FD7A0475F006E5DC
:1033840008A42425F9120B78E90234FDAE0AAF0B28
:10339400900303E06018900BECE0F98E828F83A316
:1033A400A3A3E0FAA3E0FB120D58E90234FD900B4D
:1033B400E9E0701579058E828F83A3A3A3E0FAA3B5
:1033C400E0FB120D58E90234FD8E828F83A3A3A380
:1033D400E0FAA3E0FB1211A88A0C8B0D850C08857A
:1033E4000D098E828F83A3A3A3A3A3A3A3E0A2E0CA
:1033F4005075E5084509606C850882850983A3A397
:10340400A3A3E060628E828F83A3A3A3A3A3A3A339
:10341400A3A3E0F8A3E0F9E8C4540FF87900540139
:10342400F8E95400F9E8A2E0403D740E121AA2AC87
:1034340082AD83E5082405FAE5093400FB8508829A
:10344400850983A3A3A3A3E0F912086CE970187992
:10345400038E828F83A3A3A3E0FAA3E0FB120D588B
:10346400E90234FD0234FDEE2405FCEF3400FD8551
:103474000882850983A3A3A3A3E0F98E828F83A383
:10348400A3A3E0FAA3E0FB12090E900308E0F8A35B
:10349400E0F9E8496063900308E0F8A3E0F5838865
:1034A40082A3A3E0F8A3E0F9E849604D7C00790029
:1034B4008E828F83A3A3A3E0FAA3E0FB900308E02A
:1034C400F8A3E0F5838882A3A3E0F8A3E0F583885A
:1034D40082121AAC8023120E24E9701D900397E027
:1034E4006401700B1208D8E9F89003977400F0791E
:1034F40050120B84E9FE1208C67414121A6D7F0A66
:10350400021B8074F3121AAE74F2121A578909EA74
:10351400FEEBFF8C0C851882851983AC82AD837A0F
:103524000E75F006E509A42420F9120B7EE97072E9
:103534007C0679FF851882851983AA82AB831207DA
:103544001CE9705E740C121AA2E0F8A3E0F9E8F525
:1035540008E50C6005EE42088004EEF45208850884
:103564000A750B00740C121AA2E0650A7004A3E039
:10357400650B602AE508A8087900740C121AA2E504
:1035840008F0A3E9F0851882851983AC82AD837AAB
:103594000E75F006E509A42420F9120B78E97901E7
:1035A40080027900740E121A6D7F05021B8074F07C
:1035B400121AAE74E6121A57890B8A0C8B0DECFEA4
:1035C400EDFF740C121AA2AC82AD837A0E75F0066C
:1035D400E50BA42420F9120B7EE960030237167C64
:1035E4000679FF740C121AA2AA82AB8312071CE993
:1035F4006003023716851882851983AC82AD837AFD
:103604000C7470250BF9120B7EE9600302371275F6
:103614000A00851882851983AA82AB8312089CE567
:103624000C450D703A7C0C7900851882851983AAA3
:1036340082AB8312071CE960030236EC7C0C7D002C
:103644007900851882851983AA82AB831206BC8A05
:10365400088B09850882850983750A010236EC8581
:103664001882851983AC82AD83AA0CAB0D1208961F
:103674008A0E8B0F850E08850F09E50845097036FB
:10368400EE4F6021851882851983AC82AD837A0060
:103694007B001208968A0E8B0FA80EA90F88088942
:1036A40009E84970047900806B850882850983E5FF
:1036B4000CF0A3E50DF0850882850983A3A3E0F847
:1036C4007900EE687002EF69601EEE850882850954
:1036D40083A3A3F0EE4F700D8508828509837400DF
:1036E400F0A37400F0750A01E50A6022851882854A
:1036F4001983AA82AB8312089C851882851983AC2E
:1037040082AD837A0C7470250BF9120B78E9790178
:1037140080027900741A121A6D7F08021B8074F7F4
:10372400121AAEEAFEEBFF7B00EBC39404504EEB9F
:10373400F87900E875F003A4C8AAF075F000A42A8B
:10374400FA75F003E9A42AF9EC28F582ED39F5833A
:10375400E06E7003A3E06F7021EBF87900E875F078
:1037640003A4C8AAF075F000A42AFA75F003E9A42A
:103774002AF9EC28FAED39FB80070B80AC7A007B40
:10378400007F01021B8074F7121AAE7F00EFC3940E
:10379400044003023839EFF87900E875F003A4C84F
:1037A400ACF075F000A42CFC75F003E9A42CF9EA44
:1037B40028F582EB39F583E0F4FCA3E0F4FDEFF89F
:1037C4007900E875F003A4C8AEF075F000A42EFEED
:1037D40075F003E9A42EF9EA28F582EB39F583ECB8
:1037E400F0A3EDF0EFF87900E875F003A4C8ACF0AD
:1037F40075F000A42CFC75F003E9A42CF9EA28F573
:1038040082EB39F583A3A3E0F4C0E0EFF87900E894
:1038140075F003A4C8ACF075F000A42CFC75F0039B
:10382400E9A42CF9EA28F582EB39F583A3A3D0E0C7
:10383400F00F0237917F01021B8074EA121AAE74F2
:10384400F4121A57EAFEEBFF8C108D117422121A2F
:10385400A2E0F50EA3E0F50F7424121AA2E0F50C11
:10386400A3E0F50D7426121AA2E0F50AA3E0F50B05
:10387400EE4F7005790A0239B4EEFAEFFB1208BA7A
:10388400E9F508E508C3940A40061208CCE9F508EE
:10389400E508C3940A40030239B2EEFCEFFD7A0E48
:1038A40075F006E508A42420F9120B78E9F8E51070
:1038B40045116013AC10AD117A1B75F006E508A430
:1038C4002421F9120B78E9E50E450F6013AC0EAD17
:1038D4000F7A1B75F006E508A42422F9120B78E987
:1038E400E50C450D6013AC0CAD0D7A1075F006E5D2
:1038F40008A42423F9120B78E9E50A450B602DACE2
:103904000AAD0B7A1075F006E508A42424F9120B0D
:1039140078E9F5097428121AA2AC82AD837A047589
:10392400F006E508A42425F9120B78E97C0C7D0047
:1039340079FF851882851983AA82AB831206BC8A13
:10394400128B13851214851315851882851983AC7F
:1039540082AD837A0C74702508F9120B78E9F509A5
:1039640075120E7513007812121CC1EEFCEFFDE502
:1039740008A8087900E875F00EA4C8AAF075F0004C
:10398400A42AFA75F00EE9A42AF9740A28FA740331
:1039940039FB1206A47402121A6D8A128B13A81230
:1039A400A913900396E06003120920120908A908DC
:1039B400740C121A6D7F0E021B8074F7121AAE7407
:1039C400F2121A57E9FE851882851983AC82AD83F9
:1039D4007A0E75F006A42420F9120B7EE9700E7499
:1039E4000C121AA2E0F8A3E0F9E8F9800279007455
:1039F4000E121A6D7F01021B8074F4121AAE74F257
:103A0400121A578909EAFEEBFFE509C3940A500428
:103A1400EE4F70047902804B851882851983AC823D
:103A2400AD837A0E75F006E509A42420F9120B7E05
:103A3400E9F508E508702A750A06750B00780A127C
:103A44001CC17402121AA2AC82AD83EEFAEFFB120F
:103A540006A47402121A6D8A0A8B0B850A82850BDE
:103A640083A908740E121A6D7F04021B8074F41269
:103A74001AAEEAFEEBFF750800E508C3940A504548
:103A8400750A06750B00780A121CC1EEFCEFFDE501
:103A940008A8087900E875F00EA4C8AAF075F0002B
:103AA400A42AFA75F00EE9A42AF9741028FA74030A
:103AB40039FB1206B67402121A6DE96004A9088073
:103AC40006050880B4790A7F04021B8074F4121A74
:103AD400AEEAFEEBFF750800E508C3940A5045758D
:103AE4000A06750B00780A121CC1EEFCEFFDE5080E
:103AF400A8087900E875F00EA4C8AAF075F000A42F
:103B04002AFA75F00EE9A42AF9740A28FA7403391A
:103B1400FB1206B67402121A6DE96004A908800645
:103B2400050880B4790A7F04021B8074F7121AAE68
:103B340074F0121A57EAFEEBFF750800E508C39407
:103B44000A504B851882851983AC82AD837A10752F
:103B5400F006E508A42423F9120B7EE9702C7C10EE
:103B640079FF851882851983AA82AB8312071CE921
:103B74007018EEFCEFFD851882851983AA82AB8349
:103B8400120D2EE97004A9088006050880AE790A92
:103B94007410121A6D7F01021B8074F4121AAE7530
:103BA4000800E508C3940A4003023C80E508A8081D
:103BB4007900E875F00EA4C8AAF075F000A42AFAFA
:103BC40075F00EE9A42AF9740A28FC740339FD7A05
:103BD4000E75F006E508A42420F9120B7EE97003A3
:103BE400023C7B7C067D0079FFE508AA087B00EA9D
:103BF40075F00EA4CAA8F075F000A428F875F00EAC
:103C0400EBA428FB740A2AFA74033BFB1206BC8A51
:103C14000A8B0BAE0AAF0B7C067D0079FFE508AA80
:103C2400087B00EA75F00EA4CAA8F075F000A42879
:103C3400F875F00EEBA428FB74102AFA74033BFB0E
:103C44001206BC8A0A8B0BAC0AAD0BE508A80879EE
:103C540000E875F00EA4C8AAF075F000A42AFA755D
:103C6400F00EE9A42AF9741628F582740339F58351
:103C74007400F0A37400F00508023BA6900396E0DC
:103C840060031209201209087F04021B8074F712D2
:103C94001AAE7E00EEC3940A50327C0679FFEEFA27
:103CA4007B00EA75F00EA4CAA8F075F000A428F809
:103CB40075F00EEBA428FB740A2AFA74033BFB127A
:103CC400071CE96004EEF980050E80C8790A7F01BB
:103CD400021B8074F7121AAE7E007F00EFC3940AB1
:103CE400502F7C0679FFEFFA7B00EA75F00EA4CA28
:103CF400A8F075F000A428F875F00EEBA428FB7466
:103D04000A2AFA74033BFB12071CE970010E0F80A8
:103D1400CBEEF97F01021B8074F7121AAE7E007F8E
:103D240000EFC3940A500DEE700AEFF91208DEE9B1
:103D3400FE0F80EDEEF97F01021B8074EE121AAEC5
:103D440074CB121A57E9FE7427121AA2AC82AD83FF
:103D54007A0E75F006EEA42420F9120B7EE96003B6
:103D6400023E807C0679FF7427121AA2AA82AB83D2
:103D740012071CE96003023E807C0E7D0079FF740B
:103D840027121AA2AA82AB831206BC8A0A8B0B855D
:103D94000A0E850B0F7C1B7D0079FF740C121AA28E
:103DA400AA82AB831206BC8A0A8B0B850A0C850B8C
:103DB4000D7C0C7D0079FF851882851983AA82AB5E
:103DC400831206BC8A108B1185100A85110B742787
:103DD400121AA2AC82AD837A0E75F006EEA42420EA
:103DE400F9120B78E9F508740C121AA2AC82AD83AF
:103DF4007A1B75F006EEA42421F9120B78E9420827
:103E0400740C121AA2AC82AD837A1B75F006EEA470
:103E14002422F9120B78E94208740C121AA2AC821B
:103E2400AD837A1075F006EEA42423F9120B78E919
:103E34004208740C121AA2AC82AD837A1075F00693
:103E4400EEA42424F9120B78E94208740C121AA285
:103E5400AC82AD837A0475F006EEA42425F9120B26
:103E640078E94208851882851983AC82AD837A0C7F
:103E740074702EF9120B78E942088003750800A9C2
:103E8400087435121A6D7F0A021B8074F7121AAE79
:103E9400E9FE9002EEF01208C67F01021B8074F264
:103EA400121AAE890A8A088B09E5085400F8E50954
:103EB4005480F9E84960339002EEE0F91206E08A92
:103EC4000C8B0DA80CA90DE8FEE9FFE849600FEE84
:103ED400FAEFFB1208F0EEFAEFFB1206CEE9E50862
:103EE4006400FAE5096480FB8021E508A2E050172C
:103EF400900398E0FAA3E0FB120926E5086401FAAE
:103F0400E5096400FB80047A007B007F06021B80C5
:103F140074F7121AAEEAFEEBFF8E828F83E0245010
:103F2400601014601624E17019EEFAEFFB12088495
:103F34008010EEFAEFFB1208F68007EEFAEFFB12A0
:103F440008FC7F01021B8074F7121AAEEAFEEBFF35
:103F54008E828F83A3A3A3A3E0641E701179008EC5
:103F6400828F83A3A3E0FAA3E0FB120872E97F0126
:103F7400021B8074F6121AAEEAFEEBFF8E828F8368
:103F8400A3A3A3A3E0703A8E088F0985088285094C
:103F940083A3A3A3A3A3A3A3121CD8850882850982
:103FA40083A3A3A3A3A3E0FCA3E0FD850882850962
:103FB40083A3A3E0FAA3E0FB1208787402121A6D3B
:103FC400E97F02021B8074F7121AAEEAFEEBFF903F
:103FD40002EEE0F98E828F83A3E0FAA3E0FB120FD6
:103FE400B0E97F01021B80C082C08374FF121A579C
:103FF4001208D2E9C39402400B8518828519837490
:1040040002F08009851882851983740AF085188264
:10401400851983AC82AD837A017905120E3CE9746B
:1040240001121A6DD083D08202013574F2121AAED5
:1040340074E8121A57EAFEEBFF890A8C088D097C92
:10404400187D007900851882851983AA82AB8312B2
:1040540006BC8A0C8B0DAC0CAD0D851882851983BA
:10406400EEF0A3EFF09002F0E0C0E07402121AA2A6
:10407400D0E0F09002F1E0C0E07403121AA2D0E0A4
:10408400F0900BEEE0C0E07417121AA2D0E0F074C6
:1040940015121AA2E054FEF8A3E054FFF9900BEDB8
:1040A400E0A2E0E433FA7B00E84AF8E94BF974153E
:1040B400121AA2E8F0A3E9F0900BEDE0A2E150049B
:1040C400D2F08002C2F07415121AA2E054FDFAA3D1
:1040D400E054FFFBA2F0E433F87900C333F8E9338A
:1040E400F9EA48F8EB49F97415121AA2E8F0A3E9C1
:1040F400F0900BEDE0A2E35004D2F08002C2F07421
:1041040015121AA2E054F7FAA3E054FFFBA2F0E45C
:1041140033F50C750D007403780C121A44EA450C3F
:10412400F8EB450DF97415121AA2E8F0A3E9F09022
:104134000BEDE0A2E45004D2F08002C2F074151238
:104144001AA2E054EFFAA3E054FFFBA2F0E433F523
:104154000C750D007404780C121A44EA450CF8EB43
:10416400450DF97415121AA2E8F0A3E9F0900BEDCD
:10417400E0A2E55004D2F08002C2F07415121AA233
:10418400E054DFFAA3E054FFFBA2F0E433F50C752E
:104194000D007405780C121A44EA450CF8EB450D31
:1041A400F97415121AA2E8F0A3E9F0900BEDE0A25D
:1041B400E25004D2F08002C2F07415121AA2E05444
:1041C400FBFAA3E054FFFBA2F0E433F50C750D00F9
:1041D4007402780C121A44EA450CF8EB450DF97494
:1041E40015121AA2E8F0A3E9F09002F1E0602A7532
:1041F4000C10750D00780C121CC17CF27D02740643
:10420400121AA2AA82AB831206A47402121A6D8A2D
:104214000C8B0D850C82850D83900302E06012E502
:104224000A600E7415121AA2E04402F0A3E04400DE
:10423400F0900302E0600678017900800478007948
:10424400007414121AA2E048F09002EFE0600678BD
:104254000479008004780079007414121AA2E048EA
:10426400F0AC08AD09851882851983AA82AB831244
:104274000D52E97418121A6D7F06021B8074F7122E
:104284001AAEEAFEEBFF750800900302E0600678C0
:10429400017900800478007900E842089002EFE098
:1042A400600678047900800478007900E84208A95F
:1042B40008EEFAEFFB120E0CE97F01021B8074EE8C
:1042C400121AAE74E5121A578A0C8B0DE9FF8C088A
:1042D4008D09742D121AA2E0F50A74086509700A92
:1042E40075F006EFA42422FE800875F006EFA424DE
:1042F40021FE7C1B7D007900851882851983AA82A2
:10430400AB831206BC8A108B1185100E85110F85A4
:104314001882851983AC82AD837A1BEEF9120B7E69
:10432400E9703C741A121AA2E0C394074031741A5B
:10433400121AA2E0C394115026E50AF50B780B1269
:104344001CC57401121AA2AC82AD83E508A2E0E494
:1043540033F9AA0CAB0D120D647401121A6DE974D1
:104364001B121A6D7F0A021B8074F7121AAE121008
:1043740022E97E00EEC3940A50557C0679FFEEFADA
:104384007B00EA75F00EA4CAA8F075F000A428F822
:1043940075F00EEBA428FB740A2AFA74033BFB1293
:1043A400071CE97027EEF87900E875F00EA4C8AA96
:1043B400F075F000A42AFA75F00EE9A42AF9740A3B
:1043C40028FA740339FB7900121028E90E80A57FBE
:1043D40001021B8074F4121AAE74FB121A578A0875
:1043E4008B097403121AA285820A85830B780A1238
:1043F4001CC1750A02750B00780A121CC1750AA249
:10440400750B83780A121CC17CFF7DFF7A017B0047
:10441400120E7E7406121A6D8A0A8B0BAE0AAF0B4B
:10442400EE4F70030244E2E4F50AF50B780A121C1D
:10443400C17404121AA285820A85830B780A121C9D
:10444400C17404121AA285820A85830B780A121C8D
:10445400C17409121AA2121CD87902EEFCEFFDAA4B
:1044640008AB09120F9E7408121A6DE9704385187F
:1044740082851983E0FA7B007401121AA2E0F879AC
:1044840000E4C8F9EA28F50AEB39F50BE50A450B0F
:10449400601F780A121CC18E828F83A3A3A3A3E09A
:1044A400FCA3E0FDAA08AB091208787402121A6D85
:1044B400E9E4F50AF50B780A121CC17405121AA274
:1044C400121CD87CFF7DFFEEFAEFFB120E8A7404F7
:1044D400121A6D8A0A8B0BAE0AAF0B0244247405C0
:1044E400121A6D7F04021B80C082C083E9900EF60D
:1044F400F002477074F7121AAEE990056DF07CA5CE
:104504007D057AFF7BFF120FB690056E74FFF0A352
:10451400F0A3E4F0A3F07905120F3E90056DE0F9E5
:10452400120E667AD47B0F12119602547E74F41222
:104534001AAE8A088B09EB5480603090056DE0F95F
:104544001206E08A0A8B0BAE0AAF0BEE4F60138E95
:10455400828F83E064B07003120F56EEFAEFFB1201
:1045640006CEAA08E5096480FB80047A007B000279
:10457400473F74F2121AAE74FC121A57EAFEEBFFAC
:104584007412121AA2125965EE4F7003024619747E
:1045940002121AA2EEF0A3EF12497AECF0A3ED1284
:1045A400497AAA82AB83120E60E9F50A706AE508BB
:1045B400450960648E828F8312594BEE4F60567AA0
:1045C400067B0012073A8A0C8B0DA80CA90DE8494A
:1045D4007005750A13804188828983E4124626EEA9
:1045E400F0A3EF125976E508F0A3E509F0900573FE
:1045F4001246AD9005737005125428801B12541690
:104604008003EAFCEBFD8C828D831246AD70F38C43
:10461400828D8380E3750A02A90A7404121A6D025A
:104624005B65F0A312591CA32274F2121AAE890A14
:10463400E975F017A4FEAFF0900572E4F0900570F0
:104644001246AD600A120740900570E4F0A3F0EE44
:10465400FAEFFB12073A8A088B09EA4509602FEE44
:10466400FCEFFD79001206BC900570E508F0A3E5A7
:1046740009F07B008008124697E4F0A3F00BEBC32B
:10468400950A40F2E50A900572F0790080027913E8
:10469400025B65EB75F017A4F8A9F0900570E028AB
:1046A400FAA3E0398A82F583221250BAEA4B2274C3
:1046B400F4121AAE740C121AA2125940FEE9FF75D4
:1046C4000800750900800CE5082401F508E50934A3
:1046D40000F509C3E5089CE5099D503285080A8563
:1046E400090B7403780A121A44EA250AF8EB350B0D
:1046F400F988828983A3A3A3A3A3A31254FDEE651F
:104704000A7003EF650B70BFE8FAE9FB80047A00D6
:104714007B00802774F4121AAE7900EAA2E0501BE1
:1047240075089E7509827808121CC17C047D007A84
:10473400F87B0E120F387402121A6D7F04021B806C
:10474400C082C083900573124777601C8882898376
:10475400A3A3E06A7003A3E06B8882898370E8A353
:10476400A3A3A31250B680047A007B00D083D08226
:10477400020135125C4BE8492274EE121AAE74FC45
:10478400121A57EAFEEBFF851882851983E4F0A319
:10479400F0EE2402125408EE2405125923EE2404E8
:1047A400F50EEF124D2FE024FE603924FC60462400
:1047B400FE605224FE605E24FE700302489024FED4
:1047C40070030248F424FE700302490324FE7003BC
:1047D40002491224FC700302492124FE7003024999
:1047E4003002496D90058C7417F0A3E412498212CB
:1047F4000BDE02496D851882851983AC82AD831264
:104804000F5C02493D851882851983AC82AD831201
:104814000F6202493D850C08850D097402121AA223
:10482400AC82AD838508828509831250B6120E844A
:104834008A0C8B0DAC0CAD0DEC4D603BE4F50CF526
:104844000D780C121CC1750C8C750D05780C121C9E
:10485400C1750C8D750D05780C121CC17408121AE3
:10486400A2121CD8125DC7121A6DE9F50C700B1256
:1048740050AC120BF6800F750C01850882850983F4
:10488400124970125428850C080249407402121A05
:10489400A2AC82AD83850C82850D83124E81603C6F
:1048A400850C82850D83A3A3121CD875108C7511F9
:1048B400057810121CC175108D7511057810121C25
:1048C400C17408121AA2121CD8125DC7121A6DE91B
:1048D400F509700B1250AC120BFC800F75090185A1
:1048E4000C82850D83124970125428850908804C66
:1048F400851882851983AC82AD83120F68803A854E
:104904001882851983AC82AD83120F6E802B8518B3
:1049140082851983AC82AD83120F74801C85188242
:10492400851983AC82AD83120F7A800D8518828538
:104934001983AC82AD83120F80E9F508E50860297C
:104944008E828F83A3E06414601F850E82850F839B
:10495400E090058C12497A125C4790058D12542818
:10496400E508A3124982120BD8025317125C4B8537
:10497400188285198322F085188285198322F07C98
:104984008C7D05850A82850B831250BA2274EE123F
:104994001AAE74FC121A578A0A8B0B8C0E8D0FEA0E
:1049A4002405F508EB3400F5097C157D0079007ABF
:1049B4008C7B051206BCE5082402F50CE5091259A6
:1049C40026851882851983858210858311781012B3
:1049D4001CC1850882850983A3A3A3A3124E781260
:1049E4001CC1E5082405F510E5093400F51178101B
:1049F400121CC1850C82850D831251CD120E7E745A
:104A040006121A6D8A108B11AE10AF11E50A24023A
:104A1400F50AE50B12540BEE4F7003024B4F80174F
:104A24007402121AA21250B688828983EAF0A3EBA8
:104A3400F090058CE004F090058CE0C394054003ED
:104A4400024B4FE4F510F5117810121CC175107566
:104A54007511057810121CC1751076751105781042
:104A6400121CC17406121AA2121CD87910EEFCEFA3
:104A7400FD125DC9121A6DE9705E8508828509838D
:104A8400A3A3A3A3A3A3A3E0F8900575E0687048CB
:104A9400124E78121CC17C767D05E5082408FAE5DF
:104AA400093400FB1206B67402121A6DE960298EED
:104AB400828F83A3A3A3A31250B690058CE0F510B4
:104AC40074027810121A44748D2510F58274053519
:104AD40011F583EAF0A3EBF07402121AA285821096
:104AE4008583117810121CC17402121AA2121CD8E8
:104AF400850C82850D831250DC121A6D8A108B117D
:104B0400AE10AF1190058CE0F510751100740278A9
:104B140010121A44748C2510F874053511F9888222
:104B24008983A31246AD7003024A1BE824030808D4
:104B340008E93400F9EE4F6003024A24888289832D
:104B440074FFF0A3F090058CE004F090058CE06015
:104B54000A1250AC120BEA7900800B850882850991
:104B64008312541F790A02531774EA121AAE74FEA0
:104B7400121A578C128D13EA2405F50CEB125DB151
:104B840012594F750800750900EA2402F510EB3438
:104B940000F51185188285198385820A85830B782F
:104BA4000A121CC1850C82850D83A3A3A3A3124DF5
:104BB40045121CC1E50C2405F50AE50D12540B78C9
:104BC4000A121CC1850C82850D83124D49120E7E7A
:104BD4007406121A6D8A0A8B0BEA450B7003024C99
:104BE400EAEA2404F50EEB124D2F12594F8A828BF8
:104BF40083A3A3A3E0F98510828511831250C060BA
:104C040003024CEAE4F514F5157814121CC175146A
:104C1400757515057814121CC1751476751505780B
:104C240014121CC17406121AA2121CD87913AC0AED
:104C3400AD0B851082851183125DCF121A6DE9F5D3
:104C4400096003024CEA900575E0F8E5087009E094
:104C5400240290058DF0801490058DE0FCE8240278
:104C6400FAE43400FBEA6C7001EB707E850882AADA
:104C740082124E6F9414124E67506B850E82850F0C
:104C840083E0C0E0748E2A124D26D0E0F00508853A
:104C94000E82850F83A3E0C0E085080A748E250A7E
:104CA400124D26D0E0F00508900575124D45121CF2
:104CB400C17C767D0585080A748E250A124D391249
:104CC4001A6D900575E02508F50874FF6E7003747D
:104CD400FF6F6012EE24010EEF3400FFE508C39469
:104CE400145003024B97E50860131250CA851082D2
:104CF4008511831250B6120BF079008014E5097007
:104D04000375090A851282851383EEF0A3EFF0A9D7
:104D1400097402121A6D7F0E021B8085080C748EB2
:104D2400250CF58274053400F583223400F50F85D3
:104D34000E82F58322FA74053400FB1206A4740271
:104D44002212598522A3A3124D4F22125416FDEEAE
:104D5400FAEFFB2274EE121AAE74FE121A578C0E7E
:104D64008D0FEA2405F50CEB125926750B009005FE
:104D74008CE4F0F50AEA2402F508EB3400F5098026
:104D84004490058CE0FA900575E0F8124E6F941784
:104D9400124E67400D90058CE0F87416C398900588
:104DA40075F0124E78121CC17C767D05748D2AFA3A
:104DB4007405124D3C121A6D900575E0F890058C3F
:104DC400E028F0050AE50C2416F582E50D124D2ABB
:104DD400E0F8E50AC398507490058CE0C39416502B
:104DE4006BE50AC333F8E433F9E50C28FEE50D3925
:104DF400FF851882851983AC82AD838E828F8312DE
:104E04004E817008750B0112541B8050E4F510F5A7
:104E1400117810121CC17510757511057810121CCB
:104E2400C17510767511057810121CC17406121A1A
:104E3400A2121CD87916850882850983125DCF12C7
:104E44001A6DE9F50B7003024D8580BB7C8C7D05E2
:104E54008508828509831250B6120C02A90B7402CC
:104E6400025319E99400C365D03322EA28F8E434E4
:104E740000F9E822E0F51075110078102212530EA3
:104E84008A108B11AC10AD11EC4D2274EA121AAEDB
:104E940074FC121A578A0C8B0D8C128D13EA24059C
:104EA400F50AEB12540B750800750900E50A240293
:104EB400F510E50B3400F5117402121AA285820E66
:104EC40085830F780E121CC1850A82850B83A3A3E8
:104ED400A3A312592B121CC1E50A2405F50EE50BF8
:104EE4003400F50F780E121CC185108285118312CF
:104EF40054111250B0120E7E7406121A6D8A0E8B63
:104F04000FAE0EAF0FE50C2402F50EE50D3400F5DF
:104F14000F80388882898374FFF00508124D1F744E
:104F2400FFF00508900575E0F50C750D00780C127E
:104F34001CC17C767D0585080C748E250C124D39B8
:104F4400121A6D900575E02508F508EE4F60278E5E
:104F5400828F83A3A3A3E0F9850E82850F83125069
:104F6400C0EE2404125923E96027850C82850D8341
:104F74001250A2125428E50870030250881250CA35
:104F8400850E82850F831250B6120C0879000250E8
:104F94009DE4F514F5157814121CC1751475751576
:104FA400057814121CC17514767515057814121C35
:104FB400C17408121AA2121CD87911EEFCEFFD85F7
:104FC4000E82850F83125DCF121A6DE9F509709A6E
:104FD400850882AA82EA9005757009E02404900588
:104FE4008DF08025E0F890058DE0F514E82404FCAC
:104FF400E43400FDEC65147001ED7081124E6F9481
:1050040012124E674003024F81850C82850D83E0A6
:10501400C0E0748E2A124D26D0E0F00508850C827B
:10502400850D83A3E0C0E0124D1FD0E01250E5854A
:10503400820C85830D780C121CC17404121AA212FE
:105044001CD88510828511831250DC121A6D8A0CCB
:105054008B0DAE0CAF0D85080C748E250CF8740501
:105064003400F9EE4F7003024F17851882851983B7
:10507400E0888289831250E5A3E0C0E0124D1FD07E
:10508400E0024F25E509700375090A850A82850B3C
:10509400831250A2125428A9097404024D17125CF9
:1050A4004B851282851383227C8C7D05850A82853B
:1050B4000B831250BA22E0FAA3E0FB221250BA1278
:1050C4000E6CE9F5092290058DE0F5F0E508849071
:1050D400058CF07C8C7D0522124D4F120E8A7404CF
:1050E40022F005088518828519832274EC121AAE01
:1050F40074FE121A578A088B098C0E8D0FEA240548
:10510400FEEB3400FF1252F8EE2418125923EA453C
:105114000B700302519B1252E150291251C08A10A4
:105124008B11EA4511606B7912AC0AAD0B850882CC
:105134008509831250B6851082851183121AACE951
:10514400F50A7058E4F50AF50B780A121CC18E8230
:105154008F83A3A3E0F50A780A121CC1EE2403127C
:105164005408780A121CC18E828F831251CD120FFB
:10517400A47406121A6DE9F50A7021850C82850D56
:1051840083E0701F8508828509831250B6120C0EC5
:105194008011750A0E8009750A018004E50A60030E
:1051A40012541B850C82850D83E060047900800213
:1051B400A90A7402121A6D7F0C021B80851882855D
:1051C40019831250BA120F9222125416FD850882C6
:1051D4008509831250BA2274EE121AAE74FE121AA2
:1051E400578A088B098C0C8D0DEA2405FEEB3400DC
:1051F400FF750E001252F8EA450B70030252BF12FB
:1052040052E1502C1251C08A0E8B0FEA450F604AAE
:105214007912AC0AAD0B8508828509831250B685D4
:105224000E82850F83121AACE9F50E60030252C296
:105234008508828509831254FDAA0AFB1252D37091
:10524400147AFF7BFF1252D3606C88828983E50A4B
:10525400F0A3E50BF0750A008007750E0E805F055C
:105264000A900572E0FAE50AC39A504AE50A75F015
:1052740017A4FAABF088828983A3A3E02AFAA3E0F7
:105284003BFB8A828B83125411EC4D70D2750A1742
:10529400750B00780A121CC1EEFCEFFD1206A47413
:1052A40002121A6DEEFCEFFD850882850983125007
:1052B400B6120C148014750E098003750E01125C6D
:1052C40043850C82850D83125428A90E024E621266
:1052D4000F868A108B11A810A911E84922E5082429
:1052E40002F508E5093400F5098A828B83A3A3A398
:1052F400E0A2E522851882851983AC82AD838E8273
:105304008F8312530E8A0A8B0B22E0FAA3E0FB125E
:105314000E84227404121A6D7F0A021B8074EC122C
:105324001AAE8C108D11EA2405F50CEB1259267572
:105334000F00EA2402F50AEB12540B850A82F58366
:105344001250B6125E5570030253FD750E00807143
:10535400850C82850D83E06401704F8E828F83A358
:10536400A3121CD88E828F83A3A3A3A3E0F5127586
:1053740013007812121CC1EE2405F512EF3400F567
:10538400137812121CC11250B0120FA47406121A10
:105394006DE9F50F6014850C82850D83E4F0125CD1
:1053A400438510828511831254287C177D0079006F
:1053B400EEFAEFFB1206BC8E828F83E4F0A3F005B5
:1053C4000E900572E0F8E50EC398501EE50E75F0D8
:1053D40017A4F8A9F0850882850983A3A3125DBBED
:1053E400125411EC4D6003025354850882850983DD
:1053F40074FFF0A3F0E50F70061250B0120C1AA956
:105404000F0251BBF50AEF3400F50B22A312541618
:10541400FD22E0FCA3E0228E828F83125C4B850E7A
:1054240082850F83E8F0A3E9F022C082C08390054F
:105434006EE06A7003A3E06B70067A6E7B058004ED
:105444007A007B0002477074F7121AAE7F00EF7582
:10545400F003A4F8A9F0EC28F8ED39F988828983DF
:10546400E06A7003A3E06B7006E8FAE9FB800B0FB7
:10547400EFC3940240D87A007B007F01021B807442
:10548400F6121AAE125A3470067A007B008007A313
:10549400A3A3A31250B6025AF574F2121AAEE9FE8F
:1054A400740E121AA21254FD7410121AA212596523
:1054B4008C828D83E06402703BA3125C47888289EE
:1054C40083E0F50CA3E0F9A80C7402687003742956
:1054D400697021750C02750D00780C121CC17808D6
:1054E400121CC1780A121CC1EEF9120FC8740612FC
:1054F4001A6D80027901025B65E0F50AA3E0F50B01
:105504002274E8121AAE74FB121A57E985188285C0
:105514001983F08A168B178C0E8D0F741F121AA222
:105524001259657421121AA21254FD7423121AA27C
:1055340012594F7510008C828D83A3A3A3E0A2E4BB
:10554400502A741D121AA21251C68A828B83E582D4
:1055540045837003025611790AAC0EAD0FAA16AB3F
:1055640017121AACE9F5106003025614850E8285F1
:105574000F83E0640260030258CAA3125C478508E3
:1055840082850983A3858212858313E50E2406F59B
:105594000CE50F12592688828983E0FAA3E0F9EA20
:1055A4002400F514E439F5157814121D4B0100009C
:1055B400280128D95507000228B056032820560090
:1055C40029DA57012902580229A9570329DA57046D
:1055D400296B58CA58EE4F703E850C82850D831294
:1055E4005940FAE9FB8A828B83E0850A82850B8322
:1055F40012597C121CC18A828B83A3125416FDAAF1
:1056040008AB091206A47402121A6D800375100EF9
:10561400A9107405025DA975100B80F4EE4F70F7A4
:10562400850A82850B837401F01259558508828599
:105634000983F07C007D00850E82850F83A3A3A3DC
:10564400A3E02401FAA3E03400FB120E84EA4B60C9
:10565400418A828B83E02402F8850A82850B83E0E9
:1056640028F0EA2404F8EB3400F988828983E08581
:10567400128285138312598E12597C121CC18A829C
:105684008B83125410E5082403FAE5093400FB0265
:105694005607850A82850B83E02404F07C047D0090
:1056A4007900AA12AB131206BC025614EE4F600323
:1056B40002561B125955FEA3E0FF850A82850B830F
:1056C4007404F0EE850882850983F0EF85128285E3
:1056D4001383F07403121AA2AC82AD83EEFAEFFBCB
:1056E400125A2270030257868A828B83A3A312590B
:1056F4004B7401121AA285820E85830F780E121C38
:10570400C17405121AA2121CD87CFF7DFF120E8AE6
:105714007404121A6D8B0FEA450F7033850C828561
:105724000D8312592B121CC1850C82850D83A31283
:105734001CD87C027D007ACC7B83120CB6740412D4
:105744001A6DE9700A7401121AA274FFF0A3F08EA4
:10575400828F83E064027034750C02750D00780C3E
:10576400121CC18E828F83125410E5082404FAE5BA
:1057740009124D3C121A6D850A82850B83E02402BE
:1057840080097401121AA2EEF0A3EFF07401121A48
:10579400A212593CF07401121AA2A3125934A3A301
:1057A400A3F0025614EE4F600302561B850C82854B
:1057B4000D83125411AA16AB17120FBC850A8285E9
:1057C4000B837402F0EA850882850983F0851282CE
:1057D400851383EB80CBEE4F600302561B125955A1
:1057E400F8A3E0F9850A82850B837402F0E8850842
:1057F40082850983F0E985128285138380A3850C51
:1058040082850D831250B612069EEAFC8C82A88211
:10581400C39EE49F404BE86E7001EF70047C0080EF
:105824001F851882851983E0FAEE2AFAEF3400FB0B
:10583400C3EA98EB94005003E08004EECCC39CFCD4
:10584400EC850A82850B83F08C0A750B00780A12AA
:105854001CC1850C82850D83E02EFCA3E03F02561B
:1058640002751007025614EE4F600302561B850C96
:1058740082850D83125C47850A82850B837407F049
:105884008882898312593412591CE0851282851347
:1058940083F0E82402FAE93400FB8A828B831259EC
:1058A4003412596D12593CA3125976125945F0E835
:1058B4002405F8E93400F988828983125945A31232
:1058C400598EA30257A2741D121AA2125A2D7003E4
:1058D400025611125C47880C890DE8450D700302CD
:1058E40056118E108F117810121CC1780A121CC127
:1058F4007808121CC17406121AA2E0F9AC0EAD0F9E
:10590400AA16AB17850C82850D83121AAC74061285
:105914001A6DE9F510025614F088828983A322F5E2
:105924000CEF3400F50D22E0F50E750F00780E2211
:10593400E08508828509832212599522125C4BE87E
:1059440022125995A3A322A3A3A3A3E0FEA3E0FFDD
:1059540022850C82850D83E0F8A3E0F5838882E03C
:1059640022E0F508A3E0F50922A3A3F08A828B8341
:10597400A322124628A3A322F08A828B831259857C
:1059840022E0F50A750B00780A2212591C12599567
:1059940022E0850882850983A3A32274EE121AAE3D
:1059A40074FE121A578A0A8B0BECFAEDFB7414126C
:1059B4001AA2E0F510A3E0F5117416121AA2E0FE83
:1059C4007418121AA2E0F50EA3E0F50F851882856B
:1059D4001983AC82AD83125A22603E8518828519E0
:1059E40083125A2D602FA3A3125965E50845096057
:1059F40024780E121CC17810121CC1EEF9AC0CAD47
:105A04000DAA0AAB0B850882850983121AAC7404AB
:105A1400121A6D8006790E80027901024E62120E0E
:105A2400848A0C8B0DEA450D221250BA125A342284
:105A3400120F508A828B83E58245832274F6121AF0
:105A4400AE74FE121A57740C121AA2125940851819
:105A540082851983F07401121AA2E9F0E4F508F5BD
:105A6400097808121CC17508027808121CC1740454
:105A7400121AA28582088583097808121CC1120FA4
:105A8400A47406121A6D7402121A6D806474F712EB
:105A94001AAEEAFEEBFF89087CA57D05120FBCEA6D
:105AA4005402600BA908EEFAEFFB120E788002791B
:105AB4000102547E74F6121AAE74FF6A700374FF06
:105AC4006B701C7B00EB75F003A4F8A9F0EC28F8CC
:105AD400ED39F9125AFA0BEBC39402501480E61212
:105AE4000F8C8A088B09A808A909E8496003125A8F
:105AF400FA7F02021B808882898374FF124626E49F
:105B0400F02274F6121AAE120F8C8A828B83E5820D
:105B140045836006A3A3E0FA80027A007B0080D16B
:105B240074F2121AAE8A088B09ECFEEDFF740E12A1
