:020000040000FA
:0600000002011D02226F47
:03002B00021E9022
:03003300021E7139
:030053000222E2A4
:03006B00021E1C56
:03007B00021E4220
:10008300022123E5C754F84401F5C7790122000092
:100093000080FB120086B90003020107E47921788E
:1000A30008B800028004F709D8FCE479297802B87B
:1000B30000028004F709D8FCE4900281786879088B
:1000C3008002F0A3D8FCD9FA781A90014D7A01BACC
:1000D30000028007E493A3F608DAF99009E8AA82FC
:1000E300AB8390014E786B79068015E493A3AC82C1
:1000F300AD838A828B83F0A3AA82AB838C828D83A8
:10010300D8E9D9E77582577583DC740312012F751B
:100113008291758300740012012F75D00075813FA1
:10012300751881751902759F00020096C09FF59F8F
:10013300E473D09F22D083D082C09FE493C0E07445
:100143000193C0E0740293F59F2201FFFF0A094265
:10015300656453656E736F72051250002003020AC3
:10016300000201054E6F637475726E65204265640B
:100173002053656E736F7200D007E803E80302082B
:10018300000012416363656C2E2044617461000AB0
:10019300416363656C2E20436F6E662E000A4163D4
:1001A300632E20506572696F640002AA8301000008
:1001B300788302A6830100001F0A10158101000045
:1001C300B30202A283030000B60202A4830100006B
:1001D300200A02A6830100002C0A102581030000D7
:1001E300BC0202A4830100002D0A02A683010000C1
:1001F3003A0A103581030000BD0202A48301000006
:100203003B0A124261726F6D6574657220446174BA
:100213006100024261726F6D657465722043616CA7
:10022300692E000A4261726F6D6574657220436FB7
:100233006E662E0002AA830100007B8302A683015F
:1002430000009F0A104582010000BE0202A2830340
:100253000000C20202A483010000A00A02A68301D7
:100263000000C00A108581030000DE0202A483019E
:100273000000C10A02A683010000AF0A10758101C4
:100283000000C80202A283030000D80202A4830173
:100293000000B00A0242656420446174610002AA4E
:1002A300830100008D8302A683010000310B10B58A
:1002B30081010000DF0202A483010000320B02026D
:1002C30002020202020202010D000000100102AA52
:1002D30083010000908302A6830100005B0B02C22E
:1002E30083010000E60202A6830100005C0B02C04A
:1002F30083010000B08202A6830100005D0B02BEF1
:1003030083010000BF8202A6830100005F0B02BCD1
:1003130083010000818002A683010000600B02BA02
:1003230083010000B58202A6830100005E0B02B8C0
:1003330083010000BA8202A683010000610B02B6AA
:1003430083010000938002A683010000620B02B4C4
:1003530083010000758202A683010000630B02B2D1
:1003630083010000640B01E803053F101247797213
:100373006F2E2044617461000A4779726F2E204307
:100383006F6E662E0002AA83010000878302A68394
:10039300010000090C10F5810100009A0302A283F9
:1003A300030000A00302A4830100000A0C02A68339
:1003B300010000150C10D581030000A60302A483DD
:1003C300010000160C038000008070006180124859
:1003D300756D69642E2044617461000A48756D6906
:1003E300642E20436F6E662E0002AA8301000084F0
:1003F3008302A6830100006B0C10F5800100002D21
:100403000402A283030000310402A4830100006CF0
:100413000C02A683010000780C10E580030000376E
:100423000402A483010000790C1249522054656D23
:10043300702E2044617461000A49522054656D7026
:100443002E20436F6E662E0002AA83010000818373
:1004530002A683010000C60C10B580010000380419
:1004630002A2830300003C0402A483010000C70C22
:1004730002A683010000D50C10A5800300004204EE
:1004830002A483010000D60C124D61672E20446143
:100493007461000A4D61672E20436F6E662E000A59
:1004A3004D61672E20506572696F640002AA830153
:1004B3000000938302A683010000250D10558101DE
:1004C3000000430402A283030000490402A4830141
:1004D3000000260D02A683010000300D10258203C3
:1004E30000004F0402A483010000310D02A6830122
:1004F30000003C0D103582030000500402A4830168
:1005030000003D0DFF0001307503020106000000ED
:1005130000000000000000000000000000000000D8
:10052300000000000000000000FFFF0600800CE850
:1005330003104B6579205072657373205374617493
:10054300650002AA830100007E8302A683010000E6
:10055300CE0D02C883000000FE0402A28303000044
:10056300FF0402A483010000CF0D025465737420BD
:1005730044617461000A5465737420436F6E666945
:10058300670002AA830100008A8302A68301000098
:10059300070E10D580030000050502A483010000A7
:1005A300080E02A683010000120E10C5810300008D
:1005B3000D0502A483010000130EFF0000B4000028
:1005C30028002800283075A000A000A000A000008B
:1005D300080008E001F000100010001000100010E7
:1005E30000100050005000500010001000D0070011
:1005F30000000000000F00307507001000010081AB
:10060300FF0000FFF00D0E0EF60DFF02020A0A02B4
:100613005000A0000000E80302AA830100009683B3
:1006230002A683010000A80E02A0830100003F057B
:1006330002A683010000A90E029C83010000550558
:1006430002A683010000AA0E029E83030000570541
:1006530002A683010000AB0E02A883030000580525
:1006630002A683010000AC0E02B083010000AD0EB0
:10067300FF0100FF2002AA83010000998302A683E1
:10068300010000110F02C683000000000002A283D4
:10069300030000A505CC13CC13CC13CC13CC13CC83
:1006A30013CC13CC13CC13CC13CC13CC13CC135AC1
:1006B3001672165416120138A0E002120138B5E082
:1006C300021201380DE10212013874E102120138FD
:1006D300BCE10212013832E20212013861E2021275
:1006E30001386FE202120138D3E20212013811E33A
:1006F300021201382CE302120138C4E3021201385A
:100703006BE402120138ECE40212013823E5021211
:100713000138ACE50212013801E6021201385EE647
:100723000212013870E60212013896E6021201380D
:100733009FE602120138F8E702120138B9CF03121B
:10074300013898D003120138ABB403120138F0B466
:100753000312013834B503120138C5B60312013848
:10076300247F001201383F7F001201384F7F0012AF
:100773000138A67F0012013830D7031201380080F8
:100783000312013817800312013811810312013853
:100793005D81031201387D8103120138CE8103127A
:1007A30001383982031201387D8203120138DB825A
:1007B300031201388385031201380C8603120138B2
:1007C30077CE03120138A7CE03120138D7CE031216
:1007D3000138F7CE0312013851CF031201385E9B63
:1007E30002120138A89D02120138D4A10212013865
:1007F30006A20212013831A20212013837A30212F3
:100803000138D6A302120138B4A402120138EBA4B2
:100813000212013822A50212013859A50212013829
:1008230090A502120138C7A502120138FEA50212D3
:10083300013835A6021201380CA7021201381BD564
:10084300031201383BD3031201388EBF0312013860
:10085300D6BF0312013859C00312013836C103123F
:1008630001381D86031201384286031201387D8642
:100873000312013847DA03120138742900120138D0
:10088300E72B00120138A72D00120138522E001257
:100893000138F62E001201388F2F00120138BE2FB7
:1008A300001201381F3500120138CA350012013811
:1008B3003A3700120138A2370012013856380012B5
:1008C3000138D63900120138153A00120138893A35
:1008D30000120138E83A00120138473B0012013890
:1008E300B63B00120138A93C00120138EF3C00125C
:1008F3000138343D00120138573D00120138A73E3C
:1009030000120138BA3E001201382C3F00120138A0
:10091300633F001201388F3F00120138E23F00129B
:100923000138034000120138474000120138994250
:1009330000120138DA4200120138854300120138EF
:10094300F0430012013871D803120138DFC40312D7
:100953000138BDC5031201386EC60312013820C821
:100963000312013859C80312013877C8031201383A
:1009730000C903120138AAC9031201385ADB031252
:10098300013863DB03120138C5FF02120138F4D0CA
:100993000312013804D10312013818D103120138AC
:1009A30020D2031201381BAF03120138BEAF03126A
:1009B3000138DAB1031201388FBB0312013804BCCA
:1009C300031201387CBC0312013803BD0312013842
:1009D30013BD0312013854BD0312013897BD03122E
:1009E3000138BCC903120138F6C90312013869CAB8
:1009F30003120138A3CA03120138E8CA03120138EB
:100A0300FACA0312013831CB0312013880C603122C
:100A13000138CFC60312013801C70312013892C748
:100A2300031201380EC80312013880FC0212013888
:100A3300A9FC02120138D2FC0212013892FD021203
:100A43000138E3FD02120138B3FF02120138EACC88
:100A5300031201381DCD0312013899CD0312013859
:100A6300B9CD031201381ECE0312013866CE03122C
:100A7300013869CE03120138AE9403120138C794CA
:100A8300031201385C95031201383F9603120138B3
:100A9300B99803120138F9980312013837990312F0
:100AA30001385DB903120138ACB903120138D8B962
:100AB30003120138F8B90312013885BA0312013859
:100AC3007DBB0312013855CB03120138A6CB0312A9
:100AD300013830CC03120138BDCC03120138F87F42
:100AE30000120138F5B103120138F5B303120138CE
:100AF30061B403120138A8B403120138D3D7031227
:100B03000138ABD903120138D3D503120138A9BD7B
:100B13000312013808BE03120138B6BE03120138AE
:100B230035BF03120138FBA8031201382DA90312A4
:100B3300013835AA031201385AAB03120138F8CB36
:100B430002120138EACC021201382DCD021201380B
:100B530067CD02120138DCCD021201383DCE0212FC
:100B63000138BACE0212013896CF02120138A1D051
:100B73000212013822D102120138C9D202120138FD
:100B83005FD302120138D2D3021201384ED40212BB
:100B9300013865D4021201389CD502120138F6D50A
:100BA30002120138C5AD011201387BB201120138BE
:100BB30040B50112013869B50112013890B501122F
:100BC300013838B60112013827B8011201381DB9AE
:100BD3000112013870BE01120138A9BE0112013899
:100BE300CEDC0312013886D6031201380FD9031263
:100BF30001382CC30312013843C30312013872C3F3
:100C030003120138ABC303120138D3C303120138F3
:100C130001C40312013818C4031201382FC403128C
:100C2300013845C4031201386CC4031201387FC470
:100C33000312013895C403120138A8C40312013802
:100C4300CDC40312013862D60212013861D70212F1
:100C5300013896D702120138B7D702120138C7D725
:100C630002120138E8D702120138F4D8021201380F
:100C7300C1D90212013834DA02120138BADA021287
:100C83000138FDDA0212013834DB02120138BADB13
:100C9300021201388CDC02120138EADC021201383C
:100CA30002DD021201387CDD021201387FDD0212FF
:100CB300013882DD0212013829DE0212013841DED9
:100CC3000212013871DE0212013891DE021201387C
:100CD3007FDF0212013835E0021201380690031259
:100CE30001382E90031201385C900312013893905F
:100CF30003120138FB9003120138449103120138A7
:100D03008F9103120138CD91031201380A92031215
:100D13000138389203120138DF9203120138E99245
:100D230003120138F6920312013829930312013892
:100D3300EB9303120138F793031201380F94031254
:100D4300013819940312013844D40312013852D4E0
:100D5300031201386AD40312013882D40312013812
:100D63003CD001120138DAD00112013852D10112FC
:100D7300013867D201120138A1D2011201384AD3D6
:100D8300011201381FD40112013883D50112013831
:100D9300DAD50112013861D60112013848D70112A0
:100DA300013895D70112013823D80112013847D8E9
:100DB300011201381CDA011201385DDA011201381F
:100DC3007FDA0112013800DB01120138EADB01127C
:100DD3000138B0DC011201384CEF021201381EF069
:100DE30002120138C7F0021201380AF10212013867
:100DF30097F10212013823F20212013804F30212AE
:100E0300013833F3021201382FF40212013877F458
:100E13000212013879F502120138BDF502120138C8
:100E2300E3F502120138D1DA031201388DA103125E
:100E33000138A3A103120138C9A103120138F1A299
:100E430003120138FBA20312013854A40312013820
:100E530054A503120138138B03120138208C03129B
:100E63000138548C03120138968C03120138508ECA
:100E730003120138DFC00112013842C101120138E7
:100E830087C20112013897C201120138BAC2011296
:100E9300013805C301120138AAC301120138A0C4E5
:100EA300011201386AC501120138E2C60112013884
:100EB30024C701120138C2C7011201380FC8011239
:100EC300013835C80112013823CA0112013828CA72
:100ED3000112013809CC011201385DCC011201382D
:100EE300BFCC01120138E7CC011201388BCD0112BE
:100EF30001384DCE011201387ECE0112013881CE68
:100F030001120138C9CE011201380BCF0112013889
:100F130072CF0112013807B7031201381AB703124F
:100F2300013833B7031201387EB70312013859B8B9
:100F330003120138E8B80312013833B90312013838
:100F430004450012013810450012013849450012CA
:100F530001388E4500120138454600120138CB4650
:100F6300001201383047001201385C470012013883
:100F7300954700120138A94900120138854B001228
:100F83000138704D00120138A74E00120138075185
:100F930000120138F351001201383953001201389D
:100FA3004654001201386354001201389B54001256
:100FB3000138B554001201381D5500120138B759D4
:100FC30000120138585A00120138A95A0012013888
:100FD300D05A001201381E5B001201383C5B00122C
:100FE3000138905B00120138695C00120138F05D32
:100FF30000120138785E0012013858F602120138E7
:1010030062F6021201382DF70212013871F702124B
:10101300013897F702120138E3F7021201381BF87F
:101023000212013844F80212013881F90212013820
:10103300AEF902120138DBF90212013826FA021264
:10104300013841FA021201388CFA02120138C6FA49
:101053000212013800FB0212013855FB021201385B
:10106300C0FB0212013809FC0212013833FC0212E0
:10107300013858FC02120138A19D031201386B9EFE
:10108300031201384E9F03120138C49F0312013823
:1010930006A00312013833A103120138E7A7021295
:1010A300013810A80212013829A8021201386EA9CA
:1010B300021201384CAA021201386BAA021201383B
:1010C300F8AA021201383BAB0212013888AC0212B3
:1010D300013827AD02120138A6AF021201383DB024
:1010E3000212013811B102120138F3B102120138B0
:1010F3005FB302120138F2B30212013826D203128F
:1011030001388FD203120138E3D2031201380AD314
:10111300031201385DFB01120138CAFB01120138C9
:1011230015FC011201380AFD0112013806FE0112F5
:101133000138F0FE01120138B67600120138F87654
:1011430000120138D27700120138AB78001201384F
:10115300A67900120138857A00120138F17A00125B
:101163000138B87B00120138237C001201388A7CD5
:1011730000120138B57C00120138267D00120138B7
:10118300B97D00120138227E00120138377E001229
:1011930001387F7E00120138987E00120138FD7EEF
:1011A30000120138007F0012013821AC031201380C
:1011B30049AC0312013887AC0312013845AD031261
:1011C3000138B0AD03120138CCAD03120138F4ADD0
:1011D3000312013824AE0312013833AE031201386F
:1011E300ADAE03120138D3AE0312013863ED011221
:1011F300013840EF011201383BF1011201380EF2C0
:101203000112013859F201120138A4F20112013816
:10121300C2F20112013804F3011201381FF3011263
:1012230001386BF301120138A5F301120138C8F339
:101233000112013815F40112013888F40112013842
:101243009AF60112013844F80112013894F8011298
:101253000138F9F9011201384FFA01120138BDFAC8
:101263000112013808FB0112013832FB0112013867
:1012730069B40212013894B4021201387BBB021222
:1012830001389FBD021201385ABF02120138B7C09C
:1012930002120138DF5E00120138765F0012013856
:1012A300A35F00120138E95F0012013828610012C0
:1012B3000138BF62001201381463001201388963D8
:1012C30000120138B86400120138136600120138A5
:1012D3001567001201387268001201388B6800121A
:1012E3000138E86800120138CA6900120138FD6943
:1012F300001201386D6A00120138E76A00120138E2
:10130300366B00120138026C00120138076D0012AF
:101313000138E66D00120138716E00120138DF6E7C
:1013230000120138536F001201387C6F001201382C
:101333003B7000120138B57100120138D2710012EE
:101343000138F17100120138827200120138A7725C
:1013530000120138CF72001201384A7300120138AB
:10136300A47300120138F87400120138B575001225
:10137300013888760012013800800212013850804B
:10138300021201385C8002120138398102120138DD
:10139300698102120138A1810212013820820212EE
:1013A3000138588202120138AA8202120138E782F8
:1013B300021201380C8502120138388702120138F3
:1013C3003389021201380E8B02120138F07F0012AA
:1013D3000138149A011201385E9A011201383DA0B6
:1013E30001120138BEA1011201381DA801120138F2
:1013F30018A90112013855A90112013878A901125F
:101403000138BAA901120138C3A901120138CDA9C3
:1014130001120138B9AA01120138ADAB011201382A
:10142300CF8301120138478E011201384D8E01120C
:1014330001385995011201385EA503120138F4A54C
:10144300031201380AA60312013884A603120138D5
:10145300DAA60312013818A70312013875A703127D
:101463000138F2A703120138FBA70312013807A8BA
:10147300031201381AA80312013856A803120138BF
:101483006CA803120138CBA8031201385599031233
:1014930001386299031201387C9903120138BB9910
:1014A30003120138F999031201385E9A03120138C5
:1014B300739A031201387E9A031201388B9A03122E
:1014C3000138A29A03120138B09A03120138BB9A69
:1014D30003120138C79A03120138D69A031201384E
:1014E300E19A03120138049B03120138AD9B0312E6
:1014F3000138BD9B03120138D79B03120138F49BBB
:1015030003120138109C03120138359C0312013871
:101513003F9C03120138539C03120138729C03123F
:101523000138D39C03120138D99C03120138DF9C84
:1015330003120138E59C03120138F19C03120138B0
:10154300249D03120138D48D02120138568E0212E3
:101553000138FF8E0212013847900212013855926A
:10156300021201383B9302120138709302120138C0
:101573009293021201383B94021201380B96021225
:101583000138349602120138AC9602120138DE9605
:1015930002120138EB960212013836970212013813
:1015A3005A9702120138AB9902120138B59A021206
:1015B3000138119B02120138E5DE01120138F6DF12
:1015C30001120138DAE001120138E4E001120138B6
:1015D30006E10112013812E101120138B6E20112EB
:1015E3000138E3E201120138F9E3011201384EE454
:1015F300011201389DE50112013872E6011201382A
:10160300CEE60112013839E7011201386EE7011203
:101613000138B1E7011201387BEA0112013893EA7C
:101623000112013824EB0112013832EB01120138A7
:101633007FEB011201388DEB01120138F9EB011236
:10164300013874EC01120138CBEC01120138DAC015
:1016530002120138FCC0021201380DC30212013814
:10166300CCC502120138F6C602120138B4C7021201
:101673000138A0C80212013873C10312013898C19E
:10168300031201380EC2031201382FE80212013887
:1016930038E80212013841E80212013819E902124E
:1016A3000138CAEA02120138FAEA0212013825EBBC
:1016B3000212013855EB0212013880EB0212013895
:1016C300B4EB02120138E0EB0212013823EC0212F0
:1016D30001384EEC0212013895EC02120138EAECA3
:1016E300021201382CED0212013886ED0212013884
:1016F300B1ED0212013800EE0212013830EE02128F
:1017030001385BEE0212013889EE02120138ACEEA9
:1017130002120138DADB0312013806DC0312013846
:1017230033DC031201383DDC031201384DDC0312B4
:101733000138B2FF01120138DFFF01E066701008C3
:10174300A3E066700A08A3E066700408A3E06622BB
:10175300C3E7960809E7960809E7960809E796227A
:10176300C3E09608A3E09608A3E09608A3E09622B8
:10177300C008C3E096F50808A3E096420808A3E072
:1017830096420808A3E09645087001D3D0082208C2
:101793000808EAC0E0EBC0E086F0E7A4FA1809867F
:1017A300F0E7A42AFA180986F0E7A42AFA180986AA
:1017B300F0E7A42AFA1986F0E7A4FBE5F02AFA1960
:1017C3000886F0E7A42BFBE5F03AFA190886F0E760
:1017D300A42BFBE5F03AFA18180986F0E7A4C5F044
:1017E3002BFBE43AFA1908E7C5F0C6A426F6E5F0A0
:1017F3003BFBE43AFA1886F0E7A4F6E5F00826F690
:10180300E43B08F6E43A08F6D0E0FBD0E0FA22E441
:10181300CFC0E0E4CEC0E0E4CDC0E0E4CCC0E075EE
:10182300F020C3E633F608E633F608E633F608E6B7
:1018330033F6181818EC33FCED33FDEE33FEEF33BB
:10184300FFC3EC9709ED9709EE9709EF971919195B
:10185300400FFFEC97FC09ED97FD09EE97FE191970
:1018630006D5F0BEECF709EDF709EEF709EFF71926
:101873001919D0E0FCD0E0FDD0E0FED0E0FF2260FB
:1018830016080808C6C313C618C613C618C613C657
:1018930018C613C6D5E0EA227009080808226016A4
:1018A300181818C6C333C608C633C608C633C608D5
:1018B300C633C6D5E0EA22E627F60809E637F60876
:1018C30009E637F60809E637F622E026F608A3E02C
:1018D30036F608A3E036F608A3E036F622E026F053
:1018E30008A3E036F008A3E036F008A3E036F022C0
:1018F300C3E697F60809E697F60809E697F6080996
:10190300E697F622C3E096F008A3E096F008A3E07A
:1019130096F008A3E096F022E056F608A3E056F608
:1019230008A3E056F608A3E056F622E056F008A313
:10193300E056F008A3E056F008A3E056F022E0F6E4
:1019430008A3E0F608A3E0F608A3E0F622E6F00811
:10195300A3E6F008A3E6F008A3E6F022E0FAA3E08A
:10196300FBA3E0FCA3E0FD22EAF0A3EBF0A3ECF081
:10197300A3EDF022CAC0E0E6F0A308DAFAD0E0FA59
:1019830022CAC0E0E0A3C582CCC582C583CDC5838E
:10199300F0A3C582CCC582C583CDC583DAE6D0E08A
:1019A300CA22C3E498F8E499F91219E68026C3E43D
:1019B3009AFAE49BFBE920E7E91219E6E498F8E4D4
:1019C30099F922C3E498F8E499F91219E6E498F82E
:1019D300E499F9C3E49AFAE49BFB22EB20E7CFE90D
:1019E30020E7E0B90010BB0008E88AF084F8AAF009
:1019F30022E4FBC8FA22EB70227B10C833C8C93338
:101A0300C9335007C39AC3DBF280069A50012ADB1D
:101A1300EAC833F4C8C933F4C9FA2275F008E4C834
:101A230033C8C933C933C99AC99B5004C92AC93BAE
:101A3300D5F0ECFBC833F4C8E4C9FA22600D08C63C
:101A4300A2E713C618C613C6D5E0F322600C08C676
:101A5300C313C618C613C6D5E0F422700422600D62
:101A630018C6C333C608C633C6D5E0F418222518F2
:101A730010AF08F518400215198008F51840021533
:101A830019D2AF22C0D0251810AF08F5185002059F
:101A9300198008F51850020519D2AFD0D0222518A5
:101AA300F58210AF08F518400215198008F51840A3
:101AB300021519D2AF851983222518F582E4351949
:101AC300F58322E4732518C582C0E0E51934FFC508
:101AD30083C0E0E518C3958224F810AF0885831905
:101AE3008582188008858319858218D2AFCEF0A32A
:101AF300E520F0A37808E608F0A3DEFAEFF0A3E50B
:101B03008124FAF8E608F0A3E608F0A3E608F0A3B8
:101B13000808E608F0A3E608F0A315811581D0E0D4
:101B2300FED0E0F8158115811581E8C0E0EEC0E034
:101B3300222518C582C0E0E51934FFC583C0E0E55E
:101B430018C3958224F910AF0885831985821880FC
:101B530008858319858218D2AFCEF0A3E520F0A3C0
:101B63007808E608F0A3DEFAEFF0A3E58124FBF89A
:101B7300E608F0A3E608F0A30808E608F0A3E608E1
:101B8300F0A315811581D0E0FED0E0F81581158111
:101B9300E8C0E0EEC0E022851983851882E0A3FE49
:101BA300E0A3F5207808E0A3F608DFFAE0A3FFE05E
:101BB300A3C0E0E0A3C0E0E0A3C0E0E0A3C0E0E096
:101BC300A3C0E010AF088582188583198008858239
:101BD30018858319D2AFD083D0820201358519834A
:101BE300851882E0A3FEE0A3F5207808E0A3F608B9
:101BF300DFFAE0A3FFE0A3C0E0E0A3C0E0E0A3C0FE
:101C0300E0E0A3C0E010AF0885821885831980083F
:101C1300858218858319D2AFD083D08222C0D02584
:101C230018C582C0E0E51934FFC583C0E0E518C3D9
:101C3300958224F310AF088583198582188008855F
:101C43008319858218D2AFC8F0A3E9F0A3EAF0A301
:101C5300EBF0A37908E709F0A3D8FAECF0A3EDF0D1
:101C6300A3EEF0A3EFF0A3D0E0F0A3D0E0F0A3D075
:101C7300E0F0A3E520F0A3E5F0F0A3228519838526
:101C83001882E0C0E0A3E0F9A3E0FAA3E0FBA378A5
:101C930008E0F608A3DFFAE0FCA3E0FDA3E0FEA35F
:101CA300E0FFA3E0C0E0A3E0C0E0A3E0F5D0A3E041
:101CB300F520A3E0A3F5F010AF08858319858218FA
:101CC3008008858319858218D2AFD082D083D0E073
:101CD300F8D0E03274048006740280027401C0E01C
:101CE300F404121AA1D0E012197722740480047448
:101CF300028000CCC0E0EDC0E0E518C39CCCAD1978
:101D030050011D10AF068C188D1980068C188D1983
:101D1300D2AF121984D0E0FDD0E0FC22D083D08270
:101D2300E9C0E0E493A3C386F0C5F095F0F908E4B5
:101D330093A386F0C5F095F0700BE493A3C3994089
:101D430005E9048002A3E475F002A42582F582E587
:101D5300F03583F583D0E0F9E493A3C0E0E493C0C6
:101D6300E022D083D082ECC0E0EDC0E0E493A3FC9A
:101D7300E493A3FDED4C600D121DB1EC24FFFCEDCB
:101D830034FFFD80EFE493A3FCE493A3FDED4C60EB
:101D93000D121DF0EC24FFFCED34FFFD80EFD0E0CD
:101DA300FDD0E0FCE493A3C0E0E493C0E022C0E0F4
:101DB300C3E49396087401939618400FE4936670F6
:101DC3000808740193661870007019A3A3C3E49301
:101DD30096087401939618A3A3400DD0E0D0E0D0E9
:101DE300E0021DA1A3A3A3A3A3A3D0E022C0E0C04C
:101DF300F088F0E493667008087401936618700025
:101E0300A8F0A3A3700BD0F0D0E0D0E0D0E0021D87
:081E1300A1A3A3D0F0D0E0224E
:101E1C00C0E074F2121C20A2AFE433FED2AFE5890D
:101E2C00A2E05003120A66758900C2C5EEA2E092C8
:101E3C00AF7F01021C7FC0E074F2121C20A2AFE441
:101E4C0033FED2AFE58AA2E64006E58AA2E750034C
:101E5C00120A66758A00758A00C2EBEEA2E092AF98
:101E6C007F01021C7FC0E0C0D0E8C0E0A2AFE43329
:101E7C00F8D2AF758B00C2E8A2E092AFD0E0F8D0F8
:101E8C00D0D0E032C0E0C0D0E8C0E0A2AFE433F87C
:101E9C00D2AFC2C7751A00A2E092AFD0E0F8D0D092
:101EAC00D0E03274F5121B34EAFEEBFFEE2434F86A
:101EBC00EF3400F988088909EE2435F582EF3400F7
:101ECC00F583E0F8EE2437F582EF3400F583E0F586
:101EDC000AEC850AF0A4FCAAF0850AF0EDA42AFD10
:101EEC00E82CF8E43DF97A257B001219E6EA85081E
:101EFC0082850983F05407F87401B800028004C38A
:101F0C0033D8FCC0E0E0131313541FF8EE28F8EF9D
:101F1C003400F9E8245DF582E93400F583D0E0F86B
:101F2C00E0586008EE2434F582EF801EEE2436F57E
:101F3C0082EF3400F583E0F5F0EA84A8F0EE28F89F
:101F4C00EF3400F9E82438F582E93400F583E0F940
:101F5C007F04021BE074F5121B34EAFEEBFFEE2447
:101F6C0034F582EF3400F583E0C0E0EE2435F582E1
:101F7C00EF3400F583D0E0F08E828F83A3A3A3A36C
:101F8C00A3A3A3C082C0838E828F83A3A3A3A3A386
:101F9C00E0F8A3E0F9D083D082E0C398F508A3E081
:101FAC0099F509EE2480F582EF3400F583E06401A5
:101FBC007069EE2481F582EF3400F583E0F8A3E03C
:101FCC00F98E828F83A3A3A3A3A3A3A3E0FCA3E016
:101FDC00FD8E828F83A3A3A3A3A3E0FAA3E0FBC38C
:101FEC00EA9CEB9D5027C3EC98ED99402EC3EA98E0
:101FFC00EB9950277C8A7D07EEFAEFFB12132AEE41
:10200C002480F582EF3400F583E4F0800EC3EA9867
:10201C00EB9940E0C3EC98ED9950D9EE2434F8EFED
:10202C003400F9E8FCE9FDEE2435F582EF3400F5D7
:10203C0083E0F8EE2437F582EF3400F583E0F50AFF
:10204C00E508850AF0A4F508AAF0850AF0E509A4CC
:10205C002AF509E82508F8E43509F97A257B0012F8
:10206C0019E6EA8C828D83F05407F87401B80002EB
:10207C008004C333D8FCC0E0E0131313541FF8EEF4
:10208C0028F8EF3400F9E8245DF582E93400F58393
:10209C00D0E0F8E0586008EE2434F582EF801EEEB4
:1020AC002436F582EF3400F583E0F5F0EA84A8F0ED
:1020BC00EE28F8EF3400F9E82438F582E93400F51D
:1020CC0083E0F912295D021F5CC082C083851882EF
:1020DC00851983E0F8A3E0F9C3EA9CEB9D5012C389
:1020EC00EC98ED994019C3EA98EB9950127901805C
:1020FC0010C3EA98EB9940F5C3EC98ED9950EE7942
:10210C0000D083D08222EAC39CFAEB9DFB22000014
:10211C008521878522C622C0E0C0D0E8C0E0E9C096
:10212C00E0EAC0E0EBC0E0ECC0E0EDC0E0C008C00D
:10213C0009C00AC00BC082C083C0F0759B009061BF
:10214C0082E0A2E64003022201E591A2E6400302EE
:10215C0022017591BF90064FE0640570081214625D
:10216C0012146E80031214687521001214C8E990C1
:10217C000650F079001214BC1212A67A017B009062
:10218C00064EE0F9120712907803E06442600302F5
:10219C00224A9007ECE014F0600302224AC2AF120C
:1021AC0021AE00782AD0E0F618D0E0F6E59F54076F
:1021BC00F9700590831C8003908364780812194190
:1021CC00E9C4C0E07829E65508F50808E65509F594
:1021DC0009740B7808121A4FD0E02508F890627039
:1021EC00E0A2E740F8E8C333906272F0906270E0CE
:1021FC00D2E0F08049E0A2E55024E591A2E5501E22
:10220C007591DF90064FE0640D7013900671E00439
:10221C00F064287002E4F07A00E0F912153A90614B
:10222C0081E0A2E35009E5E9A2E3500375E9F7A3C5
:10223C00E0A2E75009E591A2E7500375917FD0F039
:10224C00D083D082D00BD00AD009D008D0E0FDD0FA
:10225C00E0FCD0E0FBD0E0FAD0E0F9D0E0F8D0D050
:10226C00D0E032C0E0C0D0C082C083906183E0A2D5
:10227C00E05009E5BFA2E0500375BFFEE0A2E150BB
:10228C0009E5BFA2E1500375BFFDE0A2E25009E5EC
:10229C00BFA2E2500375BFFBE0A2E35009E5BFA269
:1022AC00E3500375BFF7E0A2E45009E5BFA2E45088
:1022BC000375BFEFE0A2E55009E5BFA2E550037539
:1022CC00BFDFE0A2E65009E5BFA2E6500375BFBF31
:1022DC00D083D0828088C0E0C0D0E8C0E0E9C0E004
:1022EC00EAC0E0EBC0E0ECC0E0EDC0E0C0F0E5A778
:1022FC00A2E6500FE5A1A2E6500953A7BF75A1BFF6
:10230C00122347E5A7A2E5500CE5A1A2E550065320
:10231C00A7DF75A1DFE5A7A2E15009E5A1A2E15075
:10232C000375A1FDE5A7A2E2500CE5A1A2E25006BF
:10233C0053A7FB75A1FBD0F002225874F8121B3482
:10234C0075210190064FE0640670151213F68A820F
:10235C008B83A3A3A3A3A3A3E0FAA3E0FB121450C3
:10236C00A2AFE433FED2AF900655E0640170187A48
:10237C00207B0090064EE0F91207A27A207B009099
:10238C00064EE0F9120718906182E0D2E6F0900751
:10239C00EBE0602185C6228016900654E064017043
:1023AC0008E5C654F84405F5C653BEFC12211C744E
:1023BC0001652160E4EEA2E092AF7F01021BE00018
:1023CC008E238F24858228858327851882851983FF
:1023DC00E0CEA3E0CF852882852783EBC9EAC8ED40
:1023EC00CBECCA75F010C3E833C8E933C9EA33CA79
:1023FC00EB33CBC3EA9EF526EB9FF525B35004AB2C
:10240C0025AA26EC33CCED33CDD5F0DAAE23AF24B0
:10241C002274EB121B3474FA121A718A088B098C11
:10242C00148D1590064FE024F7C394055006908345
:10243C005C02257F1213F68A0A8B0BAE0AAF0BEEE9
:10244C004F700302257CAC08AD0985188285198371
:10245C00AA82AB831214808E828F83A3A378081276
:10246C0019419082D8780812191B85188285198316
:10247C00780C1219419082D8780C12191B780879B3
:10248C000C121753501F7808790C1218F39082F421
:10249C0078081217734047850810850911850A12B0
:1024AC00850B138041850C10850D11850E12850F3F
:1024BC0013781079081218F39082F47810121773AD
:1024CC00501C7510007511007512007513017810F1
:1024DC00790C1218F3781079081218BA80089083C6
:1024EC005C78101219417409781012189B9083149F
:1024FC007808121941781079081218128E828F837D
:10250C00A3A3A3A3A3A3E0F8A3E0F97AD07B0312BF
:10251C0019E688088909E4F50AF50B781079081290
:10252C0018BA7404121ABCE0F8A3E0F97AD07B0351
:10253C001219E6E8FA8A08E4F509781079081217F6
:10254C00535007781079081218F390064FE064087E
:10255C00600AE064066005E06405701C9082F878FF
:10256C001012177350129082FC78101218CD80083C
:10257C009083607810121941851482851583781028
:10258C001219507406121A877F0E021BE074F71290
:10259C001B341214929007E9E064017010906245AC
:1025AC00E4F0A3F053F4F343FE0C5390F312143EF7
:1025BC00E5C654804449F5C6E59E547F644970F8DD
:1025CC00906185740FF09007E7E0F47002A3E0606F
:1025DC004E9007E8E0600814601B14602E80407574
:1025EC0008017509009007E7E07808121A5EE50803
:1025FC00F45280802A7508017509009007E7E0788D
:10260C0008121A5EE508F4529080147508017509D9
:10261C00009007E7E07808121A5EE508F452A079FA
:10262C00007F02021BE074F7121B34E9FEEAFF7410
:10263C00016E700C7A807B0090064EE0F912071246
:10264C0090296CE493F46008E493F912129A8009CF
:10265C0053C680E59E547F70FA1214449007E9E04B
:10266C00640170031212B29007E7E0F47002A3E069
:10267C00604B9007E8E0600814601A14602C803DF1
:10268C007508017509009007E7E07808121A5EE5F5
:10269C0008428080287508017509009007E7E078EA
:1026AC0008121A5EE508429080137508017509003E
:1026BC009007E7E07808121A5EE50842A01214921F
:1026CC001213F68A088B09A808A909E8496015E5D0
:1026DC00E170FCE82414F582E93400F583E0F46041
:1026EC0003E0F5E174016F700A7A0190064EE0F98F
:1026FC0012076C02262D74F1121B348A088B098C7C
:10270C000A8D0B740F121ABC780C1219419082D8D6
:10271C00780812191B9082D8780C12191B7808793A
:10272C000C12175350157808790C1218F39082F488
:10273C007808121773401579018013780C790812F8
:10274C0018F39082F4780C12177340EB79007F0821
:10275C00021BE074ED121B348A088B098C0A8D0B5A
:10276C007413121ABC780C1219419082D878081282
:10277C00191B9082D8780C12191B780C7908121737
:10278C005340117808790C1218F3AA08AB09AC0A5B
:10279C00AD0B8022751000751100751200751301B8
:1027AC007810790C1218F3781079081218BAAA104C
:1027BC00AB11AC12AD137F0C021BE09082D87808E1
:1027CC001219418A828B83780812192E7F04021BFE
:1027DC00E074F5121B348C828D8378081219418AAF
:1027EC00828B837808121907EA2404F8EB3400F979
:1027FC008C828D83A3A3A3A3E0FCA3E0FD88828934
:10280C0083C3E09CF0A3E09DF088828983C3E094AD
:10281C0020A3E0944E402290835478081219418AE8
:10282C00828B8378081218E08A828B83A3A3A3A3DC
:10283C00E02420F0A3E0344EF0808074F5121B34B9
:10284C00E9FE9007A1E0FAA3E0FBEEC333F8E43312
:10285C00F974E528F582748139F583E02AF508A32B
:10286C00E03BF5097808121CDB9082D412195F1238
:10287C0023CC7402121A878A088B098C0A8D0B746C
:10288C00107808121882AA08AB097F04021BE074A6
:10289C00F1121B348A0C8B0D8C0E8D0F740F121AC7
:1028AC00BCE0FAA3E0FB7411121ABCE0F508A3E03B
:1028BC00F5097413121ABCE0FEA3E0FF7808121C91
:1028CC00DBEA2401F508EB3400F509E4F50AF50B15
:1028DC00780C79081217929083387808121941787D
:1028EC000C7908121792AA0CAB0DAC0EAD0F12237B
:1028FC00CC7402121A878B09EA450960047A0180AC
:10290C00027A00EC2AFCED3400FDECF8EDF97A715A
:10291C007B021219E688088909E4F50AF50B8E8208
:10292C008F837808121950ECF8EDF97A717B02124A
:10293C0019E68A088B0974057808121A5E8E828F44
:10294C0083A3A3A3A3E508F0A3E509F07F08021B6A
:0F295C00E0C082C083E9906000F0D083D0822277
:10296C00FFFFFFFFFFFFFFFF74F0121AC88A0A8BEC
:10297C000B8909ECFEEDFF750800850A0C850B0D23
:10298C00780C121D1F00040DB72BB229D329F22984
:10299C00132A342A552A882AA92AC02AF62A212B36
:1029AC00422B622B8C2B7401650970158E828F83E0
:1029BC00E0C39403500B8E828F83E0900C03F08065
:1029CC0003750818022BE07402650970138E828F50
:1029DC0083E0F8A3E0F9900C04E8F0A3E9F080039D
:1029EC00750818022BE07401650970158E828F83AF
:1029FC00E0C39402500B8E828F83E09002EFF08044
:102A0C0003750818022BE07401650970158E828F0E
:102A1C0083E0C39405500B8E828F83E09002F0F01C
:102A2C008003750818022BE07401650970158E82FD
:102A3C008F83E0C39402500B8E828F83E09002F15F
:102A4C00F08003750818022BE07410650970277567
:102A5C000C10750D00780C121CDBEEFCEFFD7AF2FD
:102A6C007B021206BE7402121A878A0C8B0D850C1F
:102A7C0082850D838003750818022BE074016509AB
:102A8C0070158E828F83E0C39402500B8E828F83DD
:102A9C00E0900302F08003750818022BE0740165C6
:102AAC0009700B8E828F83E0900C07F08003750801
:102ABC0018022BE074046509702A8E828F83C08201
:102ACC00C0839082D4780C121941D083D082780CB8
:102ADC00121763500F8E828F8312195F90030412AA
:102AEC00196B8003750818022BE0E5097021120E92
:102AFC003EE970131208F2E9F50C7950120B9EE9BD
:102B0C00F50D1208E0800B9003977401F0800375AB
:102B1C000818022BE07401650970158E828F83E012
:102B2C00C39402500B8E828F83E0900303F08003DA
:102B3C00750818022BE07401650970158E828F835D
:102B4C00E0C3940A500B8E828F83E0900C06F080C9
:102B5C0003750818807E74016509701F8E828F833F
:102B6C00E0C3940740158E828F83E0C39411500B01
:102B7C008E828F83E0900C08F08059750818805471
:102B8C00740165097020900396E0F50C8E828F839A
:102B9C00E0900396F0E50C703B900396E0640170B6
:102BAC00331208E0802E7508188029C3E50A942496
:102BBC00E50B9400501B7402650970158E828F838F
:102BCC00E0FCA3E0FDAA0AAB0B120CDCE9F50880D3
:102BDC0003750802A9087F08021B9A74EC121AC824
:102BEC0074DA121A71890D8A128B138C0A8D0B747C
:102BFC003A121ABCE0F50C908292C082C083851800
:102C0C0082851983AC82AD83D083D082740612196D
:102C1C0084851882851983AC82AD83AA12AB13A963
:102C2C000D120886E9FEEEC3940A4003022D86EECF
:102C3C00F91208C2E9FF900C03E0640270047401FD
:102C4C0080027400F5087808121CDFAD0CEFFCEE66
:102C5C00F9AA0AAB0B1209347401121A877C147D81
:102C6C000079007412121ABCAA82AB831206D68A9F
:102C7C000E8B0F850E08850F097412121ABCAC82CC
:102C8C00AD837A1075F006EEA42424F9120B98E9A2
:102C9C0070437C1079FF7412121ABCAA82AB831297
:102CAC000736E970307422121ABCAC82AD837A04F8
:102CBC0075F006EEA42425F9120B98E9F5087412A8
:102CCC00121ABCAC82AD83EFA2E0E433F9AA0AABD2
:102CDC000B120D66E97406121ABCAC82AD837A0C29
:102CEC0074702EF9120B98E9707E7406121ABCAA35
:102CFC0082AB831208B6750E00E50EC394045068BF
:102D0C00E50EA80E7900E875F003A4C8AAF075F0DA
:102D1C0000A42AFA75F003E9A42AF97406121ABC65
:102D2C00E58228F508E58339F5098508828509834C
:102D3C00E0F8A3E0F9E849602B850882850983A3B4
:102D4C00A3E0F5107511007810121CDB8508828544
:102D5C000983E0FCA3E0FDAA0AAB0B120FC47402BA
:102D6C00121A87E9050E8091EFA2E1500D9002EE48
:102D7C00E0F9AA0AAB0B120FCAE97404650C700FC8
:102D8C00900C03E064027007AA0AAB0B12092E79AF
:102D9C00007426121A877F0C021B9A74F2121AC83E
:102DAC00890BEAFEEBFF8C088D09750A0AE50B60AE
:102DBC000C146009146044146064022E4BEEFAEF9C
:102DCC00FB1208D4E9F50AE50AC3940A5071E50828
:102DDC004509606B750C06750D00780C121CDBEE4A
:102DEC00FCEFFDAA08AB091206BE7402121A878A00
:102DFC000C8B0D850C82850D838044EEFAEFFB1253
:102E0C0008CEE9F50AE50AC3940A5033E5084509EA
:102E1C00602DAA08AB09A90A1208C8E98021EEFAAC
:102E2C00EFFB1208DAE9F50AE50AC3940A5010E53B
:102E3C00084509600AAA08AB09A90A1208C8E9A939
:102E4C000A7F06021B9A74F2121AC88A0C8B0DE9BF
:102E5C00FE7F1574FF650C700474FF650D702A7588
:102E6C000800E508C3940A5014EEFC7A027B00A912
:102E7C00081208A4E960027F00050880E5EE606393
:102E8C007A1C7B091211E0805AAA0CAB0D1211C2EC
:102E9C008A0A8B0B850A08850B09E50845096041F0
:102EAC007C007D00E5082405FAE5093400FB850863
:102EBC0082850983A3A3A3A3E0F9120886E9F50A86
:102ECC00E50AC3940A500EEEFC7A027B00A90A12A2
:102EDC0008A4E97F00EE600BAA08AB0912091C805C
:102EEC00027F14EFF97F06021B9A74EE121AC88A3D
:102EFC000E8B0F8C0A8D0B7412121ABCE0F50CA3FE
:102F0C00E0F50D75081574FF650E700474FF650F00
:102F1C00701E7E00EEC3940A5062AC0CAD0DAA0A72
:102F2C00AB0BEEF91208AAE960037508000E80E4F9
:102F3C00AA0EAB0F1211C28A108B11AE10AF11EE8C
:102F4C004F60367C007D00EE2405FAEF3400FB8EDA
:102F5C00828F83A3A3A3A3E0F9120886E9F509E500
:102F6C0009C3940A5016AC0CAD0DAA0AAB0BA909F7
:102F7C001208AAE97508008003750814A9087F0ACD
:102F8C00021B9A74F7121AC8EAFEEBFF900308EEC4
:102F9C00F0A3EFF09002EEE0FC7D007A237B0012B0
:102FAC000CDCE9F5089002EEE0F9120F407F01020B
:102FBC001B9A74EE121AC874EC121A718A0A8B0BD3
:102FCC00850A82850B83A3A3E024FA70030234F2F2
:102FDC0024FD70030233681470030230B1146010C6
:102FEC0024FD70030233101470030233A80235154C
:102FFC00AE0AAF0B900308E0F8A3E0F9E84960696A
:10300C00900308E0F8A3E0F5838882E0F8A3E0F9E8
:10301C00E8496055EE240CF582EF3400F583E0F5B9
:10302C00087808121CDFEE240BF582EF3400F583D0
:10303C00E0F98E828F83A3A3A3A3A3A3A3A3A3E0EE
:10304C00FCA3E0FDEE2403FAEF3400FB900308E050
:10305C00F8A3E0F5838882E0F8A3E0F58388821278
:10306C001AC67401121A8780398E828F83A3A3A388
:10307C00A3A3A3A3A3A3121CF290030412195F121F
:10308C000D787402121A87E9601879018E828F8389
:10309C00A3A3A3A3A3A3A3A3A3E0FAA3E0FB120DF2
:1030AC0072E9023515AE0AAF0B8E828F83A3E060F6
:1030BC00030232BE8E828F83A3A3A3A3A3E0A2E05C
:1030CC0040030232BE7C0E7D007900851882851982
:1030DC0083AA82AB831206D68A088B09AA08AB098D
:1030EC008E828F83A3A3A3A3A3A3A3A3E0F8A3E03F
:1030FC00F9E849603D7508067509007808121CDB73
:10310C008E828F83A3A3A3A3A3A3A3A3E02410FC69
:10311C00A3E03400FD7402121ABCAA82AB8312061F
:10312C00BE7402121A878A088B0985088285098366
:10313C0080548E828F83A3A3A3E0FAA3E0FB121129
:10314C00C28A0C8B0D850C08850D09E508450960B4
:10315C0032750C06750D00780C121CDBE508240585
:10316C00FCE5093400FD7402121ABCAA82AB83126E
:10317C0006BE7402121A878A0C8B0D850C82850D83
:10318C008380030235158E828F83A3A3A3A3A3E0B0
:10319C00A2E25004D2F08002C2F0A2F0E433F8793B
:1031AC0000740C121ABCE048F0A3E049F08E828F38
:1031BC0083A3A3A3A3A3A3A3A3A3A3E0F8A3E0F9CE
:1031CC00E84960228E828F83A3A3A3A3A3A3A3A306
:1031DC00A3A3E02410F8A3E03400F9888289837853
:1031EC000C1219418008908354780C1219418E826C
:1031FC008F83A3A3A3A3A3A3A3A3A3A3E0F8A3E0F8
:10320C00F9E84960178E828F83A3A3A3A3A3A3A37A
:10321C00A3A3A3E0F508A3E0F509800675080075E3
:10322C0009008E828F83A3A3A3A3A3A3A3A3E0F877
:10323C00A3E0F9E84960158E828F83A3A3A3A3A30F
:10324C00A3A3A3E0F510A3E0F5118006751000759B
:10325C001100780C121CD77808121CDB7810121C89
:10326C00DBEE240CF582EF3400F583121CF28E8217
:10327C008F83A3A3A3A3A3A3E0FCA3E0FD740A1272
:10328C001ABCAA82AB831208BC740A121A87E9F51D
:10329C00088E828F83A3A3A3E0F8A3E0F990039890
:1032AC00E8F0A3E9F07A017B009002EEE0F9120756
:1032BC0012E9900308E0F8A3E0F9E84960439003B1
:1032CC0008E0F8A3E0F5838882A3A3E0F8A3E0F973
:1032DC00E849602D8E828F83A3E0FC79018E828F6A
:1032EC0083A3A3A3E0FAA3E0FB900308E0F8A3E018
:1032FC00F5838882A3A3E0F8A3E0F5838882121AF1
:10330C00C6023515AE0AAF0B900308E0F8A3E0F93E
:10331C00E8496045900308E0F8A3E0F5838882A3B0
:10332C00A3E0F8A3E0F9E849602F850A82850B83B6
:10333C00A3E0FC79028E828F83A3A3A3E0FAA3E01F
:10334C00FB900308E0F8A3E0F5838882A3A3E0F8E0
:10335C00A3E0F5838882121AC6023515AE0AAF0BAC
:10336C007C007D00EE2404FAEF3400FB8E828F8308
:10337C00A3A3A3E0F9120886E9F508E508C3940AAB
:10338C005017EE240AFCEF3400FD7A0475F006E5C4
:10339C0008A42425F9120B92E9023515AE0AAF0BDD
:1033AC00900303E06018900C06E0F98E828F83A3E3
:1033BC00A3A3E0FAA3E0FB120D72E9023515900C01
:1033CC0003E0701579058E828F83A3A3A3E0FAA383
:1033DC00E0FB120D72E90235158E828F83A3A3A335
:1033EC00E0FAA3E0FB1211C28A0C8B0D850C088548
:1033FC000D098E828F83A3A3A3A3A3A3A3E0A2E0B2
:10340C005075E5084509606C850882850983A3A37E
:10341C00A3A3E060628E828F83A3A3A3A3A3A3A321
:10342C00A3A3E0F8A3E0F9E8C4540FF87900540121
:10343C00F8E95400F9E8A2E0403D740E121ABCAC55
:10344C0082AD83E5082405FAE5093400FB85088282
:10345C00850983A3A3A3A3E0F9120886E970187960
:10346C00038E828F83A3A3A3E0FAA3E0FB120D7259
:10347C00E9023515023515EE2405FCEF3400FD8507
:10348C000882850983A3A3A3A3E0F98E828F83A36B
:10349C00A3A3E0FAA3E0FB120928900308E0F8A329
:1034AC00E0F9E8496063900308E0F8A3E0F583884D
:1034BC0082A3A3E0F8A3E0F9E849604D7C00790011
:1034CC008E828F83A3A3A3E0FAA3E0FB900308E012
:1034DC00F8A3E0F5838882A3A3E0F8A3E0F5838842
:1034EC0082121AC68023120E3EE9701D900397E0DB
:1034FC006401700B1208F2E9F89003977400F079EC
:10350C0050120B9EE9FE1208E07414121A877F0AFF
:10351C00021B9A74F3121AC874F2121A718909EA0E
:10352C00FEEBFF8C0C851882851983AC82AD837AF7
:10353C000E75F006E509A42420F9120B98E97072B7
:10354C007C0679FF851882851983AA82AB831207C2
:10355C0036E9705E740C121ABCE0F8A3E0F9E8F5D9
:10356C0008E50C6005EE42088004EEF4520885086C
:10357C000A750B00740C121ABCE0650A7004A3E007
:10358C00650B602AE508A8087900740C121ABCE5D2
:10359C0008F0A3E9F0851882851983AC82AD837A93
:1035AC000E75F006E509A42420F9120B92E97901B5
:1035BC0080027900740E121A877F05021B9A74F030
:1035CC00121AC874E6121A71890B8A0C8B0DECFE58
:1035DC00EDFF740C121ABCAC82AD837A0E75F0063A
:1035EC00E50BA42420F9120B98E9600302372E7C1A
:1035FC000679FF740C121ABCAA82AB83120736E947
:10360C00600302372E851882851983AC82AD837ACC
:10361C000C7470250BF9120B98E9600302372A75AC
:10362C000A00851882851983AA82AB831208B6E535
:10363C000C450D703A7C0C7900851882851983AA8B
:10364C0082AB83120736E960030237047C0C7D00E1
:10365C007900851882851983AA82AB831206D68AD3
:10366C00088B09850882850983750A010237048550
:10367C001882851983AC82AD83AA0CAB0D1208B0ED
:10368C008A0E8B0F850E08850F09E50845097036E3
:10369C00EE4F6021851882851983AC82AD837A0048
:1036AC007B001208B08A0E8B0FA80EA90F88088910
:1036BC0009E84970047900806B850882850983E5E7
:1036CC000CF0A3E50DF0850882850983A3A3E0F82F
:1036DC007900EE687002EF69601EEE85088285093C
:1036EC0083A3A3F0EE4F700D8508828509837400C7
:1036FC00F0A37400F0750A01E50A60228518828532
:10370C001983AA82AB831208B6851882851983ACFB
:10371C0082AD837A0C7470250BF9120B92E9790146
:10372C0080027900741A121A877F08021B9A74F7A8
:10373C00121AC8EAFEEBFF7B00EBC39404504EEB6D
:10374C00F87900E875F003A4C8AAF075F000A42A73
:10375C00FA75F003E9A42AF9EC28F582ED39F58322
:10376C00E06E7003A3E06F7021EBF87900E875F060
:10377C0003A4C8AAF075F000A42AFA75F003E9A412
:10378C002AF9EC28FAED39FB80070B80AC7A007B28
:10379C00007F01021B9A74F7121AC87F00EFC394C2
:1037AC00044003023851EFF87900E875F003A4C81F
:1037BC00ACF075F000A42CFC75F003E9A42CF9EA2C
:1037CC0028F582EB39F583E0F4FCA3E0F4FDEFF887
:1037DC007900E875F003A4C8AEF075F000A42EFED5
:1037EC0075F003E9A42EF9EA28F582EB39F583ECA0
:1037FC00F0A3EDF0EFF87900E875F003A4C8ACF095
:10380C0075F000A42CFC75F003E9A42CF9EA28F55A
:10381C0082EB39F583A3A3E0F4C0E0EFF87900E87C
:10382C0075F003A4C8ACF075F000A42CFC75F00383
:10383C00E9A42CF9EA28F582EB39F583A3A3D0E0AF
:10384C00F00F0237A97F01021B9A74EA121AC8748E
:10385C00F4121A71EAFEEBFF8C108D117422121AFD
:10386C00BCE0F50EA3E0F50F7424121ABCE0F50CC5
:10387C00A3E0F50D7426121ABCE0F50AA3E0F50BD3
:10388C00EE4F7005790A0239CCEEFAEFFB1208D430
:10389C00E9F508E508C3940A40061208E6E9F508BC
:1038AC00E508C3940A40030239CAEEFCEFFD7A0E18
:1038BC0075F006E508A42420F9120B92E9F8E5103E
:1038CC0045116013AC10AD117A1B75F006E508A418
:1038DC002421F9120B92E9E50E450F6013AC0EADE5
:1038EC000F7A1B75F006E508A42422F9120B92E955
:1038FC00E50C450D6013AC0CAD0D7A1075F006E5BA
:10390C0008A42423F9120B92E9E50A450B602DACAF
:10391C000AAD0B7A1075F006E508A42424F9120BF5
:10392C0092E9F5097428121ABCAC82AD837A04753D
:10393C00F006E508A42425F9120B92E97C0C7D0015
:10394C0079FF851882851983AA82AB831206D68AE1
:10395C00128B13851214851315851882851983AC67
:10396C0082AD837A0C74702508F9120B92E9F50973
:10397C0075120E7513007812121CDBEEFCEFFDE5D0
:10398C0008A8087900E875F00EA4C8AAF075F00034
:10399C00A42AFA75F00EE9A42AF9740A28FA740319
:1039AC0039FB1206BE7402121A878A128B13A812E4
:1039BC00A913900396E0600312093A120922A90890
:1039CC00740C121A877F0E021B9A74F7121AC874A1
:1039DC00F2121A71E9FE851882851983AC82AD83C7
:1039EC007A0E75F006A42420F9120B98E9700E7467
:1039FC000C121ABCE0F8A3E0F9E8F9800279007423
:103A0C000E121A877F01021B9A74F4121AC874F2F0
:103A1C00121A718909EAFEEBFFE509C3940A5004F6
:103A2C00EE4F70047902804B851882851983AC8225
:103A3C00AD837A0E75F006E509A42420F9120B98D3
:103A4C00E9F508E508702A750A06750B00780A1264
:103A5C001CDB7402121ABCAC82AD83EEFAEFFB12C3
:103A6C0006BE7402121A878A0A8B0B850A82850B92
:103A7C0083A908740E121A877F04021B9A74F4121D
:103A8C001AC8EAFEEBFF750800E508C3940A504516
:103A9C00750A06750B00780A121CDBEEFCEFFDE5CF
:103AAC0008A8087900E875F00EA4C8AAF075F00013
:103ABC00A42AFA75F00EE9A42AF9741028FA7403F2
:103ACC0039FB1206D07402121A87E96004A9088027
:103ADC0006050880B4790A7F04021B9A74F4121A42
:103AEC00C8EAFEEBFF750800E508C3940A5045755B
:103AFC000A06750B00780A121CDBEEFCEFFDE508DC
:103B0C00A8087900E875F00EA4C8AAF075F000A416
:103B1C002AFA75F00EE9A42AF9740A28FA74033902
:103B2C00FB1206D07402121A87E96004A9088006F9
:103B3C00050880B4790A7F04021B9A74F7121AC81C
:103B4C0074F0121A71EAFEEBFF750800E508C394D5
:103B5C000A504B851882851983AC82AD837A107517
:103B6C00F006E508A42423F9120B98E9702C7C10BC
:103B7C0079FF851882851983AA82AB83120736E9EF
:103B8C007018EEFCEFFD851882851983AA82AB8331
:103B9C00120D48E97004A9088006050880AE790A60
:103BAC007410121A877F01021B9A74F4121AC875CA
:103BBC000800E508C3940A4003023C98E508A808ED
:103BCC007900E875F00EA4C8AAF075F000A42AFAE2
:103BDC0075F00EE9A42AF9740A28FC740339FD7AED
:103BEC000E75F006E508A42420F9120B98E9700371
:103BFC00023C937C067D0079FFE508AA087B00EA6D
:103C0C0075F00EA4CAA8F075F000A428F875F00E93
:103C1C00EBA428FB740A2AFA74033BFB1206D68A1F
:103C2C000A8B0BAE0AAF0B7C067D0079FFE508AA68
:103C3C00087B00EA75F00EA4CAA8F075F000A42861
:103C4C00F875F00EEBA428FB74102AFA74033BFBF6
:103C5C001206D68A0A8B0BAC0AAD0BE508A80879BC
:103C6C0000E875F00EA4C8AAF075F000A42AFA7545
:103C7C00F00EE9A42AF9741628F582740339F58339
:103C8C007400F0A37400F00508023BBE900396E0AC
:103C9C00600312093A1209227F04021B9A74F7126C
:103CAC001AC87E00EEC3940A50327C0679FFEEFAF5
:103CBC007B00EA75F00EA4CAA8F075F000A428F8F1
:103CCC0075F00EEBA428FB740A2AFA74033BFB1262
:103CDC000736E96004EEF980050E80C8790A7F0189
:103CEC00021B9A74F7121AC87E007F00EFC3940A65
:103CFC00502F7C0679FFEFFA7B00EA75F00EA4CA10
:103D0C00A8F075F000A428F875F00EEBA428FB744D
:103D1C000A2AFA74033BFB120736E970010E0F8076
:103D2C00CBEEF97F01021B9A74F7121AC87E007F42
:103D3C0000EFC3940A500DEE700AEFF91208F8E97F
:103D4C00FE0F80EDEEF97F01021B9A74EE121AC879
:103D5C0074CB121A71E9FE7427121ABCAC82AD83B3
:103D6C007A0E75F006EEA42420F9120B98E9600384
:103D7C00023E987C0679FF7427121ABCAA82AB8388
:103D8C00120736E96003023E987C0E7D0079FF74C1
:103D9C0027121ABCAA82AB831206D68A0A8B0B8511
:103DAC000A0E850B0F7C1B7D0079FF740C121ABC5C
:103DBC00AA82AB831206D68A0A8B0B850A0C850B5A
:103DCC000D7C0C7D0079FF851882851983AA82AB46
:103DDC00831206D68A108B1185100A85110B742755
:103DEC00121ABCAC82AD837A0E75F006EEA42420B8
:103DFC00F9120B92E9F508740C121ABCAC82AD8363
:103E0C007A1B75F006EEA42421F9120B92E94208F4
:103E1C00740C121ABCAC82AD837A1B75F006EEA43E
:103E2C002422F9120B92E94208740C121ABCAC82CF
:103E3C00AD837A1075F006EEA42423F9120B92E9E7
:103E4C004208740C121ABCAC82AD837A1075F00661
:103E5C00EEA42424F9120B92E94208740C121ABC39
:103E6C00AC82AD837A0475F006EEA42425F9120B0E
:103E7C0092E94208851882851983AC82AD837A0C4D
:103E8C0074702EF9120B92E942088003750800A990
:103E9C00087435121A877F0A021B9A74F7121AC813
:103EAC00E9FE9002EEF01208E07F01021B9A74F218
:103EBC00121AC8890A8A088B09E5085400F8E50922
:103ECC005480F9E84960339002EEE0F91206FA8A60
:103EDC000C8B0DA80CA90DE8FEE9FFE849600FEE6C
:103EEC00FAEFFB12090AEEFAEFFB1206E8E9E50815
:103EFC006400FAE5096480FB8021E508A2E0501714
:103F0C00900398E0FAA3E0FB120940E5086401FA7B
:103F1C00E5096400FB80047A007B007F06021B9A93
:103F2C0074F7121AC8EAFEEBFF8E828F83E02450DE
:103F3C00601014601624E17019EEFAEFFB12089E63
:103F4C008010EEFAEFFB1209108007EEFAEFFB126D
:103F5C0009167F01021B9A74F7121AC8EAFEEBFFCE
:103F6C008E828F83A3A3A3A3E0641E701179008EAD
:103F7C00828F83A3A3E0FAA3E0FB12088CE97F01F4
:103F8C00021B9A74F6121AC8EAFEEBFF8E828F831C
:103F9C00A3A3A3A3E0703A8E088F09850882850934
:103FAC0083A3A3A3A3A3A3A3121CF2850882850950
:103FBC0083A3A3A3A3A3E0FCA3E0FD85088285094A
:103FCC0083A3A3E0FAA3E0FB1208927402121A87EF
:103FDC00E97F02021B9A74F7121AC8EAFEEBFF90F3
:103FEC0002EEE0F98E828F83A3E0FAA3E0FB120FBE
:103FFC00CAE97F01021B9AC082C08374FF121A7136
:10400C001208ECE9C39402400B851882851983745D
:10401C0002F08009851882851983740AF08518824C
:10402C00851983AC82AD837A017905120E56E97439
:10403C0001121A87D083D08202013574F2121AC889
:10404C0074E8121A71EAFEEBFF890A8C088D097C60
:10405C00187D007900851882851983AA82AB83129A
:10406C0006D68A0C8B0DAC0CAD0D85188285198388
:10407C00EEF0A3EFF09002F0E0C0E07402121ABC74
:10408C00D0E0F09002F1E0C0E07403121ABCD0E072
:10409C00F0900C08E0C0E07417121ABCD0E0F07479
:1040AC0015121ABCE054FEF8A3E054FFF9900C076B
:1040BC00E0A2E0E433FA7B00E84AF8E94BF9741526
:1040CC00121ABCE8F0A3E9F0900C07E0A2E150044E
:1040DC00D2F08002C2F07415121ABCE054FDFAA39F
:1040EC00E054FFFBA2F0E433F87900C333F8E93372
:1040FC00F9EA48F8EB49F97415121ABCE8F0A3E98F
:10410C00F0900C07E0A2E35004D2F08002C2F074ED
:10411C0015121ABCE054F7FAA3E054FFFBA2F0E42A
:10412C0033F50C750D007403780C121A5EEA450C0D
:10413C00F8EB450DF97415121ABCE8F0A3E9F090F0
:10414C000C07E0A2E45004D2F08002C2F074151205
:10415C001ABCE054EFFAA3E054FFFBA2F0E433F5F1
:10416C000C750D007404780C121A5EEA450CF8EB11
:10417C00450DF97415121ABCE8F0A3E9F0900C0780
:10418C00E0A2E55004D2F08002C2F07415121ABC01
:10419C00E054DFFAA3E054FFFBA2F0E433F50C7516
:1041AC000D007405780C121A5EEA450CF8EB450DFF
:1041BC00F97415121ABCE8F0A3E9F0900C07E0A210
:1041CC00E25004D2F08002C2F07415121ABCE05412
:1041DC00FBFAA3E054FFFBA2F0E433F50C750D00E1
:1041EC007402780C121A5EEA450CF8EB450DF97462
:1041FC0015121ABCE8F0A3E9F09002F1E0602A7500
:10420C000C10750D00780C121CDB7CF27D02740610
:10421C00121ABCAA82AB831206BE7402121A878AC7
:10422C000C8B0D850C82850D83900302E06012E5EA
:10423C000A600E7415121ABCE04402F0A3E04400AC
:10424C00F0900302E0600678017900800478007930
:10425C00007414121ABCE048F09002EFE06006788B
:10426C000479008004780079007414121ABCE048B8
:10427C00F0AC08AD09851882851983AA82AB83122C
:10428C000D6CE97418121A877F06021B9A74F712C8
:10429C001AC8EAFEEBFF750800900302E06006788E
:1042AC00017900800478007900E842089002EFE080
:1042BC00600678047900800478007900E84208A947
:1042CC0008EEFAEFFB120E26E97F01021B9A74EE40
:1042DC00121AC874E5121A718A0C8B0DE9FF8C083E
:1042EC008D09742D121ABCE0F50A74086509700A60
:1042FC0075F006EFA42422FE800875F006EFA424C6
:10430C0021FE7C1B7D007900851882851983AA8289
:10431C00AB831206D68A108B1185100E85110F8572
:10432C001882851983AC82AD837A1BEEF9120B9837
:10433C00E9703C741A121ABCE0C394074031741A29
:10434C00121ABCE0C394115026E50AF50B780B1237
:10435C001CDF7401121ABCAC82AD83E508A2E0E448
:10436C0033F9AA0CAB0D120D7E7401121A87E97485
:10437C001B121A877F0A021B9A74F7121AC81210A2
:10438C003CE97E00EEC3940A50557C0679FFEEFAA8
:10439C007B00EA75F00EA4CAA8F075F000A428F80A
:1043AC0075F00EEBA428FB740A2AFA74033BFB127B
:1043BC000736E97027EEF87900E875F00EA4C8AA64
:1043CC00F075F000A42AFA75F00EE9A42AF9740A23
:1043DC0028FA740339FB7900121042E90E80A57F8C
:1043EC0001021B9A74F4121AC874FB121A718A080F
:1043FC008B097403121ABC85820A85830B780A1206
:10440C001CDB750A02750B00780A121CDB750AA2FC
:10441C00750B83780A121CDB7CFF7DFF7A017B0015
:10442C00120E987406121A878A0A8B0BAE0AAF0BFF
:10443C00EE4F70030244FAE4F50AF50B780A121CED
:10444C00DB7404121ABC85820A85830B780A121C51
:10445C00DB7404121ABC85820A85830B780A121C41
:10446C00DB7409121ABC121CF27902EEFCEFFDAAE5
:10447C0008AB09120FB87408121A87E97043851833
:10448C0082851983E0FA7B007401121ABCE0F8797A
:10449C0000E4C8F9EA28F50AEB39F50BE50A450BF7
:1044AC00601F780A121CDB8E828F83A3A3A3A3E068
:1044BC00FCA3E0FDAA08AB091208927402121A8739
:1044CC00E9E4F50AF50B780A121CDB7405121ABC28
:1044DC00121CF27CFF7DFFEEFAEFFB120EA47404AB
:1044EC00121A878A0A8B0BAE0AAF0B02443C740576
:1044FC00121A877F04021B9AC082C083E9900F10A6
:10450C00F002478874F7121AC8E990056DF07CA583
:10451C007D057AFF7BFF120FD090056E74FFF0A320
:10452C00F0A3E4F0A3F07905120F5890056DE0F9B3
:10453C00120E807AEE7B0F1211B002549674F412A4
:10454C001AC88A088B09EB5480603090056DE0F92D
:10455C001206FA8A0A8B0BAE0AAF0BEE4F60138E63
:10456C00828F83E064B07003120F70EEFAEFFB12CF
:10457C0006E8AA08E5096480FB80047A007B000247
:10458C00475774F2121AC874FC121A71EAFEEBFF48
:10459C007412121ABC12597DEE4F7003024631741C
:1045AC0002121ABCEEF0A3EF124992ECF0A3ED123A
:1045BC004992AA82AB83120E7AE9F50A706AE50871
:1045CC00450960648E828F83125963EE4F60567A70
:1045DC00067B001207548A0C8B0DA80CA90DE84918
:1045EC007005750A13804188828983E412463EEE79
:1045FC00F0A3EF12598EE508F0A3E509F0900573CE
:10460C001246C59005737005125440801B12542E2F
:10461C008003EAFCEBFD8C828D831246C570F38C13
:10462C00828D8380E3750A02A90A7404121A870228
:10463C005B7DF0A3125934A32274F2121AC8890AB2
:10464C00E975F017A4FEAFF0900572E4F0900570D8
:10465C001246C5600A12075A900570E4F0A3F0EEFA
:10466C00FAEFFB1207548A088B09EA4509602FEE12
:10467C00FCEFFD79001206D6900570E508F0A3E575
:10468C0009F07B0080081246AFE4F0A3F00BEBC3FB
:10469C00950A40F2E50A900572F0790080027913D0
:1046AC00025B7DEB75F017A4F8A9F0900570E0287B
:1046BC00FAA3E0398A82F583221250D2EA4B227493
:1046CC00F4121AC8740C121ABC125958FEE9FF7570
:1046DC000800750900800CE5082401F508E509348B
:1046EC0000F509C3E5089CE5099D503285080A854B
:1046FC00090B7403780A121A5EEA250AF8EB350BDB
:10470C00F988828983A3A3A3A3A3A3125515EE65ED
:10471C000A7003EF650B70BFE8FAE9FB80047A00BE
:10472C007B00802774F4121AC87900EAA2E0501BAF
:10473C0075089E7509827808121CDB7C047D007A52
:10474C00127B0F120F527402121A877F04021B9AEB
:10475C00C082C08390057312478F601C8882898346
:10476C00A3A3E06A7003A3E06B8882898370E8A33B
:10477C00A3A3A31250CE80047A007B00D083D082F6
:10478C00020135125C63E8492274EE121AC874FCFB
:10479C00121A71EAFEEBFF851882851983E4F0A3E7
:1047AC00F0EE2402125420EE240512593BEE2404A0
:1047BC00F50EEF124D47E024FE603924FC604624D0
:1047CC00FE605224FE605E24FE70030248A824FEA4
:1047DC00700302490C24FE700302491B24FE700373
:1047EC0002492A24FC700302493924FE7003024951
:1047FC004802498590058C7417F0A3E412499A126B
:10480C000BF8024985851882851983AC82AD831219
:10481C000F76024955851882851983AC82AD8312B7
:10482C000F7C024955850C08850D097402121ABCBF
:10483C00AC82AD838508828509831250CE120E9E00
:10484C008A0C8B0DAC0CAD0DEC4D603BE4F50CF50E
:10485C000D780C121CDB750C8C750D05780C121C6C
:10486C00DB750C8D750D05780C121CDB7408121A97
:10487C00BC121CF2125DDF121A87E9F50C700B12D8
:10488C0050C4120C10800F750C01850882850983A9
:10489C00124988125440850C080249587402121AA5
:1048AC00BCAC82AD83850C82850D83124E99603C25
:1048BC00850C82850D83A3A3121CF275108C7511C7
:1048CC00057810121CDB75108D7511057810121CF3
:1048DC00DB7408121ABC121CF2125DDF121A87E983
:1048EC00F509700B1250C4120C16800F7509018556
:1048FC000C82850D83124988125440850908804C1E
:10490C00851882851983AC82AD83120F82803A851B
:10491C001882851983AC82AD83120F88802B851881
:10492C0082851983AC82AD83120F8E801C85188210
:10493C00851983AC82AD83120F94800D8518828506
:10494C001983AC82AD83120F9AE9F508E50860294A
:10495C008E828F83A3E06414601F850E82850F8383
:10496C00E090058C124992125C5F90058D125440B8
:10497C00E508A312499A120BF202532F125C6385BD
:10498C00188285198322F085188285198322F07C80
:10499C008C7D05850A82850B831250D22274EE120F
:1049AC001AC874FC121A718A0A8B0B8C0E8D0FEAC2
:1049BC002405F508EB3400F5097C157D0079007AA7
:1049CC008C7B051206D6E5082402F50CE509125974
:1049DC003E85188285198385821085831178101283
:1049EC001CDB850882850983A3A3A3A3124E901216
:1049FC001CDBE5082405F510E5093400F5117810E9
:104A0C00121CDB850C82850D831251E5120E9874F5
:104A1C0006121A878A108B11AE10AF11E50A240208
:104A2C00F50AE50B125423EE4F7003024B67801707
:104A3C007402121ABC1250CE88828983EAF0A3EB5E
:104A4C00F090058CE004F090058CE0C394054003D5
:104A5C00024B67E4F510F5117810121CDB7510751C
:104A6C007511057810121CDB751076751105781010
:104A7C00121CDB7406121ABC121CF27910EEFCEF3D
:104A8C00FD125DE1121A87E9705E85088285098343
:104A9C00A3A3A3A3A3A3A3E0F8900575E0687048B3
:104AAC00124E90121CDB7C767D05E5082408FAE595
:104ABC00093400FB1206D07402121A87E960298EA1
:104ACC00828F83A3A3A3A31250CE90058CE0F51084
:104ADC0074027810121A5E748D2510F582740535E7
:104AEC0011F583EAF0A3EBF07402121ABC85821064
:104AFC008583117810121CDB7402121ABC121CF282
:104B0C00850C82850D831250F4121A878A108B1132
:104B1C00AE10AF1190058CE0F51075110074027891
:104B2C0010121A5E748C2510F874053511F98882F0
:104B3C008983A31246C57003024A33E8240308088C
:104B4C0008E93400F9EE4F6003024A3C88828983FD
:104B5C0074FFF0A3F090058CE004F090058CE060FD
:104B6C000A1250C4120C047900800B850882850946
:104B7C0083125437790A02532F74EA121AC874FE3E
:104B8C00121A718C128D13EA2405F50CEB125DC907
:104B9C00125967750800750900EA2402F510EB3408
:104BAC0000F51185188285198385820A85830B7817
:104BBC000A121CDB850C82850D83A3A3A3A3124DC3
:104BCC005D121CDBE50C2405F50AE50D1254237867
:104BDC000A121CDB850C82850D83124D61120E9816
:104BEC007406121A878A0A8B0BEA450B7003024D66
:104BFC0002EA2404F50EEB124D471259678A828B98
:104C0C0083A3A3A3E0F98510828511831250D86089
:104C1C0003024D02E4F514F5157814121CDB75141F
:104C2C00757515057814121CDB75147675150578D9
:104C3C0014121CDB7406121ABC121CF27913AC0A87
:104C4C00AD0B851082851183125DE7121A87E9F589
:104C5C00096003024D02900575E0F8E5087009E063
:104C6C00240290058DF0801490058DE0FCE8240260
:104C7C00FAE43400FBEA6C7001EB707E850882AAC2
:104C8C0082124E879414124E7F506B850E82850FC4
:104C9C0083E0C0E0748E2A124D3ED0E0F00508850A
:104CAC000E82850F83A3E0C0E085080A748E250A66
:104CBC00124D3ED0E0F00508900575124D5D121CAA
:104CCC00DB7C767D0585080A748E250A124D5112FF
:104CDC001A87900575E02508F50874FF6E7003744B
:104CEC00FF6F6012EE24010EEF3400FFE508C39451
:104CFC00145003024BAFE50860131250E28510828A
:104D0C008511831250CE120C0A79008014E50970BB
:104D1C000375090A851282851383EEF0A3EFF0A9BF
:104D2C00097402121A877F0E021B9A85080C748E66
:104D3C00250CF58274053400F583223400F50F85BB
:104D4C000E82F58322FA74053400FB1206BE74023F
:104D5C002212599D22A3A3124D672212542EFDEE4E
:104D6C00FAEFFB2274EE121AC874FE121A718C0E32
:104D7C008D0FEA2405F50CEB12593E750B009005CE
:104D8C008CE4F0F50AEA2402F508EB3400F509800E
:104D9C004490058CE0FA900575E0F8124E87941754
:104DAC00124E7F400D90058CE0F87416C398900558
:104DBC0075F0124E90121CDB7C767D05748D2AFAF0
:104DCC007405124D54121A87900575E0F890058CF5
:104DDC00E028F0050AE50C2416F582E50D124D428B
:104DEC00E0F8E50AC398507490058CE0C394165013
:104DFC006BE50AC333F8E433F9E50C28FEE50D390D
:104E0C00FF851882851983AC82AD838E828F8312C5
:104E1C004E997008750B011254338050E4F510F55F
:104E2C00117810121CDB7510757511057810121C99
:104E3C00DB7510767511057810121CDB7406121ACE
:104E4C00BC121CF27916850882850983125DE71263
:104E5C001A87E9F50B7003024D9D80BB7C8C7D0598
:104E6C008508828509831250CE120C1CA90B740282
:104E7C00025331E99400C365D03322EA28F8E434B4
:104E8C0000F9E822E0F51075110078102212532673
:104E9C008A108B11AC10AD11EC4D2274EA121AC8A9
:104EAC0074FC121A718A0C8B0D8C128D13EA24056A
:104EBC00F50AEB125423750800750900E50A240263
:104ECC00F510E50B3400F5117402121ABC85820E34
:104EDC0085830F780E121CDB850A82850B83A3A3B6
:104EEC00A3A3125943121CDBE50A2405F50EE50BAE
:104EFC003400F50F780E121CDB851082851183129D
:104F0C0054291250C8120E987406121A878A0E8BE6
:104F1C000FAE0EAF0FE50C2402F50EE50D3400F5C7
:104F2C000F80388882898374FFF00508124D37741E
:104F3C00FFF00508900575E0F50C750D00780C1266
:104F4C001CDB7C767D0585080C748E250C124D516E
:104F5C00121A87900575E02508F508EE4F60278E2C
:104F6C00828F83A3A3A3E0F9850E82850F83125051
:104F7C00D8EE240412593BE96027850C82850D83F9
:104F8C001250BA125440E50870030250A01250E2BD
:104F9C00850E82850F831250CE120C22790002509E
:104FAC00B5E4F514F5157814121CDB75147575152C
:104FBC00057814121CDB7514767515057814121C03
:104FCC00DB7408121ABC121CF27911EEFCEFFD8591
:104FDC000E82850F83125DE7121A87E9F509709A24
:104FEC00850882AA82EA9005757009E02404900570
:104FFC008DF08025E0F890058DE0F514E82404FC94
:10500C00E43400FDEC65147001ED7081124E879450
:10501C0012124E7F4003024F99850C82850D83E05E
:10502C00C0E0748E2A124D3ED0E0F00508850C824B
:10503C00850D83A3E0C0E0124D37D0E01250FD8502
:10504C00820C85830D780C121CDB7404121ABC12B2
:10505C001CF28510828511831250F4121A878A0C67
:10506C008B0DAE0CAF0D85080C748E250CF87405E9
:10507C003400F9EE4F7003024F2F85188285198387
:10508C00E0888289831250FDA3E0C0E0124D37D036
:10509C00E0024F3DE509700375090A850A82850B0C
:1050AC00831250BA125440A9097404024D2F125C99
:1050BC0063851282851383227C8C7D05850A82850B
:1050CC000B831250D222E0FAA3E0FB221250D21230
:1050DC000E86E9F5092290058DE0F5F0E50884903F
:1050EC00058CF07C8C7D0522124D67120EA4740485
:1050FC0022F005088518828519832274EC121AC8CF
:10510C0074FE121A718A088B098C0E8D0FEA240515
:10511C00FEEB3400FF125310EE241812593BEA45F3
:10512C000B70030251B31252F950291251D88A1044
:10513C008B11EA4511606B7912AC0AAD0B850882B4
:10514C008509831250CE851082851183121AC6E907
:10515C00F50A7058E4F50AF50B780A121CDB8E82FE
:10516C008F83A3A3E0F50A780A121CDBEE2403124A
:10517C005420780A121CDB8E828F831251E5120F99
:10518C00BE7406121A87E9F50A7021850C82850D0A
:10519C0083E0701F8508828509831250CE120C287B
:1051AC008011750A0E8009750A018004E50A6003F6
:1051BC00125433850C82850D83E0600479008002E3
:1051CC00A90A7402121A877F0C021B9A8518828511
:1051DC0019831250D2120FAC2212542EFD85088264
:1051EC008509831250D22274EE121AC874FE121A58
:1051FC00718A088B098C0C8D0DEA2405FEEB3400AA
:10520C00FF750E00125310EA450B70030252D712B1
:10521C0052F9502C1251D88A0E8B0FEA450F604A66
:10522C007912AC0AAD0B8508828509831250CE85A4
:10523C000E82850F83121AC6E9F50E60030252DA4C
:10524C00850882850983125515AA0AFB1252EB7048
:10525C00147AFF7BFF1252EB606C88828983E50A1B
:10526C00F0A3E50BF0750A008007750E0E805F0544
:10527C000A900572E0FAE50AC39A504AE50A75F0FD
:10528C0017A4FAABF088828983A3A3E02AFAA3E0DF
:10529C003BFB8A828B83125429EC4D70D2750A1712
:1052AC00750B00780A121CDBEEFCEFFD1206BE74C7
:1052BC0002121A87EEFCEFFD8508828509831250D5
:1052CC00CE120C2E8014750E098003750E01125C23
:1052DC005B850C82850D83125440A90E024E7A1206
:1052EC000FA08A108B11A810A911E84922E50824F7
:1052FC0002F508E5093400F5098A828B83A3A3A380
:10530C00E0A2E522851882851983AC82AD838E825A
:10531C008F831253268A0A8B0B22E0FAA3E0FB122E
:10532C000E9E227404121A877F0A021B9A74EC12C6
:10533C001AC88C108D11EA2405F50CEB12593E7528
:10534C000F00EA2402F50AEB125423850A82F58336
:10535C001250CE125E6D7003025415750E008071E2
:10536C00850C82850D83E06401704F8E828F83A340
:10537C00A3121CF28E828F83A3A3A3A3E0F5127554
:10538C0013007812121CDBEE2405F512EF3400F535
:10539C00137812121CDB1250C8120FBE7406121AAC
:1053AC0087E9F50F6014850C82850D83E4F0125C9F
:1053BC005B8510828511831254407C177D00790027
:1053CC00EEFAEFFB1206D68E828F83E4F0A3F00583
:1053DC000E900572E0F8E50EC398501EE50E75F0C0
:1053EC0017A4F8A9F0850882850983A3A3125DD3BD
:1053FC00125429EC4D600302536C85088285098395
:10540C0074FFF0A3F0E50F70061250C8120C34A90B
:10541C000F0251D3F50AEF3400F50B22A312542ED0
:10542C00FD22E0FCA3E0228E828F83125C63850E4A
:10543C0082850F83E8F0A3E9F022C082C083900537
:10544C006EE06A7003A3E06B70067A6E7B058004D5
:10545C007A007B0002478874F7121AC87F00EF7538
:10546C00F003A4F8A9F0EC28F8ED39F988828983C7
:10547C00E06A7003A3E06B7006E8FAE9FB800B0F9F
:10548C00EFC3940240D87A007B007F01021B9A7410
:10549C00F6121AC8125A4C70067A007B008007A3C9
:1054AC00A3A3A31250CE025B0D74F2121AC8E9FE2C
:1054BC00740E121ABC1255157410121ABC12597DA6
:1054CC008C828D83E06402703BA3125C5F888289BE
:1054DC0083E0F50CA3E0F9A80C740268700374293E
:1054EC00697021750C02750D00780C121CDB7808A4
:1054FC00121CDB780A121CDBEEF9120FE274061296
:10550C001A8780027901025B7DE0F50AA3E0F50BB6
:10551C002274E8121AC874FB121A71E98518828574
:10552C001983F08A168B178C0E8D0F741F121ABCF0
:10553C0012597D7421121ABC1255157423121ABCFF
:10554C001259677510008C828D83A3A3A3E0A2E48B
:10555C00502A741D121ABC1251DE8A828B83E5828A
:10556C0045837003025629790AAC0EAD0FAA16AB0F
:10557C0017121AC6E9F510600302562C850E8285A7
:10558C000F83E0640260030258E2A3125C5F85089B
:10559C0082850983A3858212858313E50E2406F583
:1055AC000CE50F12593E88828983E0FAA3E0F9EAF0
:1055BC002400F514E439F5157814121D650100006A
:1055CC00280128F15507000228C856032838560030
:1055DC0029F25701291A580229C1570329F25704F5
:1055EC00298358E258EE4F703E850C82850D83124C
:1055FC005958FAE9FB8A828B83E0850A82850B83F2
:10560C00125994121CDB8A828B83A312542EFDAA8E
:10561C0008AB091206BE7402121A87800375100EAD
:10562C00A9107405025DC175100B80F4EE4F70F774
:10563C00850A82850B837401F012596D8508828569
:10564C000983F07C007D00850E82850F83A3A3A3C4
:10565C00A3E02401FAA3E03400FB120E9EEA4B6097
:10566C00418A828B83E02402F8850A82850B83E0D1
:10567C0028F0EA2404F8EB3400F988828983E08569
:10568C0012828513831259A6125994121CDB8A823A
:10569C008B83125428E5082403FAE5093400FB0235
:1056AC00561F850A82850B83E02404F07C047D0060
:1056BC007900AA12AB131206D602562CEE4F6003D9
:1056CC0002563312596DFEA3E0FF850A82850B83C7
:1056DC007404F0EE850882850983F0EF85128285CB
:1056EC001383F07403121ABCAC82AD83EEFAEFFB99
:1056FC00125A3A700302579E8A828B83A3A31259C3
:10570C00637401121ABC85820E85830F780E121CED
:10571C00DB7405121ABC121CF27CFF7DFF120EA466
:10572C007404121A878B0FEA450F7033850C82852F
:10573C000D83125943121CDB850C82850D83A31239
:10574C001CF27C027D007ACC7B83120CD074041288
:10575C001A87E9700A7401121ABC74FFF0A3F08E58
:10576C00828F83E064027034750C02750D00780C26
:10577C00121CDB8E828F83125428E5082404FAE570
:10578C0009124D54121A87850A82850B83E0240274
:10579C0080097401121ABCEEF0A3EFF07401121A16
:1057AC00BC125954F07401121ABCA312594CA3A385
:1057BC00A3F002562CEE4F6003025633850C828503
:1057CC000D83125429AA16AB17120FD6850A82859F
:1057DC000B837402F0EA850882850983F0851282B6
:1057EC00851383EB80CBEE4F600302563312596D59
:1057FC00F8A3E0F9850A82850B837402F0E885082A
:10580C0082850983F0E985128285138380A3850C38
:10581C0082850D831250CE1206B8EAFC8C82A882C7
:10582C00C39EE49F404BE86E7001EF70047C0080D7
:10583C001F851882851983E0FAEE2AFAEF3400FBF3
:10584C00C3EA98EB94005003E08004EECCC39CFCBC
:10585C00EC850A82850B83F08C0A750B00780A1292
:10586C001CDB850C82850D83E02EFCA3E03F0256E9
:10587C001A75100702562CEE4F6003025633850C36
:10588C0082850D83125C5F850A82850B837407F019
:10589C008882898312594C125934E08512828513FF
:1058AC0083F0E82402FAE93400FB8A828B831259D4
:1058BC004C125985125954A312598E12595DF0E8A5
:1058CC002405F8E93400F98882898312595DA31202
:1058DC0059A6A30257BA741D121ABC125A4570036A
:1058EC00025629125C5F880C890DE8450D70030285
:1058FC0056298E108F117810121CDB780A121CDBC3
:10590C007808121CDB7406121ABCE0F9AC0EAD0F51
:10591C00AA16AB17850C82850D83121AC674061253
:10592C001A87E9F51002562CF088828983A322F598
:10593C000CEF3400F50D22E0F50E750F00780E22F9
:10594C00E0850882850983221259AD22125C63E836
:10595C00221259ADA3A322A3A3A3A3E0FEA3E0FFAD
:10596C0022850C82850D83E0F8A3E0F5838882E024
:10597C0022E0F508A3E0F50922A3A3F08A828B8329
:10598C00A322124640A3A322F08A828B8312599D34
:10599C0022E0F50A750B00780A221259341259AD1F
:1059AC0022E0850882850983A3A32274EE121AC80B
:1059BC0074FE121A718A0A8B0BECFAEDFB7414123A
:1059CC001ABCE0F510A3E0F5117416121ABCE0FE37
:1059DC007418121ABCE0F50EA3E0F50F8518828539
:1059EC001983AC82AD83125A3A603E8518828519B0
:1059FC0083125A45602FA3A312597DE5084509600F
:105A0C0024780E121CDB7810121CDBEEF9AC0CADFA
:105A1C000DAA0AAB0B850882850983121AC6740479
:105A2C00121A878006790E80027901024E7A120EC4
:105A3C009E8A0C8B0DEA450D221250D2125A4C2222
:105A4C00120F6A8A828B83E58245832274F6121ABE
:105A5C00C874FE121A71740C121ABC12595885189B
:105A6C0082851983F07401121ABCE9F0E4F508F58B
:105A7C00097808121CDB7508027808121CDB740408
:105A8C00121ABC8582088583097808121CDB120F58
:105A9C00BE7406121A877402121A87806474F71285
:105AAC001AC8EAFEEBFF89087CA57D05120FD6EA21
:105ABC005402600BA908EEFAEFFB120E92800279E9
:105ACC000102549674F6121AC874FF6A700374FFBC
:105ADC006B701C7B00EB75F003A4F8A9F0EC28F8B4
:105AEC00ED39F9125B120BEBC39402501480E612E1
:105AFC000FA68A088B09A808A909E8496003125B5C
:105B0C00127F02021B9A8882898374FF12463EE43C
:105B1C00F02274F6121AC8120FA68A828B83E582C1
:105B2C0045836006A3A3E0FA80027A007B0080D153
